:100000003DC0000056C0000054C0000052C00000B7
:1000100050C000004EC000004CC000004AC00000AC
:1000200048C0000046C0000044C0000024C20000D8
:1000300040C000003EC000003CC000003AC00000CC
:1000400038C0000036C0000034C0000032C00000DC
:1000500030C000002EC000002CC000002AC00000EC
:1000600028C0000026C0000024C0000022C00000FC
:1000700020C000001EC000001CC0000011241FBED4
:10008000CFEFD0E1DEBFCDBF11E0A0E0B1E0E8E707
:10009000F6E002C005900D92AE34B107D9F711E039
:1000A000AEE4B1E001C01D92A336B107E1F702D082
:1000B000E1C2A6CFA0E0B0E0EFE5F0E096C2C4B7A1
:1000C00014BE88E10FB6F89480936000109260002F
:1000D0000FBE32D189E091E03CD1D4E086E990E0D6
:1000E00012D28EE091E035D1D150C1F78CE291E08F
:1000F0000AD22FE088E190E00FB6F894A89580939B
:1001000060000FBE2093600017D1C3FF03C080E1E1
:1001100091E011C0C2FF03C089E191E00CC0C1FFB2
:1001200003C082E291E007C0C0FF03C08BE291E010
:1001300002C085E391E00DD188EEE82E83E0F82E31
:1001400094E6C92ED12C0AE010E061E080E06ED187
:100150008AE391E0FED0A8950BD24B015C0182E5C9
:100160007DD1882391F304D2E401C61BD70BC05381
:10017000D84F61E080E05AD183E491E0EAD0D7FF24
:1001800003C087E491E025C0CE01B701F3D18827F1
:1001900077FD8095982F2BD18EE091E0DAD0CE01BB
:1001A000B601E8D1CB01B801E5D1BC01882777FDC4
:1001B0008095982F1CD1CE01B801DCD1CB01B801BC
:1001C000D9D1BC01882777FD8095982F10D18BE479
:1001D00091E0BFD0C4CF81E090E06F9364E06A9576
:1001E000F1F76F910197C9F708951F93CF93DF93AC
:1001F00017B13F982898299AC0E0D0E0ECDF2B9AFD
:10020000EADF86B12B98229687FF10C0AE0160E02E
:1002100070E080914E0190914F01A0915001B091FA
:100220005101481759076A077B0740F317B9DF9157
:10023000CF911F91089588B92B9ACDDF2B98CBCF02
:10024000A1E0B0E0E5E2F1E0D7C1062F90916001B6
:10025000911106C091E090936001898317D0898144
:100260008983C3DF17B1F8B029988981002311F081
:10027000289A01C028989FEF97B9DDDF17B9F8B821
:100280002196E5E0D5C142E060E0DACF80E197E277
:10029000A0E0B0E080934E0190934F01A0935001F5
:1002A000B0935101209A219A239A8EE190E02BD1AC
:1002B00080E3E9DF86E090E026D180E3E4DF82E0BE
:1002C00090E021D180E3DFDF82E090E01CD188E381
:1002D000DADF88E0D8DF81E0D6DF86E0D4DF8CE0AB
:1002E000D2CF42E061E0ACCF81E0CDDF809154011C
:1002F00090915501892BF9F060E0A0E2262F30E0C3
:10030000709101018091020190E00197789FA00116
:10031000799F500D1124241735074CF4E0915401B6
:10032000F0915501E20FF31FA0836F5FE7CF1092AA
:100330005201109253010895D7CF0895CF93DF93C0
:10034000EC018991882311F0CCDFFBCFDF91CF91B5
:100350000895F4CF0895AAE0B0E0E0EBF1E049C1E0
:100360001AE02AE0C22ED12CE12CF12C062FA70195
:10037000960113D1CA01B9011150E1E0F0E0EC0F90
:10038000FD1FE10FF11D005D2AE0629F001911249D
:100390000083611571058105910541F71A3050F40C
:1003A000E1E0F0E0EC0FFD1FE10FF11D808199DF2E
:1003B0001F5FF4CF2A96E8E038C1CF92DF92EF9228
:1003C000FF926B017C0197FF0AC0F094E094D094F7
:1003D000C094C11CD11CE11CF11C8DE282DFC7015D
:1003E000B601B9DFFF90EF90DF90CF900895E5CF91
:1003F0000895A5E0B0E0EEEFF1E000C1182F80E82D
:10040000898380EC8A8384E98B8384ED8C83FE016D
:10041000E60FF11D8181810F6D8335DF109352014D
:100420006D81609353012596E3E004C1E2CF089506
:1004300087B18D7A87B985E090E06F9364E06A9523
:10044000F1F76F910197C9F70895809161018111CA
:1004500004C081E080936101EBCF0895A1E0B0E09A
:10046000E3E3F2E0CCC08983F0DF96B18981892390
:100470002196E2E0E0C02F928F939F932FB6809158
:100480005D0190915E01019680935D0190935E0104
:1004900090E080915F01891F80935F0190915701E7
:1004A0009C5F909357018091560180519742C0F014
:1004B0009093570180935601809158019091590172
:1004C0000196809358019093590190E080915A01D0
:1004D000891F80935A0180915B01891F80935B0182
:1004E0002FBE9F918F912F90189528EE33E00197A2
:1004F00048F0F9016F9364E06A95F1F76F913197D5
:10050000C9F7F5CF0895F1CF0895E0E7F0E08081D5
:100510008E7F8083A0EBB0E08C9183608C93A1EB05
:10052000B0E08C91807F8C938C9182608C93B89A90
:100530008081816080837894089580916201811127
:1005400004C081E080936201E0CF0895F6DFE0E728
:10055000F0E080818E7F8083609158017091590115
:1005600080915A0190915B01208121602083089540
:10057000EDCF089597FB072E16F4009406D077FD73
:1005800008D064D007FC05D03EF4909581959F4F2C
:100590000895709561957F4F0895A1E21A2EAA1BC8
:1005A000BB1BFD010DC0AA1FBB1FEE1FFF1FA21723
:1005B000B307E407F50720F0A21BB30BE40BF50B20
:1005C000661F771F881F991F1A9469F760957095A9
:1005D000809590959B01AC01BD01CF0108952F92AC
:1005E0003F924F925F926F927F928F929F92AF92C3
:1005F000BF92CF92DF92EF92FF920F931F93CF9310
:10060000DF93CDB7DEB7CA1BDB0B0FB6F894DEBFA6
:100610000FBECDBF09942A88398848885F846E84CC
:100620007D848C849B84AA84B984C884DF80EE8016
:10063000FD800C811B81AA81B981CE0FD11D0FB61F
:10064000F894DEBF0FBECDBFED010895AA1BBB1B02
:1006500051E107C0AA1FBB1FA617B70710F0A61BC2
:10066000B70B881F991F5A95A9F780959095BC01E3
:08067000CD010895F894FFCFBD
:10067800011404000063012000626F6F74002E00F3
:100688005741544348444F470042524F574E4F55E5
:10069800540045585445524E414C00504F5745520E
:1006A8002D4F4E20006E6F6E650020425554544FFA
:0E06B8004E200057442000302E3030730000DA
:00000001FF
