:1000000033C000004DC000004BC0000017C5000009
:1000100015C5000013C5000043C0000041C000002A
:100020003FC00000EFC600003BC0000039C0000028
:1000300037C0000061C3000033C0000031C00000C1
:100040002FC000002DC000002BC0000029C0000000
:1000500027C0000025C0000023C0000021C0000010
:100060001FC000001DC0000011241FBECFEFD8E04C
:10007000DEBFCDBF11E0A0E0B1E0EAEFF2E102C0E7
:1000800005900D92AE3BB107D9F711E0AEEBB1E0B0
:1000900001C01D92A23EB107E1F703D00C947B0989
:1000A000AFCFCF93DF93CDB7DEB729970FB6F894D4
:1000B000DEBF0FBECDBF60D461E083E191E000D62A
:1000C0008CE291E074D390EA492E95E2592E96E2A3
:1000D000692E712CAE014B5F5F4FBE016F5F7F4F8A
:1000E00080E08ED669817A818B819C8128D5603EA3
:1000F000734984409105D0F08D8160E0813059F4DE
:1001000080E09AD48AE891E044D461E080E094D41D
:1001100085E991E054C080E08FD485E991E039D43D
:1001200061E080E089D480EA91E049C080E0EFD5C9
:10013000882381F280E0EDD5882361F280E006D645
:100140009B01AC0180E02E833F83488759871BD6F3
:100150006B017C012E813F8148855985C20ED31EDB
:10016000E41EF51E46015701B694A7949794879410
:10017000A4E6B0E0FAD6860E971EA81EB91EC501E9
:10018000B401A70196011BD749015A0160E080E044
:1001900053D4C301B201A701960111D7CA01B90115
:1001A0002CD48BEA91E0F5D361E080E045D485EB77
:1001B00091E0EFD3C501B40120D48AEB91E0E9D3FB
:1001C00089CF9091C301E091BE01F091BF019923C5
:1001D00011F0849101C080812FEB280F2A3110F497
:1001E000805E0895803249F49F012F5F3F4F309326
:1001F000BF012093BE01EF2B31F708951F93CF93DA
:10020000DF93DFDFC0E0D0E01AE090ED980F9A3086
:10021000B0F49E01129FE001139FD00D1124C80F6E
:10022000D11D87FDDA95E0978091BE019091BF01C5
:1002300001969093BF018093BE01C3DFE6CFCE014C
:10024000DF91CF911F91089510926F0083E2809308
:10025000800081E1809381001092820080E197E22A
:10026000909389008093880010928B0010928A00EE
:10027000229A789408958F929F92AF92BF92DF92C4
:10028000EF92FF920F931F93CF93DF935C018B014B
:10029000D42E8091C001811104C081E08093C001FF
:1002A000D3DF10920A01B7FE05C0E894B7F82AE040
:1002B000F22E02C0FF24F394E09081002E2D287FBF
:1002C000E22E48ECF49EC00111248A159B05D8F457
:1002D000E50151E1A51657E2B50610F0C0E1D7E2FD
:1002E000BE017695679580E090E060587946874634
:1002F0009F4F4E01A12CB12CA501940160D659014C
:100300008E2D816023C0C8E2FC9EC02D1124D0E058
:10031000CA15DB0508F4E501BE01769567959E01D7
:1003200040E050E08AE0F81207C080E090E0605EB4
:10033000734481449F4F06C080E090E060537D4E3F
:100340008C4E9F4F3CD659018E2D8260882E2AE01C
:10035000F21206C0CE0105966AE070E01CD6EB01F1
:10036000C83E43E0D40749F09801DE01EFD528EEFE
:1003700033E040E050E045D6890110926F00809252
:100380008100B0928900A09288002091880030916D
:1003900089004D2D403108F04FE080E190E0841B52
:1003A0009109A90102C0569547958A95E2F75093A5
:1003B0008B0040938A001093C6010093C50186B359
:1003C0008FEF86BB81E080936F00DF91CF911F910B
:1003D0000F91FF90EF90DF90BF90AF909F908F9024
:1003E0000895CF93DF93EB018F3F11F0411105C0CA
:1003F00040E0BE0188EE93E041C0813130F050EF23
:10040000580F503618F05FE501C050E0852F6CE0C2
:10041000B6D5682F74EF760390011124250F311D96
:100420002C30310540F4F901EE0FFF1FEC5EFE4F5A
:100430002081318102C020E030E0873081F0082E39
:1004400002C0220F331F0A94E2F7823028F0C9015C
:1004500005966AE070E00CC0C90190580BC0C90154
:1004600036E0880F991F3A95E1F7029665E070E053
:1004700092D5CB01403108F04FE0BE01FCDEDF91A8
:10048000CF910895A2E0B0E0E7E4F2E0D8C5909003
:1004900009018091C201882321F06091C10161119D
:1004A00017C077247394B0ECAB2EBDE5BB2E1AE0D9
:1004B000612E04E0802E80EDC82E87E0D82E94E0D7
:1004C000E92EF12C04EF11E02FE0422E512C14C044
:1004D00070E040E088EE93E0CEDE1092C10109C1E9
:1004E0008636CCF5813609F4A1C074F58C3309F455
:1004F0005CC08E3379F4939464DE2091BE01309118
:10050000BF012F5F3F4F3093BF012093BE0185365F
:1005100039F74FC0813209F084C080920901D0922E
:100520000801C0920701F0920601E09205011093C4
:1005300004010093030150920201409201011092C4
:10054000C201A4E09A2ED8CF833689F10CF471C091
:1005500010E082E070C08D36A9F18CF4873679F115
:100560005CF18C3609F05DC049DEBC019093060158
:100570008093050180910701909108014CC082375A
:10058000B1F144F48F3609F04CC038DE982E8093D8
:100590000901B2CF843771F1863709F042C02EDEEF
:1005A0009093020180930101A7CF9A94A5CF10E008
:1005B0001FC010E084E03FC010E085E03CC010E0C8
:1005C00087E039C0FEDD8C3619F41092C20104C0F8
:1005D0007092C2011092C1012091BE013091BF0101
:1005E0002F5F3F4F3093BF012093BE0185CF11E0B5
:1005F00080E021C003DEBC01C501CDD4669EC001F0
:10060000679E900D112490930801809307016091DB
:10061000050170910601BFD470930401609303013A
:100620006BCF1092BF011092BE0163C010E089E051
:1006300002C010E08BE0082F9CE0999E000D112471
:10064000C0DD982F977F933261F42091BE013091E5
:10065000BF012F5F3F4F3093BF012093BE010F5F5B
:10066000EFCF8D3269F42091BE013091BF012F5F31
:100670003F4F3093BF012093BE010150A2DDF1CF67
:1006800060910301709104018153883040F4E0903F
:100690000701F0900801B2DDBC01C7017CD47B01E9
:1006A000F694E79469837A838CDD69817A818E324E
:1006B00069F42091BE013091BF012F5F3F4F30930D
:1006C000BF012093BE016E0D7F1DEACF8091C20154
:1006D000882339F09B01369527952093C101621B31
:1006E000710940910101112311F08FEF01C0802F9A
:1006F00078DE2296E0E1BFC41F920F920FB60F92F0
:1007000011242F933F934F935F936F937F938F9316
:100710009F93AF93BF93EF93FF938091C501909107
:10072000C6019C01215031093093C6012093C501B7
:10073000892B09F510926F00789480918100887F51
:1007400081608093810080E197E29093890080939B
:10075000880010928B0010928A0081E080930A0139
:100760008091BE019091BF01892B29F08091C40135
:10077000811101C087DEFF91EF91BF91AF919F91F1
:100780008F917F916F915F914F913F912F910F903A
:100790000FBE0F901F90189510926F009093BF019D
:1007A0008093BE011092C3011092C1016BCEF4CFB1
:1007B000089581E090E06F9364E06A95F1F76F919E
:1007C0000197C9F708950F931F93CF93DF931AB141
:1007D00057985A98289AC0E0D0E0EBDF5C9AE9DF9E
:1007E00009B15C98E6DF5C9AE4DF5C98249607FF29
:1007F00010C0AE0160E070E08091C7019091C80127
:10080000A091C901B091CA01481759076A077B072F
:1008100020F31AB9DF91CF911F910F91089595B1EF
:10082000282F217030E0220F331F482F467068E0D8
:10083000469FA0011124242B9D7C292B25B99BB117
:1008400088708295807F9F77892B8BB95C9AB1DF06
:100850005C98AFCFA0E0B0E0EFE2F4E0F9C3C82FBE
:10086000D62EE42E8091DC01811104C081E08093BA
:10087000DC012AD0A8DF14B1D5B1FAB00BB12898A9
:10088000DD2011F05A9A01C05A9894B1926394B93C
:10089000579A81E0E81621F08C2F82958F70BFDF88
:1008A0008C2F8F70BCDFFAB80BB914B9D5B9CDB79E
:1008B000DEB7E7E0E9C342E060E0CCCF42E061E0D0
:1008C000C9CF41E060E0C6CF80E197E2A0E0B0E0B0
:1008D0008093C7019093C801A093C901B093CA0146
:1008E000529A209A549A8EE190E0E4D283E0E9DFB4
:1008F00086E090E0DFD283E0E4DF82E090E0DAD2CD
:1009000083E0DFDF82E090E0D5D282E0DADF82E0D0
:1009100090E0D0D288E2CFDF88E0CDDF81E0CBDF8E
:1009200086E0C9DF8CE0C7CF81E0C5DF8091CD01D3
:100930009091CE01892BF9F060E0A0E2262F30E003
:1009400070910B0180910C0190E00197789FA001BC
:10095000799F500D1124241735074CF4E091CD01F7
:10096000F091CE01E20FF31FA0836F5FE7CF1092EB
:10097000CB011092CC010895D7CF0895CF93DF9388
:10098000EC018991882311F099DFFBCFDF91CF91A2
:100990000895F4CF0895AAE0B0E0E0EDF4E057C385
:1009A0001AE05AE0C52ED12CE12CF12C062FA7011C
:1009B000960105D3CA01B9011150E1E0F0E0EC0F56
:1009C000FD1FE10FF11D005D2AE0629F0019112457
:1009D0000083611571058105910541F71A3050F4C6
:1009E000E1E0F0E0EC0FFD1FE10FF11D808166DF1B
:1009F0001F5FF4CF2A96E8E046C3CDCF0895A5E067
:100A0000B0E0E4E0F5E028C3182F80E8898380ECAB
:100A10008A8384E98B8384ED8C83FE01E60FF11DCC
:100A20008181810F6D8347DF1093CB016D816093CE
:100A3000CC012596E3E02CC3E2CF08951F920F92DC
:100A40000FB60F921124CF92DF92EF92FF921F9375
:100A50002F933F934F935F936F937F938F939F93C6
:100A6000AF93BF93CF93DF93EF93FF932091B200A7
:100A70008091D8019091D901A091DA01B091DB0168
:100A8000B89B0DC02091B2008091D8019091D901FE
:100A9000A091DA01B091DB019F5FAF4FBF4F822B76
:100AA0001091CF01E091D001F091D10120E0211708
:100AB00071F1C081D18148813281432331E009F451
:100AC00030E04781341701F143815481658176819B
:100AD0006C017D01C41AD50AE60AF70AC781CC2346
:100AE00039F0C086D186E286F3864089426006C02E
:100AF000C486D586E686F78640894160408B378379
:100B000083839483A583B6832F5F7196D0CFFF91A3
:100B1000EF91DF91CF91BF91AF919F918F917F9195
:100B20006F915F914F913F912F911F91FF90EF90A7
:100B3000DF90CF900F900FBE0F901F9018959CC123
:100B400008958091D0019091D101009729F044D36C
:100B50001092D1011092D0010895A0E0B0E0E2EB34
:100B6000F5E071C2EC01A62E1092680010926B00A5
:100B700010926C0010926D006093CF01E2DF21E1D2
:100B8000A29EC001112490D29093D1018093D001F4
:100B9000892B09F490C08C2E7E01C12CD12C992474
:100BA00093948E2D88198A1508F065C0F7018191FC
:100BB0007F01883040F4B92C01C0BB0C8A95EAF75C
:100BC000C9E2D0E019C08E3048F48850B92C01C079
:100BD000BB0C8A95EAF7C3E2D0E00EC0853148F439
:100BE0008E50B92C01C0BB0C8A95EAF7C6E2D0E062
:100BF00003C0B12CC0E0D0E00091D0011091D10130
:100C00000C0D1D1DF801D183C083B28210861186A0
:100C10001286138614861586168617866ED1F801FD
:100C20006383748385839683E091D001F091D10131
:100C3000EC0DFD1D88818B218783108AC332D1057D
:100C400031F480916B008B2980936B0010C0C63209
:100C5000D10531F480916C008B2980936C0007C022
:100C6000A99729F480916D008B2980936D00F1E1A3
:100C7000CF0ED11C96CF8FEF8BBB80916B0088235A
:100C800029F08091680081608093680080916C00F9
:100C9000882329F0809168008260809368008091A9
:100CA0006D00882329F0809168008460809368003B
:100CB000789480E001C081E0CDB7DEB7ECE0DFC121
:100CC0004CCF08959091CF018917F8F491E1899F55
:100CD00090011124E091D001F091D101E20FF31FB6
:100CE0008089862391F08089909168001092680035
:100CF000E091D001F091D101E20FF31F20896095BE
:100D00006223608B90936800089580E0089562E00C
:100D1000D9CF61E0D7CF0F931F93E091D001F0912D
:100D2000D10191E1899FE00DF11D1124608571854C
:100D3000828593850085118522853385601771072B
:100D40008207930799F71F910F910895E4CF0895B3
:100D50000F931F93E091D001F091D10191E1899F10
:100D6000E00DF11D112464857585868597850485C0
:100D7000158526853785601771078207930799F7D0
:100D80001F910F910895E4CF0895A0E0B0E0EAEC40
:100D9000F6E05DC1EB0121E1829FC0011124E091E9
:100DA000D001F091D101E80FF91F2781FA012083CA
:100DB000E091D001F091D101E80FF91F0381148176
:100DC00025813681088319832A833B83C380D4809D
:100DD000E580F6800C151D052E053F0501F78DD029
:100DE000088119812A813B81601B710B820B930B57
:100DF000688379838A839B83CDB7DEB7E8E043C1FC
:100E0000C4CF08952F928F939F932FB68091D901CD
:100E10009091DA0101968093D9019093DA0190E0E4
:100E20008091DB01891F8093DB019091D3019C5F4E
:100E30009093D3018091D20180519742C0F090935A
:100E4000D3018093D2018091D4019091D501019674
:100E50008093D4019093D50190E08091D601891FB1
:100E60008093D6018091D701891F8093D7012FBE2F
:100E70009F918F912F9018956F5F7F4F8F4F9F4F4E
:100E8000660F771F881F991F25E030E040E050E093
:100E900096D0CA01B901089528EE33E0019748F0D1
:100EA000F9016F9364E06A95F1F76F913197C9F793
:100EB000F5CF0895F1CF0895E0E7F0E080818E7FCF
:100EC0008083A0EBB0E08C9183608C93A1EBB0E0C9
:100ED0008C91807F8C938C9182608C93B89A808166
:100EE00081608083789408958091DD01811104C030
:100EF00081E08093DD01E0CF0895F6DF80917000FE
:100F00008E7F809370002091B2008091D8019091E3
:100F1000D901A091DA01B091DB01B89903C0BC01FD
:100F2000CD010DC02091B2006091D8017091D9011E
:100F30008091DA019091DB017F5F8F4F9F4F622B91
:100F4000209170002160209370000895A29FB0014D
:100F5000B39FC001A39F700D811D1124911DB29FED
:100F6000700D811D1124911D0895F0DFA59F900D36
:100F7000B49F900DA49F800D911D11240895991B7D
:100F800079E004C0991F961708F0961B881F7A9580
:100F9000C9F780950895AA1BBB1B51E107C0AA1F82
:100FA000BB1FA617B70710F0A61BB70B881F991F0A
:100FB0005A95A9F780959095BC01CD010895A1E2BD
:100FC0001A2EAA1BBB1BFD010DC0AA1FBB1FEE1FC3
:100FD000FF1FA217B307E407F50720F0A21BB30B0E
:100FE000E40BF50B661F771F881F991F1A9469F78A
:100FF00060957095809590959B01AC01BD01CF01E6
:101000000895052E97FB16F400940FD057FD05D0D8
:10101000D6DF07FC02D046F408C0509540953095C5
:1010200021953F4F4F4F5F4F089590958095709554
:1010300061957F4F8F4F9F4F08952F923F924F9210
:101040005F926F927F928F929F92AF92BF92CF9258
:10105000DF92EF92FF920F931F93CF93DF93CDB761
:10106000DEB7CA1BDB0B0FB6F894DEBF0FBECDBFD9
:1010700009942A88398848885F846E847D848C84AA
:101080009B84AA84B984C884DF80EE80FD800C81B3
:101090001B81AA81B981CE0FD11D0FB6F894DEBF96
:1010A0000FBECDBFED010895CF93DF938230910540
:1010B00010F482E090E0E091E001F091E10120E0A5
:1010C00030E0A0E0B0E0309739F14081518148171D
:1010D0005907B8F04817590771F482819381109726
:1010E00029F013969C938E9312972CC09093E10154
:1010F0008093E00127C02115310531F042175307D5
:1011000018F0A901DB0101C0EF019A01BD01DF0167
:101110000280F381E02DD7CF21153105F9F0281B8E
:10112000390B2430310580F48A819B81611571056A
:1011300021F0FB019383828304C09093E1018093AB
:10114000E001FE01329644C0FE01E20FF31F8193DD
:10115000919322503109398328833AC02091DE01CE
:101160003091DF01232B41F420910F0130911001C8
:101170003093DF012093DE0120910D0130910E01AB
:101180002115310541F42DB73EB740911101509121
:101190001201241B350BE091DE01F091DF01E21713
:1011A000F307A0F42E1B3F0B2817390778F0AC018A
:1011B0004E5F5F4F2417350748F04E0F5F1F509367
:1011C000DF014093DE018193919302C0E0E0F0E003
:1011D000CF01DF91CF910895CF93DF93009709F46A
:1011E00087C0FC01329713821282C091E001D09136
:1011F000E101209781F420813181280F391F8091EE
:10120000DE019091DF018217930779F5F093DF01FA
:10121000E093DE016DC0DE0120E030E0AE17BF07D5
:1012200050F412964D915C9113979D014115510513
:1012300009F1DA01F3CFB383A28340815181840F96
:10124000951F8A179B0771F48D919C911197840FBC
:10125000951F02969183808312968D919C9113978E
:10126000938382832115310529F4F093E101E09302
:10127000E0013EC0D9011396FC93EE9312974D9175
:101280005D91A40FB51FEA17FB0779F48081918166
:10129000840F951F0296D90111969C938E9382819B
:1012A000938113969C938E931297E0E0F0E08A81ED
:1012B0009B81009719F0FE01EC01F9CFCE01029657
:1012C00028813981820F931F2091DE013091DF0147
:1012D0002817390769F4309729F41092E101109228
:1012E000E00102C013821282D093DF01C093DE01BD
:0A12F000DF91CF910895F894FFCF2D
:1012FA00010F00F4010400D007040108020000E213
:10130A000120000A9C01B501CF01EA010702260269
:10131A00470269028E02B502DE020A03214C34201A
:10132A004D532045444344454545322044444432C4
:10133A0020454747322056392045444344454545D0
:10134A00452044444544433120522054323430200D
:10135A004F362056313420454443444545453220D2
:10136A004444443220454747322045444344454596
:10137A004545204444454443310050696E2048495C
:10138A004748202000202020202020202020200044
:10139A0050696E20204C4F5720200020487A202088
:0E13AA00202020200044433A2000252020006F
:00000001FF
