:1000000033C000004DC000004BC0000049C00000DC
:1000100047C0000045C0000043C0000041C00000D0
:100020003FC000003CC700003BC0000039C00000DA
:1000300037C0000052C3000033C0000031C00000D0
:100040002FC000002DC000002BC0000029C0000000
:1000500027C0000025C0000023C0000021C0000010
:100060001FC000001DC0000011241FBECFEFD8E04C
:10007000DEBFCDBF11E0A0E0B1E0E0E0F9E102C0F9
:1000800005900D92A034B107D9F711E0A0E4B1E0DA
:1000900001C01D92A437B107E1F703D00C947E0C88
:1000A000AFCF9FD552D48BE291E09F938F930E9464
:1000B000E3090F900F908AE0482E512C612C712C8F
:1000C0009CE3892E912CA12CB12CC2E3D1E082E3D8
:1000D00043D6803149F0803261F0823079F44AE0D1
:1000E00062E370E089E309C04AE062E370E08BE319
:1000F00004C04AE062E370E08CE33FD382E3CDD6F4
:10010000803149F0803261F0823079F44AE062E374
:1001100070E085E409C04AE062E370E087E404C06F
:100120004AE062E370E088E428D336D76B017C01B3
:1001300061E080E019D5C701B601A30192015DD746
:10014000CA01B90124E630E040E050E056D77F9381
:100150006F93C701B60128EE33E040E050E04DD781
:10016000CA01B901A501940148D77F936F93C701D4
:10017000B60120E63AEE40E050E03FD7CA01B901AF
:10018000A50194013AD77F936F93DF93CF930E9499
:10019000E3098DB79EB708960FB6F8949EBF0FBEC1
:1001A0008DBF95CF90914501E0914001F0914101C3
:1001B000992311F0849101C080812FEB280F2A31FF
:1001C00010F4805E0895803249F49F012F5F3F4F05
:1001D0003093410120934001EF2B31F708951F9395
:1001E000CF93DF93DFDFC0E0D0E01AE090ED980F0F
:1001F0009A30B0F49E01129FE001139FD00D11249C
:10020000C80FD11D87FDDA95E0978091400190914C
:10021000410101969093410180934001C3DFE6CFF5
:10022000CE01DF91CF911F91089510926F0083E26C
:100230008093800081E1809381001092820080E1B0
:1002400097E2909389008093880010928B0010921F
:100250008A00229A789408958F929F92AF92BF92CB
:10026000DF92EF92FF920F931F93CF93DF935C0186
:100270008B01D42E80914201811104C081E08093D2
:100280004201D3DF10920A01B7FE05C0E894B7F827
:100290002AE0F22E02C0FF24F394E09081002E2D7C
:1002A000287FE22E48ECF49EC00111248A159B059C
:1002B000D8F4E50151E1A51657E2B50610F0C0E10A
:1002C000D7E2BE017695679580E090E06058794668
:1002D00087469F4F4E01A12CB12CA50194018DD6CC
:1002E00059018E2D816023C0C8E2FC9EC02D1124CF
:1002F000D0E0CA15DB0508F4E501BE0176956795E7
:100300009E0140E050E08AE0F81207C080E090E0F3
:10031000605E734481449F4F06C080E090E060536C
:100320007D4E8C4E9F4F69D659018E2D8260882E4E
:100330002AE0F21206C0CE0105966AE070E049D6C6
:10034000EB01C83E43E0D40749F09801DE0126D610
:1003500028EE33E040E050E072D6890110926F0041
:1003600080928100B0928900A0928800209188003C
:10037000309189004D2D403108F04FE080E190E050
:10038000841B9109A90102C0569547958A95E2F709
:1003900050938B0040938A001093480100934701CB
:1003A00086B38FEF86BB81E080936F00DF91CF91A2
:1003B0001F910F91FF90EF90DF90BF90AF909F90B3
:1003C0008F900895CF93DF93EB018F3F11F0411190
:1003D00005C040E0BE0188EE93E041C0813130F0BD
:1003E00050EF580F503618F05FE501C050E0852FF0
:1003F0006CE0E3D5682F74EF760390011124250F8C
:10040000311D2C30310540F4F901EE0FFF1FED5E78
:10041000FE4F2081318102C020E030E0873081F042
:10042000082E02C0220F331F0A94E2F7823028F010
:10043000C90105966AE070E00CC0C90190580BC074
:10044000C90136E0880F991F3A95E1F7029665E0F9
:1004500070E0BFD5CB01403108F04FE0BE01FCDEBB
:10046000DF91CF910895A2E0B0E0E8E3F2E005C6A5
:100470009090090180914401882321F0609143010B
:10048000611117C077247394B0ECAB2EBDE5BB2E81
:100490001AE0612E04E0802E80EDC82E87E0D82E71
:1004A00094E0E92EF12C04EF11E02FE0422E512CC4
:1004B00014C070E040E088EE93E0CEDE109243017D
:1004C00009C18636CCF5813609F4A1C074F58C33A8
:1004D00009F45CC08E3379F4939464DE209140017A
:1004E000309141012F5F3F4F3093410120934001F4
:1004F000853639F74FC0813209F084C080920901F6
:10050000D0920801C0920701F0920601E092050125
:1005100010930401009303015092020140920101E3
:1005200010924401A4E09A2ED8CF833689F10CF4BE
:1005300071C010E082E070C08D36A9F18CF487366E
:1005400079F15CF18C3609F05DC049DEBC01909315
:1005500006018093050180910701909108014CC02C
:100560008237B1F144F48F3609F04CC038DE982E52
:1005700080930901B2CF843771F1863709F042C008
:100580002EDE9093020180930101A7CF9A94A5CF0C
:1005900010E01FC010E084E03FC010E085E03CC0E8
:1005A00010E087E039C0FEDD8C3619F4109244016A
:1005B00004C0709244011092430120914001309197
:1005C00041012F5F3F4F309341012093400185CF80
:1005D00011E080E021C003DEBC01C501FAD4669EB3
:1005E000C001679E900D112490930801809307012C
:1005F0006091050170910601ECD470930401609341
:1006000003016BCF109241011092400163C010E0D2
:1006100089E002C010E08BE0082F9CE0999E000D5D
:100620001124C0DD982F977F933261F4209140010F
:10063000309141012F5F3F4F3093410120934001A2
:100640000F5FEFCF8D3269F420914001309141016D
:100650002F5F3F4F30934101209340010150A2DDB5
:10066000F1CF60910301709104018153883040F40F
:10067000E0900701F0900801B2DDBC01C701A9D4E8
:100680007B01F694E79469837A838CDD69817A81B2
:100690008E3269F420914001309141012F5F3F4F2C
:1006A00030934101209340016E0D7F1DEACF809170
:1006B0004401882339F09B01369527952093430107
:1006C000621B710940910101112311F08FEF01C0EC
:1006D000802F78DE2296E0E1ECC41F920F920FB6D5
:1006E0000F9211242F933F934F935F936F937F93B8
:1006F0008F939F93AF93BF93EF93FF9380914701A5
:10070000909148019C012150310930934801209378
:100710004701892B09F510926F0078948091810030
:10072000887F81608093810080E197E290938900C7
:100730008093880010928B0010928A0081E0809351
:100740000A018091400190914101892B29F080910B
:100750004601811101C087DEFF91EF91BF91AF91FA
:100760009F918F917F916F915F914F913F912F91C9
:100770000F900FBE0F901F90189524CE089580E023
:1007800090E0089581E090E06F9364E06A95F1F75E
:100790006F910197C9F708950F931F93CF93DF933C
:1007A0001AB157985A98289AC0E0D0E0EBDF5C9ACB
:1007B000E9DF09B15C98E6DF5C9AE4DF5C98249697
:1007C00007FF10C0AE0160E070E080914901909198
:1007D0004A01A0914B01B0914C01481759076A0793
:1007E0007B0720F31AB9DF91CF911F910F910895E4
:1007F00095B1282F217030E0220F331F482F46700B
:1008000068E0469FA0011124242B9D7C292B25B94B
:100810009BB188708295807F9F77892B8BB95C9A7A
:10082000B1DF5C98AFCFA0E0B0E0E8E1F4E02EC427
:10083000C82FD62EE42E80916701811104C081E07B
:10084000809367012AD0A8DF14B1D5B1FAB00BB1FB
:100850002898DD2011F05A9A01C05A9894B19263F9
:1008600094B9579A81E0E81621F08C2F82958F7009
:10087000BFDF8C2F8F70BCDFFAB80BB914B9D5B9B4
:10088000CDB7DEB7E7E01EC442E060E0CCCF42E087
:1008900061E0C9CF41E060E0C6CF80E197E2A0E02F
:1008A000B0E08093490190934A01A0934B01B0932B
:1008B0004C01529A209A549A8EE190E038D383E00A
:1008C000E9DF86E090E033D383E0E4DF82E090E08C
:1008D0002ED383E0DFDF82E090E029D382E0DADF0D
:1008E00082E090E024D388E2CFDF88E0CDDF81E0B2
:1008F000CBDF86E0C9DF8CE0C7CF81E0C5DF809128
:100900004F0190915001892BF9F060E0A0E2262F71
:1009100030E070910B0180910C0190E00197789F7D
:10092000A001799F500D1124241735074CF4E09154
:100930004F01F0915001E20FF31FA0836F5FE7CFEB
:1009400010924D0110924E010895D7CF0895A5E061
:10095000B0E0ECEAF4E09EC3182F80E8898380ECD5
:100960008A8384E98B8384ED8C83FE01E60FF11D7D
:100970008181810F6D8388DF10934D016D816093BC
:100980004E012596E3E0A2C3FF920F931F93CF93EE
:10099000DF93C82F80914F0190915001892B41F432
:1009A0008C2F992787FD9095CDB7DEB7E5E08CC3F6
:1009B000CA3009F43DC0C830C1F480914D01815066
:1009C00080934D018F3F51F480914E01815080936F
:1009D0004E0180910B01815080934D0180914E0119
:1009E0008F3FB9F510924E0132C08C2F50DF8091AD
:1009F0004E018823A1F090E0019740910B01489FA0
:100A00009001499F300D112480914D01E0914F01DB
:100A1000F0915001E20FF31FE80FF11DC0838091A8
:100A20004D018F5F80934D0190910B018913B8CFD9
:100A300040914E01842F90E020910C0130E0215034
:100A400031098217930759F04F5F40934E0110927E
:100A50004D0160914E0180914D0179DFA1CFD0E031
:100A600060910C01862F90E002972D2F332727FDF0
:100A70003095281739077CF56D2F80E068DFF12C61
:100A800020910B01F21628F50F2D10E03D2F3203B7
:100A9000C0011124E0914F01F0915001E00FF11FCE
:100AA000E80FF91F8081F3DEE0914F01F0915001D2
:100AB00020910B013D2F3203C0011124E00FF11FE3
:100AC000E80FF91FDF01A20FB11D8C918083F39411
:100AD000D7CFDF5FC5CF623038F460910C01615031
:100AE00080E035DFD0E037C0625080E030DFD0E01A
:100AF00060E2F62E40910B01D41778F70D2F10E02D
:100B000020910C0130E022503109429FC001439FE7
:100B1000900D1124E0914F01F0915001E00FF11F71
:100B2000E80FF91F8081B3DE20910C0130E02250E4
:100B3000310940910B01429FC001439F900D112448
:100B4000E0914F01F0915001E00FF11FE80FF91F04
:100B5000F082DF5FCFCF80910B01D81708F077CFFD
:100B600080E295DEDF5FF7CFF2CE089580914F01EE
:100B700090915001009709F04DD320910B01809185
:100B80000C0190E00197AC01249FC001259F900DBE
:100B90001124A8D29093500180934F01892B01F129
:100BA00060E0A0E2262F30E070910B0180910C01F3
:100BB00090E00197789FA001799F500D1124241790
:100BC00035074CF4E0914F01F0915001E20FF31F13
:100BD000A0836F5FE7CF6FEB73E084EC94E0A9C371
:100BE0000895C4CF089584B18D7C84B985B18263A2
:100BF00085B985E090E06F9364E06A95F1F76F91B5
:100C00000197C9F7089580916801811104C081E0BE
:100C100080936801E8CF0895A4E0B0E0E1E1F6E058
:100C200037C2182FF3B0F094B7D169837A838B83DE
:100C30009C83E9DF20915C0169817A818B819C81B1
:100C4000213009F138F0223009F453C0233009F47F
:100C500063C07EC0212F30E04F2D50E0409550956D
:100C600024233523232B09F473C0F094F122F0924E
:100C70005B016093570170935801809359019093E1
:100C80005A0181E063C000915701109158012091F1
:100C9000590130915A01DC01CB01801B910BA20B51
:100CA000B30B0F97A105B10508F452C040915B0149
:100CB0008F2D90E080959095242F30E08223932310
:100CC000892BA1F082E080935C01F094F422F092F1
:100CD0005B013EC030E0812F90E04F2D50E0409509
:100CE0005095842395232817390791F110925C01C0
:100CF0002FC020915B013F2D322361F323E020932D
:100D00005C0130935B0160935701709358018093AD
:100D1000590190935A011CC000915701109158013C
:100D20002091590130915A01DC01CB01801B910BBC
:100D3000A20BB30B0F97A105B10550F080915B0199
:100D40008F2119F010925C0104C082E080935C0155
:100D500080E02496E5E0B8C15FCF0895A4E0B0E05C
:100D6000E3EBF6E095C1182FF3B016D169837A83CF
:100D70008B839C8348DF2091560169817A818B8126
:100D80009C81213009F138F0223009F453C023301E
:100D900009F463C07EC0212F30E04F2D50E0409514
:100DA000509524233523232B09F473C0F094F122AA
:100DB000F092550160935101709352018093530159
:100DC0009093540181E063C0009151011091520150
:100DD0002091530130915401DC01CB01801B910B18
:100DE000A20BB30B0F97A105B10508F452C04091B7
:100DF00055018F2D90E080959095242F30E082232F
:100E00009323892BA1F082E080935601F094F42281
:100E1000F09255013EC030E0812F90E04F2D50E020
:100E200040955095842395232817390791F1109206
:100E300056012FC020915501322F3F2161F323E04D
:100E400020935601309355016093510170935201E4
:100E500080935301909354011CC000915101109153
:100E600052012091530130915401DC01CB01801BD0
:100E7000910BA20BB30B0F97A105B10550F0809118
:100E800055018F2119F01092560104C082E0809321
:100E9000560180E02496E5E017C160CF08952F92B7
:100EA0008F939F932FB68091640190916501019675
:100EB000809364019093650190E080916601891FA1
:100EC0008093660190915E019C5F90935E0180919A
:100ED0005D0180519742C0F090935E0180935D0167
:100EE00080915F0190916001019680935F019093E2
:100EF000600190E080916101891F80936101809180
:100F00006201891F809362012FBE9F918F912F9064
:100F1000189528EE33E0019748F0F9016F9364E0EB
:100F20006A95F1F76F913197C9F7F5CF0895F1CF31
:100F30000895E0E7F0E080818E7F8083A0EBB0E051
:100F40008C9183608C93A1EBB0E08C91807F8C932B
:100F50008C9182608C93B89A808181608083789430
:100F6000089580916901811104C081E08093690135
:100F7000E0CF0895F6DFE0E7F0E080818E7F8083A8
:100F800060915F01709160018091610190916201B7
:100F90002081216020830895EDCF0895A29FB001A4
:100FA000B39FC001A39F700D811D1124911DB29F9D
:100FB000700D811D1124911D0895991B79E004C0C5
:100FC000991F961708F0961B881F7A95C9F7809588
:100FD0000895AA1BBB1B51E107C0AA1FBB1FA61780
:100FE000B70710F0A61BB70B881F991F5A95A9F7D2
:100FF00080959095BC01CD010895A1E21A2EAA1BFF
:10100000BB1BFD010DC0AA1FBB1FEE1FFF1FA217B8
:10101000B307E407F50720F0A21BB30BE40BF50BB5
:10102000661F771F881F991F1A9469F7609570953E
:10103000809590959B01AC01BD01CF010895052ECF
:1010400097FB16F400940FD057FD05D0D6DF07FCB0
:1010500002D046F408C050954095309521953F4FF9
:101060004F4F5F4F089590958095709561957F4F94
:101070008F4F9F4F08952F923F924F925F926F92A2
:101080007F928F929F92AF92BF92CF92DF92EF9218
:10109000FF920F931F93CF93DF93CDB7DEB7CA1B99
:1010A000DB0B0FB6F894DEBF0FBECDBF09942A88C4
:1010B000398848885F846E847D848C849B84AA846C
:1010C000B984C884DF80EE80FD800C811B81AA81F9
:1010D000B981CE0FD11D0FB6F894DEBF0FBECDBFC4
:1010E000ED010895CF93DF938230910510F482E0F3
:1010F00090E0E0916C01F0916D0120E030E0A0E023
:10110000B0E0309739F14081518148175907B8F064
:101110004817590771F482819381109729F013962B
:101120009C938E9312972CC090936D0180936C01C9
:1011300027C02115310531F04217530718F0A901D6
:10114000DB0101C0EF019A01BD01DF010280F381E3
:10115000E02DD7CF21153105F9F0281B390B2430AC
:10116000310580F48A819B816115710521F0FB01B5
:101170009383828304C090936D0180936C01FE0180
:10118000329644C0FE01E20FF31F819391932250E7
:101190003109398328833AC020916A0130916B016B
:1011A000232B41F420910F013091100130936B01FA
:1011B00020936A0120910D0130910E012115310516
:1011C00041F42DB73EB74091110150911201241BFB
:1011D000350BE0916A01F0916B01E217F307A0F47F
:1011E0002E1B3F0B2817390778F0AC014E5F5F4F7D
:1011F0002417350748F04E0F5F1F50936B01409343
:101200006A018193919302C0E0E0F0E0CF01DF91A9
:10121000CF910895CF93DF93009709F487C0FC0125
:10122000329713821282C0916C01D0916D01209788
:1012300081F420813181280F391F80916A019091BA
:101240006B018217930779F5F0936B01E0936A01C4
:101250006DC0DE0120E030E0AE17BF0750F41296FB
:101260004D915C9113979D014115510509F1DA01EA
:10127000F3CFB383A28340815181840F951F8A17D6
:101280009B0771F48D919C911197840F951F029685
:101290009183808312968D919C911397938382837F
:1012A0002115310529F4F0936D01E0936C013EC0E6
:1012B000D9011396FC93EE9312974D915D91A40F73
:1012C000B51FEA17FB0779F480819181840F951F80
:1012D0000296D90111969C938E93828193811396E5
:1012E0009C938E931297E0E0F0E08A819B810097B7
:1012F00019F0FE01EC01F9CFCE0102962881398167
:10130000820F931F20916A0130916B0128173907D2
:1013100069F4309729F410926D0110926C0102C0AB
:1013200013821282D0936B01C0936A01DF91CF9137
:1013300008950F931F93CF93DF93EC018B010097D8
:1013400031F46115710519F480E090E037C06EE06A
:1013500070E081E090E00BD2FC010097A9F380E8F7
:1013600083830115110571F01387028781E8838358
:1013700080916E0190916F01892B21F4F0936F01A0
:10138000E0936E012097C9F0D187C0878381826086
:1013900083838091700190917101892B71F4F09396
:1013A0007101E09370018091720190917301892B1A
:1013B00021F4F0937301E0937201CF01DF91CF919B
:1013C0001F910F910895A0E0B0E0E8EEF9E063CE40
:1013D000FE01359661917191AF01809170019091FC
:1013E000710102D0E2E073CEACE0B0E0E9EFF9E0E9
:1013F00042CE7C016B018A01FC0117821682838137
:1014000081FFB0C1CE0101964C01F7019381F60135
:1014100093FD859193FF81916F01882309F49EC10B
:10142000853239F493FD859193FF81916F01853267
:1014300021F4B70190E0D2D1E8CF512C312C20E03B
:101440002032A0F48B3269F030F4803259F08332CC
:1014500069F420612CC08D3239F0803339F4216079
:1014600026C02260246023C0286021C027FD27C039
:1014700030ED380F3A3078F426FF06C0FAE05F9E70
:10148000300D1124532E13C08AE0389E300D1124E4
:10149000332E20620CC08E3221F426FD5FC1206401
:1014A00006C08C3611F4206802C0883641F4F6017B
:1014B00093FD859193FF81916F018111C1CF982F89
:1014C0009F7D9554933028F40C5F1F4FFFE3F98301
:1014D0000DC0833631F0833771F0833509F057C082
:1014E00021C0F801808189830E5F1F4F44244394FB
:1014F000512C540114C03801F2E06F0E711CF80138
:10150000A080B18026FF03C0652D70E002C06FEFA0
:101510007FEFC5012C8757D12C0183012C852F77B4
:10152000222E16C03801F2E06F0E711CF801A08067
:10153000B18026FF03C0652D70E002C06FEF7FEF22
:10154000C5012C872ED12C012C852068222E8301E9
:1015500023FC19C0832D90E048165906A0F4B7016A
:1015600080E290E03BD13A94F5CFF50127FC8591DC
:1015700027FE81915F01B70190E030D131103A949C
:10158000F1E04F1A51084114510479F7DEC0843656
:1015900011F0893631F5F80127FF07C060817181AC
:1015A000828193810C5F1F4F08C060817181882701
:1015B00077FD8095982F0E5F1F4F2F76B22E97FFE5
:1015C00009C090958095709561957F4F8F4F9F4F83
:1015D0002068B22E2AE030E0A40132D1A82EA8184B
:1015E00043C0853729F42F7EB22E2AE030E025C093
:1015F000F22FF97FBF2E8F36C1F018F4883579F0BD
:10160000ADC0803719F0883721F0A8C02F2F206196
:10161000B22EB4FE0DC08B2D8460B82E09C024FFFD
:101620000AC09F2F9660B92E06C028E030E005C0A2
:1016300020E130E002C020E132E0F801B7FE07C04F
:1016400060817181828193810C5F1F4F06C0608130
:10165000718180E090E00E5F1F4FA401F1D0A82EB1
:10166000A818FB2DFF77BF2EB6FE0BC02B2D2E7FAB
:10167000A51450F4B4FE0AC0B2FC08C02B2D2E7E77
:1016800005C07A2C2B2D03C07A2C01C0752C24FFA9
:101690000DC0FE01EA0DF11D8081803311F4297E19
:1016A00009C022FF06C07394739404C0822F867809
:1016B00009F0739423FD12C020FF06C05A2C731446
:1016C00018F4530C5718732C731460F4B70180E2AC
:1016D00090E02C8783D073942C85F6CF731410F48C
:1016E000371801C0312C24FF11C0B70180E390E00E
:1016F0002C8774D02C8522FF16C021FF03C088E5FB
:1017000090E002C088E790E0B7010CC0822F867895
:1017100051F021FD02C080E201C08BE227FD8DE285
:10172000B70190E05BD0A51430F4B70180E390E0FE
:1017300055D05A94F8CFAA94F401EA0DF11D808196
:10174000B70190E04BD0A110F6CF332009F45DCE65
:10175000B70180E290E042D03A94F7CFF70186815A
:10176000978102C08FEF9FEF2C96E2E1A0CC0F9300
:101770001F93CF93DF93869F8001879F100D969FC5
:10178000100D1124C801AEDCEC01009721F0A80176
:1017900060E070E011D0CE01DF91CF911F910F91E9
:1017A0000895FC010590615070400110D8F78095B4
:1017B00090958E0F9F1F0895DC0101C06D934150DD
:1017C0005040E0F70895FC01615070400190011015
:1017D000D8F7809590958E0F9F1F08950F931F93B4
:1017E000CF93DF93182F092FEB018B8181FD03C06D
:1017F0008FEF9FEF20C082FF10C04E815F812C8150
:101800003D81421753077CF4E881F9819F012F5FE6
:101810003F4F39832883108306C0E885F985812FDF
:101820000995892B29F72E813F812F5F3F4F3F83F9
:101830002E83812F902FDF91CF911F910F910895CB
:10184000FA01AA27283051F1203181F1E8946F93F1
:101850006E7F6E5F7F4F8F4F9F4FAF4FB1E03ED097
:10186000B4E03CD0670F781F891F9A1FA11D680F35
:10187000791F8A1F911DA11D6A0F711D811D911D68
:10188000A11D20D009F468943F912AE0269F1124DD
:101890003019305D3193DEF6CF010895462F477041
:1018A000405D4193B3E00FD0C9F7F6CF462F4F709C
:1018B000405D4A3318F0495D31FD4052419302D0FA
:1018C000A9F7EACFB4E0A6959795879577956795A0
:1018D000BA95C9F700976105710508959B01AC01A0
:1018E0000A2E06945795479537952795BA95C9F7C7
:1018F000620F731F841F951FA01D0895F894FFCFDA
:10190000010F00F4010400D0070401080200007474
:101910000120009C01B501CF01EA01070226024720
:101920000269028E02B502DE020A0354696D653A4D
:1019300020002532753A253032752E25303275005B
:00000001FF
