:100000003DC0000056C0000054C0000052C00000B7
:1000100050C000004EC000004CC000004AC00000AC
:1000200048C00000F8C4000044C0000042C0000006
:1000300040C000003FC300003CC000003AC00000C8
:1000400038C0000036C0000024C40000C0C4000056
:1000500030C000002EC000002CC000002AC00000EC
:1000600028C0000026C000004869207468657265D9
:10007000210D0A00643136006331360011241FBEA1
:10008000CFEFD8E0DEBFCDBF11E0A0E0B1E0E8E205
:10009000FCE002C005900D92A432B107D9F711E03F
:1000A000A4E2B1E001C01D92A338B107E1F74AD044
:1000B000B9C5A6CF809100018F5F8093000108959C
:1000C00095D38823E9F30895A1E0B0E0E9E6F0E0F4
:1000D0006FC5833661F024F4873481F45F9A05C0DC
:1000E000843641F0873651F45F98579A12C088E7FA
:1000F00090E002C084E790E039D30BC08983E0DF51
:1001000090E2898198279093630161E083E691E012
:100110003DD42196E2E068C566D3E09124018E17B4
:1001200081F0F0E0ED5BFE4F8081CEDF8091240115
:100130008F3119F410922401EFCF8F5F8093240147
:10014000EBCF089560E875E280E090E0F4D360E2E0
:1001500083E491E09CD3E0DF80E143D38823D9F3AB
:10016000AFDF4BE050E068E670E083E691E051D508
:100170006BE083E691E00AD480E123D3ECCF909149
:100180002A01E0912501F0912601992311F0849133
:1001900001C080812FEB280F2A3110F4805E089572
:1001A000803249F49F012F5F3F4F30932601209307
:1001B0002501EF2B31F708951F93CF93DF93DFDFF6
:1001C000C0E0D0E01AE090ED980F9A30B0F49E01B4
:1001D000129FE001139FD00D1124C80FD11D87FD80
:1001E000DA95E097809125019091260101969093F0
:1001F000260180932501C3DFE6CFCE01DF91CF91A9
:100200001F91089510926F0083E28093800081E136
:10021000809381001092820080E197E290938900A0
:100220008093880010928B0010928A00229A789412
:1002300008958F929F92AF92BF92DF92EF92FF92BA
:100240000F931F93CF93DF935C018B01D42E80918A
:100250002701811104C081E080932701D3DF109230
:100260000A01B7FE05C0E894B7F82AE0F22E02C0F2
:10027000FF24F394E09081002E2D287FE22E48EC9D
:10028000F49EC00111248A159B05D8F4E50151E1C3
:10029000A51657E2B50610F0C0E1D7E2BE0176958B
:1002A000679580E090E06058794687469F4F4E0101
:1002B000A12CB12CA50194012DD459018E2D816062
:1002C00023C0C8E2FC9EC02D1124D0E0CA15DB0576
:1002D00008F4E501BE01769567959E0140E050E087
:1002E0008AE0F81207C080E090E0605E73448144C9
:1002F0009F4F06C080E090E060537D4E8C4E9F4F34
:1003000009D459018E2D8260882E2AE0F21206C08F
:10031000CE0105966AE070E0E9D3EB01C83E43E008
:10032000D40749F09801DE01C0D328EE33E040E065
:1003300050E012D4890110926F0080928100B09237
:100340008900A092880020918800309189004D2D6D
:10035000403108F04FE080E190E0841B9109A90151
:1003600002C0569547958A95E2F750938B004093CB
:100370008A0010932D0100932C0186B38FEF86BB6A
:1003800081E080936F00DF91CF911F910F91FF90DB
:10039000EF90DF90BF90AF909F908F900895CF9394
:1003A000DF93EB018F3F11F0411105C040E0BE012A
:1003B00088EE93E041C0813130F050EF580F503655
:1003C00018F05FE501C050E0852F6CE083D3682F03
:1003D00074EF760390011124250F311D2C30310567
:1003E00040F4F901EE0FFF1FE55FFE4F20813181E0
:1003F00002C020E030E0873081F0082E02C0220FDA
:10040000331F0A94E2F7823028F0C90105966AE0AA
:1004100070E00CC0C90190580BC0C90136E0880FCC
:10042000991F3A95E1F7029665E070E05FD3CB0142
:10043000403108F04FE0BE01FCDEDF91CF9108951E
:10044000A2E0B0E0E5E2F2E0A5C39090090180915E
:100450002901882321F060912801611117C07724B8
:100460007394B0ECAB2EBDE5BB2E1AE0612E04E018
:10047000802E80EDC82E87E0D82E94E0E92EF12C56
:1004800004EF11E02FE0422E512C14C070E040E048
:1004900088EE93E0CEDE1092280109C18636CCF5B5
:1004A000813609F4A1C074F58C3309F45CC08E3335
:1004B00079F4939464DE20912501309126012F5F19
:1004C0003F4F3093260120932501853639F74FC0E1
:1004D000813209F084C080920901D0920801C09253
:1004E0000701F0920601E0920501109304010093C8
:1004F0000301509202014092010110922901A4E0EF
:100500009A2ED8CF833689F10CF471C010E082E0C6
:1005100070C08D36A9F18CF4873679F15CF18C3698
:1005200009F05DC049DEBC0190930601809305018E
:1005300080910701909108014CC08237B1F144F4D9
:100540008F3609F04CC038DE982E80930901B2CF67
:10055000843771F1863709F042C02EDE9093020194
:1005600080930101A7CF9A94A5CF10E01FC010E09F
:1005700084E03FC010E085E03CC010E087E039C077
:10058000FEDD8C3619F41092290104C07092290105
:100590001092280120912501309126012F5F3F4FB5
:1005A000309326012093250185CF11E080E021C002
:1005B00003DEBC01C5019AD2669EC001679E900D04
:1005C00011249093080180930701609105017091B7
:1005D00006018CD270930401609303016BCF1092DB
:1005E00026011092250163C010E089E002C010E0EE
:1005F0008BE0082F9CE0999E000D1124C0DD982F00
:10060000977F933261F420912501309126012F5F6D
:100610003F4F30932601209325010F5FEFCF8D329E
:1006200069F420912501309126012F5F3F4F3093CF
:100630002601209325010150A2DDF1CF6091030135
:10064000709104018153883040F4E0900701F090EC
:100650000801B2DDBC01C70149D27B01F694E794E1
:1006600069837A838CDD69817A818E3269F4209185
:100670002501309126012F5F3F4F309326012093B3
:1006800025016E0D7F1DEACF80912901882339F065
:100690009B013695279520932801621B7109409193
:1006A0000101112311F08FEF01C0802F78DE229617
:1006B000E0E18CC21F920F920FB60F9211242F937C
:1006C0003F934F935F936F937F938F939F93AF93DA
:1006D000BF93EF93FF9380912C0190912D019C018A
:1006E0002150310930932D0120932C01892B09F5DC
:1006F00010926F00789480918100887F8160809350
:10070000810080E197E290938900809388001092A5
:100710008B0010928A0081E080930A01809125016C
:1007200090912601892B29F080912B01811101C024
:1007300087DEFF91EF91BF91AF919F918F917F9154
:100740006F915F914F913F912F910F900FBE0F903E
:100750001F90189510926F009093260180932501A9
:1007600081E080932A01109228016ACEF3CF089588
:1007700084B18D7C84B985B1826385B985E090E0D0
:100780006F9364E06A95F1F76F910197C9F7089547
:1007900080914201811104C081E080934201E8CF41
:1007A0000895CF93C82FF4DF83B18C23E9F38AE057
:1007B00090E079D183B18C23B9F383B18C23CF91AD
:1007C0000895EFCF0895A1E0B0E0E8EEF3E0F0C1C6
:1007D0008983DEDF93B19095898189232196E2E0B8
:1007E00003C2F1CF089580913001089520912F0127
:1007F00081E090913101291380E00895282F30E0A5
:100800009AE0899FF0011124E25DFE4F8085918579
:10081000009721F052814481541780F08AE0829F32
:10082000F001839FF00D1124E25DFE4F92818481DF
:1008300098130EC0858181110AC008954281DC01A0
:10084000A40FB11D6C9382818F5F8283E7CF1282E8
:1008500008959091C1009F779093C1009AE0899F7D
:10086000F0011124E25DFE4F71876087128244839C
:1008700025838081811105C08091C10080688093AB
:10088000C1000895462F21E0BC0180E0E2CFFACFFD
:1008900008951F920F920FB60F9211242F933F933A
:1008A0004F935F936F937F938F939F93AF93BF9378
:1008B000EF93FF936091C60080E0A0DFFF91EF917E
:1008C000BF91AF919F918F917F916F915F914F9168
:1008D0003F912F910F900FBE0F901F9018959AE0A7
:1008E000899FF0011124E25DFE4F86819781892B5B
:1008F00059F091818381981738F48081811104C067
:100900008091C100806203C08091C1008F7D80937F
:10091000C10008959AE0899FF0011124E25DFE4F25
:100920009081911102C098E901C098E19093C100B3
:10093000D6DF78940895CF92DF92EF92FF926B0109
:100940007C0180E0E7DFA8EFBFEFA7019601BED0F2
:10095000735D8E4C9E4FE4E0220F331F441F551FE2
:10096000EA95D1F7D7D03093C5002093C400FF900B
:10097000EF90DF90CF9008959093350180933401EC
:1009800010922F016093310180E0A9CFF5CF089537
:100990009AE0899FF0011124E25DFE4F26813781A4
:1009A0002115310541F041819381491720F490913F
:1009B000C00095FD01C093CF9181D901A90FB11D50
:1009C0009C919093C60091819F5F9183F4CF1F9279
:1009D0000F920FB60F9211242F933F934F935F9373
:1009E0006F937F938F939F93AF93BF93EF93FF93F7
:1009F00080E0CEDFFF91EF91BF91AF919F918F91FA
:100A00007F916F915F914F913F912F910F900FBE0A
:100A10000F901F9018952F928F939F932FB68091D0
:100A20003F0190914001019680933F0190934001D6
:100A300090E080914101891F80934101909139019B
:100A40009C5F909339018091380180519742C0F0AA
:100A5000909339018093380180913A0190913B0144
:100A6000019680933A0190933B0190E080913C0184
:100A7000891F80933C0180913D01891F80933D0136
:100A80002FBE9F918F912F90189528EE33E00197FC
:100A900048F0F9016F9364E06A95F1F76F9131972F
:100AA000C9F7F5CF0895F1CF0895A29FB001B39F84
:100AB000C001A39F700D811D1124911DB29F700D67
:100AC000811D1124911D0895B7FF99C098D0821BF4
:100AD000930B0895991B79E004C0991F961708F0AD
:100AE000961B881F7A95C9F780950895AA1BBB1B92
:100AF00051E107C0AA1FBB1FA617B70710F0A61B1E
:100B0000B70B881F991F5A95A9F780959095BC013E
:100B1000CD010895A1E21A2EAA1BBB1BFD010DC039
:100B2000AA1FBB1FEE1FFF1FA217B307E407F5079D
:100B300020F0A21BB30BE40BF50B661F771F881F79
:100B4000991F1A9469F760957095809590959B010F
:100B5000AC01BD01CF010895052E97FB16F400945A
:100B60000FD057FD05D0D6DF07FC02D046F408C0F1
:100B700050954095309521953F4F4F4F5F4F0895C9
:100B800090958095709561957F4F8F4F9F4F0895F9
:100B90002F923F924F925F926F927F928F929F928D
:100BA000AF92BF92CF92DF92EF92FF920F931F937B
:100BB000CF93DF93CDB7DEB7CA1BDB0B0FB6F8942C
:100BC000DEBF0FBECDBF09942A88398848885F846C
:100BD0006E847D848C849B84AA84B984C884DF80DD
:100BE000EE80FD800C811B81AA81B981CE0FD11DC1
:100BF0000FB6F894DEBF0FBECDBFED01089555DFEF
:100C0000A59F900DB49F900DA49F800D911D112460
:100C10000895FB01DC0102C005900D924150504047
:080C2000D8F70895F894FFCF06
:100C2800010F00F4010400D00704019C01B501CFB5
:100C380001EA0107022602470269028E02B502DEB6
:040C4800020A030099
:00000001FF
