:100000003DC0000056C0000054C0000052C00000B7
:1000100050C000004EC000004CC000004AC00000AC
:1000200048C0000046C0000044C00000CFC100002E
:1000300040C000003EC000003CC000003AC00000CC
:1000400038C0000036C0000034C0000032C00000DC
:1000500030C000002EC000002CC000002AC00000EC
:1000600028C0000026C0000024C0000022C00000FC
:1000700020C000001EC000001CC0000011241FBED4
:10008000CFEFD8E0DEBFCDBF11E0A0E0B1E0E0E50A
:10009000F5E002C005900D92AC30B107D9F711E040
:1000A000ACE0B1E001C01D92A633B107E1F716D074
:1000B0004DC2A6CF8F3F29F48BB192E089278BB92F
:1000C00005C0882311F0599A01C05998519A089592
:1000D000809100018F5F80930001089580917C00E2
:1000E000806280937C001092320110923101109254
:1000F0003301109235011092340180E8D0D004E130
:1001000010E0C0E0D1E080917A0086FD24C0E0904C
:100110003101F09032018DD08E0D9F1D90933201F0
:100120008093310180E8BBD0809133018F5F809351
:100130003301843181F48091310190913201B80111
:10014000CFD1709335016093340110923301109236
:1001500032011092310181E0ADDF80913401909144
:1001600035019E01281B390BC9016F9364E06A9524
:10017000F1F76F910197C9F780E09CDF809134011E
:100180009091350101966F9364E06A95F1F76F9154
:100190000197C9F7B8CF80910E01882309F43CC0BC
:1001A00020910C0130910D0180917C004091010162
:1001B00050910201FA01F695E79585FF14C0AFEF63
:1001C000B0E07FD16E0F7F1F811D911D9A0140E02D
:1001D00050E09AD1C901DA018F3F9105A105B1051F
:1001E00009F0A0F40895AFEFB3E06BD16E0F7F1F5D
:1001F000811D911D9A0140E050E086D1C901DA01CC
:10020000009721E0A207B10520F408958FEF90E058
:1002100008958FEF9FEF089580917C0085FF04C0C3
:100220008091790090E00895809178009091790014
:100230000895B1CF08958032D8F091E090930E01E7
:10024000803811F45CD00FC0813811F45ED00BC03F
:10025000823811F460D007C0833811F462D003C033
:100260008438E1F464D090930D0180930C010895DB
:1002700010920E0197E890937A0090917C0066238B
:1002800011F0906C02C09F779064907E982B9093B1
:100290007C0080917A00806480937A00089560E009
:1002A000CACF64E08FEF69C00F931F93CF93DF93A2
:1002B000F6D00091070110910801209109013091B9
:1002C0000A016017710782079307A1F067E081E8D0
:1002D00054D0C9E1D1E0E5DF899381E0C632D80787
:1002E000D1F7DDD060930701709308018093090175
:1002F00090930A01DF91CF911F910F910895D4DF60
:1003000080912201909123010895CEDF80911A01FE
:1003100090911B010895C8DF80911C0190911D01EF
:100320000895C2DF80911E0190911F010895BCDFE6
:1003300080912001909121010895249902C02C9B65
:1003400011C094B1906A94B92698982F93709065D3
:100350006C7A962B9CBD82FB882780F98DBD81E04D
:1003600090E06EC02C9AEEE1F0E06F9364E06A9545
:10037000F1F76F913197C9F7E4CFCF93DF93D82F7F
:10038000C62F0CB406FC03C064E080E0D6DF0CB4DA
:1003900004FC03C09CB590619CBDDEBD0DB407FCA0
:1003A00006C09CB5892F807194FDF8CF0CC0CC237A
:1003B00049F08C2F90E06F9364E06A95F1F76F91AC
:1003C0000197C9F78EB5DF91CF9108952F928F9342
:1003D0009F932FB680912D0190912E0101968093CD
:1003E0002D0190932E0190E080912F01891F809321
:1003F0002F01909127019C5F909327018091260106
:1004000080519742C0F090932701809326018091FC
:100410002801909129010196809328019093290148
:1004200090E080912A01891F80932A0180912B01FD
:10043000891F80932B012FBE9F918F912F9018952C
:1004400028EE33E0019748F0F9016F9364E06A9574
:10045000F1F76F913197C9F7F5CF0895E0E7F0E034
:1004600080818E7F8083A0EBB0E08C9183608C9341
:10047000A1EBB0E08C91807F8C938C9182608C9307
:10048000B89A80818160808378940895809130014A
:10049000811104C081E080933001E0CF0895F6DF40
:1004A000E0E7F0E080818E7F808360912801709189
:1004B000290180912A0190912B01208121602083C4
:1004C0000895A29FB001B39FC001A39F700D811D2D
:1004D0001124911DB29F700D811D1124911D08954D
:1004E000AA1BBB1B51E107C0AA1FBB1FA617B7075A
:1004F00010F0A61BB70B881F991F5A95A9F7809576
:100500009095BC01CD010895A1E21A2EAA1BBB1B38
:10051000FD010DC0AA1FBB1FEE1FFF1FA217B307CF
:10052000E407F50720F0A21BB30BE40BF50B661FE5
:10053000771F881F991F1A9469F7609570958095A9
:1005400090959B01AC01BD01CF010895F894FFCFB8
:0C055000018813FFFFFFFFFFFFFFFF000B
:00000001FF
