:100000001DC1000036C1000034C1000032C1000033
:1000100030C100002EC100002CC100002AC1000028
:1000200028C1000026C1000024C100000CC6000049
:1000300020C100001EC100001CC1000001C400005E
:1000400018C1000016C1000014C1000012C1000058
:1000500010C100000EC100000CC100000AC1000068
:1000600008C1000006C1000004C1000002C1000078
:1000700000C10000FEC00000FCC0000021204F3580
:10008000204C31362061676166616561206461637F
:100090002B61646165612066613C61613C62616302
:1000A00023612064616323616461656120664F366A
:1000B000206463643C622D643C61643C6720643C62
:1000C000662B643C67643C61643C622D20643C6444
:1000D000643C65643C662B643C6720643C662B642E
:1000E0003C67643C61644C38204D53203C622D6475
:1000F0003C622D64204D4C652D3C67652D3C67208E
:100100004D53633C61633C61204D4C20643C66640C
:100110003C66204F35204D5320622D67622D674D80
:100120004C203E6323653E632365204D532061666A
:100130006166204D4C20676323676323204D532065
:1001400066646664204D4C20653C622D653C622DE2
:100150004F36204C3136726167616661656120649B
:1001600061632361646165612066613C61613C6239
:10017000616323612064616323616461656120665A
:10018000616561646163613C622D61636164673CC8
:10019000622D67206567646763673C622D67203C5A
:1001A00061673C622D6763663C61662064666366D6
:1001B0003C622D663C61663C67663C61663C622D34
:1001C000653C6765206323653C622D653C61653C49
:1001D0006765203C66653C67653C61643C66644FCE
:1001E0003520653E65653E65663E64663E64206218
:1001F0002D3E6323622D3E6323613E64663E642090
:10020000653E65653E65663E64663E64653E643E89
:1002100063233E64623E643E632362203E63236147
:100220006761656766652066204F362064632364D6
:10023000666463233C6220632334000011241FBEE4
:10024000CFEFD8E0DEBFCDBF11E0A0E0B1E0E6E245
:10025000FEE002C005900D92A238B107D9F711E077
:10026000A2E8B1E001C01D92AF39B107E1F742D079
:10027000D8C5C6CE809100018F5F8093000108959C
:10028000A1E0B0E0E5E4F1E0A5C58CE2DAD4898331
:1002900059D48981803261F48CE790E04DD38BE2B0
:1002A00091E05DD461E080E079D482E391E01EC00A
:1002B000883061F48BE391E031D381E591E04FD454
:1002C00061E080E06BD489E591E010C0843079F47E
:1002D00018D3882321F04CD380E691E007C04FE08B
:1002E00068EC70E085E4FCD288E691E038D4219691
:1002F000E2E08CC580E791E032D461E080E04ED44A
:1003000088E791E02CD4BCDFFECF90918701E0918B
:100310008201F0918301992311F0849101C08081C1
:100320002FEB280F2A3110F4805E0895803249F4B3
:100330009F012F5F3F4F3093830120938201EF2B6A
:1003400031F708951F93CF93DF93DFDFC0E0D0E054
:100350001AE090ED980F9A30B0F49E01129FE001E0
:10036000139FD00D1124C80FD11D87FDDA95E0979A
:1003700080918201909183010196909383018093F3
:100380008201C3DFE6CFCE01DF91CF911F910895A7
:1003900010926F0083E28093800081E1809381005E
:1003A0001092820080E197E2909389008093880008
:1003B00010928B0010928A00549A789408958F922C
:1003C0009F92AF92BF92DF92EF92FF920F931F9393
:1003D000CF93DF935C018B01D42E80918401811136
:1003E00004C081E080938401D3DF10920A01B7FE3C
:1003F00005C0E894B7F82AE0F22E02C0FF24F39477
:10040000E09081002E2D287FE22E48ECF49EC00162
:1004100011248A159B05D8F4E50151E1A51657E290
:10042000B50610F0C0E1D7E2BE017695679580E091
:1004300090E06058794687469F4F4E01A12CB12C21
:10044000A501940179D459018E2D816023C0C8E2A1
:10045000FC9EC02D1124D0E0CA15DB0508F4E5018F
:10046000BE01769567959E0140E050E08AE0F81263
:1004700007C080E090E0605E734481449F4F06C0F7
:1004800080E090E060537D4E8C4E9F4F55D45901D3
:100490008E2D8260882E2AE0F21206C0CE010596CB
:1004A0006AE070E035D4EB01C83E43E0D40749F080
:1004B0009801DE0112D428EE33E040E050E05ED433
:1004C000890110926F0080928100B0928900A09201
:1004D000880020918800309189004D2D403108F02E
:1004E0004FE080E190E0841B9109A90102C056957C
:1004F00047958A95E2F750938B0040938A001093BA
:100500008A010093890186B38FEF86BB81E08093D7
:100510006F00DF91CF911F910F91FF90EF90DF90CF
:10052000BF90AF909F908F900895CF93DF93EB0192
:100530008F3F11F0411105C040E0BE0188EE93E00D
:1005400041C0813130F050EF580F503618F05FE560
:1005500001C050E0852F6CE0CFD3682F74EF760395
:1005600090011124250F311D2C30310540F4F90183
:10057000EE0FFF1FED5EFE4F2081318102C020E0B3
:1005800030E0873081F0082E02C0220F331F0A941A
:10059000E2F7823028F0C90105966AE070E00CC0ED
:1005A000C90190580BC0C90136E0880F991F3A95D0
:1005B000E1F7029665E070E0ABD3CB01403108F083
:1005C0004FE0BE01FCDEDF91CF910895A2E0B0E0E4
:1005D000EBEEF2E0F1C3909009018091860188234F
:1005E00021F060918501611117C077247394B0ECFC
:1005F000AB2EBDE5BB2E1AE0612E04E0802E80ED0F
:10060000C82E87E0D82E94E0E92EF12C04EF11E0FB
:100610002FE0422E512C14C070E040E088EE93E0B1
:10062000CEDE1092850109C18636CCF5813609F4FB
:10063000A1C074F58C3309F45CC08E3379F49394C3
:1006400064DE20918201309183012F5F3F4F309310
:10065000830120938201853639F74FC0813209F03A
:1006600084C080920901D0920801C0920701F092E3
:100670000601E092050110930401009303015092DA
:1006800002014092010110928601A4E09A2ED8CF77
:10069000833689F10CF471C010E082E070C08D36B1
:1006A000A9F18CF4873679F15CF18C3609F05DC0E4
:1006B00049DEBC01909306018093050180910701FA
:1006C000909108014CC08237B1F144F48F3609F0A3
:1006D0004CC038DE982E80930901B2CF843771F177
:1006E000863709F042C02EDE90930201809301010B
:1006F000A7CF9A94A5CF10E01FC010E084E03FC0C0
:1007000010E085E03CC010E087E039C0FEDD8C36AB
:1007100019F41092860104C070928601109285012E
:1007200020918201309183012F5F3F4F30938301ED
:100730002093820185CF11E080E021C003DEBC015F
:10074000C501E6D2669EC001679E900D112490936C
:100750000801809307016091050170910601D8D2CC
:1007600070930401609303016BCF10928301109288
:10077000820163C010E089E002C010E08BE0082F26
:100780009CE0999E000D1124C0DD982F977F933235
:1007900061F420918201309183012F5F3F4F3093AC
:1007A0008301209382010F5FEFCF8D3269F4209196
:1007B0008201309183012F5F3F4F3093830120935B
:1007C00082010150A2DDF1CF60910301709104011B
:1007D0008153883040F4E0900701F0900801B2DDC9
:1007E000BC01C70195D27B01F694E79469837A83B3
:1007F0008CDD69817A818E3269F420918201309199
:1008000083012F5F3F4F30938301209382016E0D50
:100810007F1DEACF80918601882339F09B013695B0
:10082000279520938501621B7109409101011123D5
:1008300011F08FEF01C0802F78DE2296E0E1D8C260
:100840001F920F920FB60F9211242F933F934F9345
:100850005F936F937F938F939F93AF93BF93EF9328
:10086000FF938091890190918A019C012150310967
:1008700030938A0120938901892B09F510926F002A
:10088000789480918100887F81608093810080E1ED
:1008900097E2909389008093880010928B001092C9
:1008A0008A0081E080930A01809182019091830106
:1008B000892B29F080918801811101C087DEFF9189
:1008C000EF91BF91AF919F918F917F916F915F91C8
:1008D0004F913F912F910F900FBE0F901F90189541
:1008E00024CE089580910A01882349F081E0209167
:1008F000820130918301232B19F480E0089581E077
:100900000895F0CF089510926F0090938301809323
:100910008201109287011092850158CEF4CF08957C
:1009200010926F00909383018093820181E0809305
:100930008701109285014ACEF3CF089510926F007F
:10094000E1E8F0E08081887F8160808380E197E248
:10095000909389008093880010928B0010928A00F7
:1009600081E080930A011092830110928201089520
:10097000E5CF089581E090E06F9364E06A95F1F728
:100980006F910197C9F708950F931F93CF93DF934A
:1009900017B13D982898299AC0E0D0E0EBDF2A9A59
:1009A000E9DF06B12A98E6DF2A9AE4DF2A9824963E
:1009B000CE01A0E0B0E040918B0150918C0160919C
:1009C0008D0170918E0105FD0AC084179507A60759
:1009D000B70758F082E390E0A0E0B0E00AC08417C7
:1009E0009507A607B707D0F2F0CF80E395E7A0E020
:1009F000B0E080938B0190938C01A0938D01B09314
:100A00008E0117B9DF91CF911F910F91089528B1F1
:100A10008F7034E0839FC0011124237C282B28B9D8
:100A20002A9AA8DF2A98A6CFFF920F931F93CF93FD
:100A3000DF93C82FF62E042F80919D01811104C0F1
:100A400081E080939D0124D09FDF17B1D8B1299810
:100A5000FF2011F0289A01C0289897B19C6397B99C
:100A6000013021F08C2F82958F70D1DF8C2F8F7009
:100A7000CEDF17B9D8B9CDB7DEB7E5E0C4C142E0E3
:100A800060E0D2CF42E061E0CFCF41E060E0CCCF88
:100A90003D98459A80E395E7A0E0B0E080938B0114
:100AA00090938C01A0938D01B0938E01209A219A8E
:100AB000229A8EE190E00FD183E0E7DF86E090E0BC
:100AC0000AD183E0E2DF82E090E005D183E0DDDF60
:100AD00082E090E000D182E0D8DF82E090E0FBD0BD
:100AE00088E2CDDF88E0CBDF81E0C9DF86E0C7DFC9
:100AF0008CE0C5CF81E0C3DF80919101909192019C
:100B0000892BF9F060E0A0E2262F30E070910B0114
:100B100080910C0190E00197789FA001799F500D82
:100B20001124241735074CF4E0919101F0919201C2
:100B3000E20FF31FA0836F5FE7CF10928F01109237
:100B400090010895D7CF0895CF93DF93EC01899159
:100B5000882311F097DFFBCFDF91CF910895F4CF79
:100B60000895A5E0B0E0E6EBF5E033C1182F80E88A
:100B7000898380EC8A8384E98B8384ED8C83FE01F6
:100B8000E60FF11D8181810F6D8379DF10938F0155
:100B90006D81609390012596E3E037C1E2CF08951F
:100BA00087B1837D87B988B18C6288B985E090E090
:100BB0006F9364E06A95F1F76F910197C9F7089513
:100BC00080919E01811104C081E080939E01E8CF55
:100BD00008951F93CF93DF93182FF2DFC12FD0E03A
:100BE00026B130E0209530952C233D23232BC1F3F3
:100BF0008AE090E070D026B130E0209530952C232B
:100C00003D23232B69F386B180958123DF91CF911A
:100C10001F910895CF93C82FD3DF86B18C23E9F3BA
:100C20008AE090E058D086B18C23B9F386B18C234A
:100C3000CF910895CF93CDDFC82FECDF8C2FCF91CC
:100C40000895F8CF08952F928F939F932FB6809198
:100C50009A0190919B01019680939A0190939B0138
:100C600090E080919C01891F80939C019091940158
:100C70009C5F909394018091930180519742C0F0C2
:100C800090939401809393018091950190919601A6
:100C90000196809395019093960190E08091970141
:100CA000891F8093970180919801891F80939801F3
:100CB0002FBE9F918F912F90189528EE33E00197CA
:100CC00048F0F9016F9364E06A95F1F76F913197FD
:100CD000C9F7F5CF0895F1CF0895A29FB001B39F52
:100CE000C001A39F700D811D1124911DB29F700D35
:100CF000811D1124911D0895991B79E004C0991F4D
:100D0000961708F0961B881F7A95C9F78095089565
:100D1000AA1BBB1B51E107C0AA1FBB1FA617B70721
:100D200010F0A61BB70B881F991F5A95A9F780953D
:100D30009095BC01CD010895A1E21A2EAA1BBB1B00
:100D4000FD010DC0AA1FBB1FEE1FFF1FA217B30797
:100D5000E407F50720F0A21BB30BE40BF50B661FAD
:100D6000771F881F991F1A9469F760957095809571
:100D700090959B01AC01BD01CF010895052E97FB15
:100D800016F400940FD057FD05D0D6DF07FC02D033
:100D900046F408C050954095309521953F4F4F4FF0
:100DA0005F4F089590958095709561957F4F8F4F17
:100DB0009F4F08952F923F924F925F926F927F9232
:100DC0008F929F92AF92BF92CF92DF92EF92FF925B
:100DD0000F931F93CF93DF93CDB7DEB7CA1BDB0B07
:100DE0000FB6F894DEBF0FBECDBF09942A883988AC
:100DF00048885F846E847D848C849B84AA84B984B3
:100E0000C884DF80EE80FD800C811B81AA81B981BE
:100E1000CE0FD11D0FB6F894DEBF0FBECDBFED01D2
:060E20000895F894FFCFD5
:100E2600010F00F4010400D0070401100200009F26
:100E36000120009C01B501CF01EA01070226024705
:100E46000269028E02B502DE020A034675677565FF
:100E56002100666C617368202D3E002120563820E3
:100E6600636465666761623E636261676665646363
:100E76000043204D616A6F720052414D202D3E00A5
:100E860073746F70706564006E6F74652041350011
:100E96005072657373206100627574746F6E2E2EC6
:020EA60000004A
:00000001FF
