:1000000051C000006AC0000068C0000066C0000067
:1000100064C0000062C0000060C000005EC000005C
:100020005CC000005AC0000058C0000037C2000089
:1000300054C0000052C0000050C000004EC000007C
:100040004CC000004AC0000048C0000046C000008C
:1000500044C0000042C0000040C000003EC000009C
:100060003CC000003AC0000038C0000036C00000AC
:1000700034C0000032C0000030C00000000A0A0A8C
:10008000001F0502000A0A000E11110E000A0A0ADA
:1000900000000E00000A0A0A000E1100000A0A0AF7
:1000A00000110E0011241FBECFEFD8E0DEBFCDBF80
:1000B00011E0A0E0B1E0E8E0F7E002C005900D92A9
:1000C000A631B107D9F711E0A6E1B1E001C01D9258
:1000D000AA32B107E1F702D015C392CF60E08CE9F4
:1000E00090E0E8D061E084E990E0E4D062E08CE860
:1000F00090E0E0D063E084E890E0DCD064E08CE75E
:1001000090E0D8D038D18EE091E042D18CE29BD102
:10011000C12CD12C76018CE2BFD1882331F08FEF36
:10012000C81AD80AE80AF80AF6CFC701B601C2D23F
:1001300085E0C82ED12CE12CF12C60E086E047D17F
:10014000B6D2A701960116D2862F9091010196177B
:10015000B9F360930101B0D08CE28ED1EECF81E093
:1001600090E06F9364E06A95F1F76F910197C9F79A
:1001700008950F931F93CF93DF9317B13D9828985D
:10018000299AC0E0D0E0EBDF2A9AE9DF06B12A988D
:10019000E6DF2A9AE4DF2A982496CE01A0E0B0E0B8
:1001A0004091160150911701609118017091190149
:1001B00005FD0AC084179507A607B70758F082E324
:1001C00090E0A0E0B0E00AC084179507A607B70743
:1001D000D0F2F0CF80E395E7A0E0B0E08093160185
:1001E00090931701A0931801B093190117B9DF91EB
:1001F000CF911F910F91089528B18F7034E0839FA4
:10020000C0011124237C282B28B92A9AA8DF2A9818
:10021000A6CFFF920F931F93CF93DF93C82FF62E95
:10022000042F80912801811104C081E0809328016E
:1002300048D09FDF17B1D8B12998FF2011F0289A34
:1002400001C0289897B19C6397B9013021F08C2F99
:1002500082958F70D1DF8C2F8F70CEDF17B9D8B910
:10026000CDB7DEB7E5E0CBC142E060E0D2CF42E0FF
:1002700061E0CFCFA1E0B0E0EFE3F1E0A3C18C01FA
:10028000660F660F660FE12CF12C8E2D860F8064B1
:100290006983EADFF801EE0DFF1D8491E8DF8FEF3F
:1002A000E81AF80A6981E8E0EE16F10471F7219680
:1002B000E6E0A4C1DFCF0895DACF089541E060E021
:1002C000A8CF3D98459A80E395E7A0E0B0E0809301
:1002D000160190931701A0931801B0931901209A69
:1002E000219A229A8EE190E021D183E0E7DF86E037
:1002F00090E01CD183E0E2DF82E090E017D183E060
:10030000DDDF82E090E012D182E0D8DF82E090E091
:100310000DD188E2A9DF88E0A7DF81E0A5DF86E0D4
:10032000A3DF8CE0A1CF81E09FDF80911C01909141
:100330001D01892BF9F060E0A0E2262F30E07091DA
:1003400002018091030190E00197789FA001799FBD
:10035000500D1124241735074CF4E0911C01F09145
:100360001D01E20FF31FA0836F5FE7CF10921A0108
:1003700010921B010895D7CF0895CF93DF93EC011E
:100380008991882311F073DFFBCFDF91CF9108951E
:10039000F4CF0895A5E0B0E0EFECF1E016C1182F1E
:1003A00080E8898380EC8A8384E98B8384ED8C8365
:1003B000FE01E60FF11D8181810F6D8355DF1093E2
:1003C0001A016D8160931B012596E3E01AC1E2CF0B
:1003D000089587B1837D87B988B18C6288B985E03B
:1003E00090E06F9364E06A95F1F76F910197C9F718
:1003F000089580912901811104C081E08093290131
:10040000E8CF08951F93CF93DF93182FF2DFC12F0A
:10041000D0E026B130E0209530952C233D23232BCE
:10042000C1F38AE090E082D026B130E0209530958B
:100430002C233D23232B69F386B180958123DF9103
:10044000CF911F910895DECF0895CF93C82FD1DFAC
:1004500086B18C23E9F38AE090E068D086B18C23E2
:10046000B9F386B18C23CF910895CF93CBDFC82FFA
:10047000ECDF8C2FCF910895F8CF0895A1E0B0E084
:10048000E3E4F2E0A3C08983B4DF96B1909589815B
:1004900089232196E2E0B6C0F1CF08952F928F9381
:1004A0009F932FB68091250190912601019680930C
:1004B00025019093260190E080912701891F809368
:1004C000270190911F019C5F90931F0180911E0155
:1004D00080519742C0F090931F0180931E0180913C
:1004E0002001909121010196809320019093210198
:1004F00090E080912201891F809322018091230145
:10050000891F809323012FBE9F918F912F90189563
:1005100028EE33E0019748F0F9016F9364E06A95A3
:10052000F1F76F913197C9F7F5CF0895F1CF08959D
:10053000A1E21A2EAA1BBB1BFD010DC0AA1FBB1FE7
:10054000EE1FFF1FA217B307E407F50720F0A21B59
:10055000B30BE40BF50B661F771F881F991F1A94C6
:1005600069F760957095809590959B01AC01BD01F0
:10057000CF010895052E97FB16F400940FD057FD78
:1005800005D0D6DF07FC02D046F408C05095409550
:10059000309521953F4F4F4F5F4F0895909580952F
:1005A000709561957F4F8F4F9F4F08952F923F9287
:1005B0004F925F926F927F928F929F92AF92BF9273
:1005C000CF92DF92EF92FF920F931F93CF93DF931F
:1005D000CDB7DEB7CA1BDB0B0FB6F894DEBF0FBE7C
:1005E000CDBF09942A88398848885F846E847D84C9
:1005F0008C849B84AA84B984C884DF80EE80FD80CB
:100600000C811B81AA81B981CE0FD11D0FB6F89440
:10061000DEBF0FBECDBFED0108958F929F92AF92C6
:10062000BF92CF92DF92EF92FF92CF93DF93EC01D4
:10063000688179818A819B816115710581059105A8
:1006400021F464E279ED8BE597E02DE133EF41E0B1
:1006500050E090DF49015A019B01AC01A7EAB1E4E7
:1006600032D06B017C01ACEEB4EFA501940137D020
:10067000C60ED71EE81EF91EF7FE06C081E0C81A96
:10068000D108E10880E8F80AC882D982EA82FB82B0
:10069000C701B6019F77DF91CF91FF90EF90DF9078
:1006A000CF90BF90AF909F908F900895B6CF8AE083
:1006B00091E0B3CF60930A0170930B0180930C011A
:1006C00090930D0108950FD0A59F900DB49F900DAC
:1006D000A49F800D911D11240895B7FFF4CFF3DF7F
:1006E000821B930B0895A29FB001B39FC001A39FEB
:1006F000700D811D1124911DB29F700D811D11245B
:08070000911D0895F894FFCF4C
:100708000105100200002A012000010000006D6FA1
:060718006F643A203F006F
:00000001FF
