:1000000029C1000043C1000041C100003FC1000000
:100010003DC100003BC1000039C1000037C10000F4
:1000200035C1000033C1000031C100000C944D0BFC
:100030000C944B082BC100000C944109E1C4000052
:1000400025C1000023C1000021C100001FC1000024
:100050001DC100001BC1000019C1000017C1000034
:1000600015C1000013C1000011C100000FC1000044
:100070000DC100000BC1000009C100009C01B501C9
:10008000CF01EA0107022602470269028E02B50289
:10009000DE020A0321204F35204C31362061676192
:1000A00066616561206461632B61646165612066DE
:1000B000613C61613C62616323612064616323612F
:1000C0006461656120664F36206463643C622D6420
:1000D0003C61643C6720643C662B643C67643C6123
:1000E000643C622D20643C64643C65643C662B6423
:1000F0003C6720643C662B643C67643C61644C381C
:10010000204D53203C622D643C622D64204D4C6593
:100110002D3C67652D3C67204D53633C61633C611A
:10012000204D4C20643C66643C66204F35204D5386
:1001300020622D67622D674D4C203E6323653E6330
:100140002365204D532061666166204D4C20676316
:1001500023676323204D532066646664204D4C2042
:10016000653C622D653C622D4F36204C3136726104
:1001700067616661656120646163236164616561D3
:100180002066613C61613C6261632361206461635C
:100190002361646165612066616561646163613CDE
:1001A000622D61636164673C622D672065676467E7
:1001B00063673C622D67203C61673C622D67636624
:1001C0003C616620646663663C622D663C61663C09
:1001D00067663C61663C622D653C6765206323650C
:1001E0003C622D653C61653C6765203C66653C670B
:1001F000653C61643C66644F3520653E65653E65DF
:10020000663E64663E6420622D3E6323622D3E633B
:1002100023613E64663E6420653E65653E65663EDC
:1002200064663E64653E643E63233E64623E643EB3
:10023000632362203E6323616761656766652066AC
:10024000204F362064632364666463233C6220632A
:100250002334000011241FBECFEFD8E0DEBFCDBF96
:1002600011E0A0E0B1E0E6E0F1E202C005900D92FD
:10027000AA34B107D9F711E0AAE4B1E001C01D9298
:10028000A638B107E1F77DD00C948110B9CE8091EA
:1002900000018F5F809300010895813128F0805123
:1002A000803618F08FE501C080E06CE00E94DB0B27
:1002B000E92FF0E0EE0FFF1FE458FF4F2591349136
:1002C000873059F0A90102C0440F551F8A95E2F703
:1002D000CA0105966AE070E009C0C90126E0880FEE
:1002E000991F2A95E1F7029665E070E00E94E70BFE
:1002F000CB010895A0E0B0E0E0E8F1E00C943F0C01
:10030000182FEB010E94CA0B6B017C01812FC5DF06
:100310008C01AC0156954795BA0180E090E0605E93
:100320007E45884F9F4F980140E050E00E94FB0BB4
:1003300089014E01A12CB12C0E94CA0B6C197D09B8
:100340008E099F0986169706A806B906A8F05C9A3A
:10035000549AC8016F9364E06A95F1F76F91019721
:10036000C9F75C98549AC8016F9364E06A95F1F7F5
:100370006F910197C9F7E0CFCDB7DEB7ECE00C94F1
:100380005B0CA2E0B0E0E7ECF1E00C94460C84E9F1
:1003900090E09FD38BD4D4D58BE291E09F938F9341
:1003A0000E94E10D88EC90E00E94950B8EE290E0B7
:1003B0000E94F20D88EC90E00E94950B8EE290E096
:1003C0000E94F20D88EC90E00E94950B8EE290E086
:1003D0000E94F20D84EF91E00E94950B0F900F9018
:1003E00001E311E0FF24F39461D41F930F930E9463
:1003F000E10D8CE2E1D51982FA8222E0AE014F5F75
:100400005F4F60E080E090E00E94DB0A60EB74E008
:1004100080E00E94060B60EB74E081E00E94060B16
:1004200082E390E00E94950B68EC70E080E00E940F
:100430002B0B64E670E081E00E942B0B0F900F9075
:1004400060EB74E080E00E94060B62E370E08CE3F6
:1004500051DF62E370E084E34DDF60EB74E081E044
:100460000E94060B80E991E00E94950B8CE2C6D5B4
:10047000811116C068E077E080E00E94060B88ECEE
:1004800090E00E94950B68E077E081E00E94060B07
:1004900080E991E00E94950B8CE2B0D5882381F22F
:1004A0008CE2ACD59BD50E944B0B80E491E003D34A
:1004B00088EE93E00E94950B97CF90914F01E091C9
:1004C0004A01F0914B01992311F0849101C0808180
:1004D0002FEB280F2A3110F4805E0895803249F402
:1004E0009F012F5F3F4F30934B0120934A01EF2B29
:1004F00031F708951F93CF93DF93DFDFC0E0D0E0A3
:100500001AE090ED980F9A30B0F49E01129FE0012E
:10051000139FD00D1124C80FD11D87FDDA95E097E8
:1005200080914A0190914B01019690934B018093E9
:100530004A01C3DFE6CFCE01DF91CF911F9108952D
:1005400010926F0083E28093800081E180938100AC
:100550001092820080E197E2909389008093880056
:1005600010928B0010928A00549A789408958F927A
:100570009F92AF92BF92DF92EF92FF920F931F93E1
:10058000CF93DF935C018B01D42E80914C018111BC
:1005900004C081E080934C01D3DF10920A01B7FEC2
:1005A00005C0E894B7F82AE0F22E02C0FF24F394C5
:1005B000E09081002E2D287FE22E48ECF49EC001B1
:1005C00011248A159B05E0F4E50151E1A51657E2D7
:1005D000B50610F0C0E1D7E2BE017695679580E0E0
:1005E00090E06058794687469F4F4E01A12CB12C70
:1005F000A50194010E94FB0B59018E2D816024C03E
:10060000C8E2FC9EC02D1124D0E0CA15DB0508F419
:10061000E501BE01769567959E0140E050E08AE0D5
:10062000F81207C080E090E0605E734481449F4F01
:1006300006C080E090E060537D4E8C4E9F4F0E943C
:10064000FB0B59018E2D8260882E2AE0F21207C022
:10065000CE0105966AE070E00E94E70BEB01C83E10
:1006600043E0D40759F09801DE010E94CC0B28EE3C
:1006700033E040E050E00E941D0C890110926F00B1
:1006800080928100B0928900A09288002091880019
:10069000309189004D2D403108F04FE080E190E02D
:1006A000841B9109A90102C0569547958A95E2F7E6
:1006B00050938B0040938A00109352010093510194
:1006C00086B38FEF86BB81E080936F00DF91CF917F
:1006D0001F910F91FF90EF90DF90BF90AF909F9090
:1006E0008F900895CF93DF93EB018F3F11F041116D
:1006F00005C040E0BE0188EE93E043C0813130F098
:1007000050EF580F503618F05FE501C050E0852FCC
:100710006CE00E94DB0B682F74EF760390011124CC
:10072000250F311D2C30310540F4F901EE0FFF1F6C
:10073000ED5EFE4F2081318102C020E030E0873045
:1007400081F0082E02C0220F331F0A94E2F7823094
:1007500028F0C90105966AE070E00CC0C901905804
:100760000CC0C90136E0880F991F3A95E1F702964F
:1007700065E070E00E94E70BCB01403108F04FE0EC
:10078000BE01F5DEDF91CF910895A2E0B0E0EBEC81
:10079000F3E00C943B0C9090090180914E0188236A
:1007A00021F060914D01611117C077247394B0EC72
:1007B000AB2EBDE5BB2E1AE0612E04E0802E80ED4D
:1007C000C82E87E0D82E94E0E92EF12C04EF11E03A
:1007D0002FE0422E512C14C070E040E088EE93E0F0
:1007E000C6DE10924D0109C18636CCF5813609F47A
:1007F000A1C074F58C3309F45CC08E3379F4939402
:100800005CDE20914A0130914B012F5F3F4F3093C6
:100810004B0120934A01853639F74FC0813209F0E8
:1008200084C080920901D0920801C0920701F09221
:100830000601E09205011093040100930301509218
:1008400002014092010110924E01A4E09A2ED8CFED
:10085000833689F10CF471C010E082E070C08D36EF
:10086000A9F18CF4873679F15CF18C3609F05DC022
:1008700041DEBC0190930601809305018091070140
:10088000909108014CC08237B1F144F48F3609F0E1
:100890004CC030DE982E80930901B2CF843771F1BD
:1008A000863709F042C026DE909302018093010151
:1008B000A7CF9A94A5CF10E01FC010E084E03FC0FE
:1008C00010E085E03CC010E087E039C0F6DD8C36F2
:1008D00019F410924E0104C070924E0110924D0115
:1008E00020914A0130914B012F5F3F4F30934B01D4
:1008F00020934A0185CF11E080E021C0FBDDBC01DF
:10090000C50165D7669EC001679E900D1124909326
:10091000080180930701609105017091060157D786
:1009200070930401609303016BCF10924B011092FE
:100930004A0163C010E089E002C010E08BE0082F9C
:100940009CE0999E000D1124B8DD982F977F93327B
:1009500061F420914A0130914B012F5F3F4F30935A
:100960004B0120934A010F5FEFCF8D3269F4209144
:100970004A0130914B012F5F3F4F30934B01209341
:100980004A0101509ADDF1CF609103017091040199
:100990008153883040F4E0900701F0900801AADD0F
:1009A000BC01C70114D77B01F694E79469837A836D
:1009B00084DD69817A818E3269F420914A01309117
:1009C0004B012F5F3F4F30934B0120934A016E0D37
:1009D0007F1DEACF80914E01882339F09B01369527
:1009E000279520934D01621B71094091010111234C
:1009F00011F08FEF01C0802F75DE2296E0E157C71E
:100A00001F920F920FB60F9211242F933F934F9383
:100A10005F936F937F938F939F93AF93BF93EF9366
:100A2000FF9380915101909152019C012150310915
:100A30003093520120935101892B09F510926F00D8
:100A4000789480918100887F81608093810080E12B
:100A500097E2909389008093880010928B00109207
:100A60008A0081E080930A0180914A0190914B01B4
:100A7000892B29F080915001811101C086DEFF9100
:100A8000EF91BF91AF919F918F917F916F915F9106
:100A90004F913F912F910F900FBE0F901F9018957F
:100AA00010926F0090934B0180934A0110924F0176
:100AB00010924D016ACEF4CF089510926F0090937A
:100AC0004B0180934A0181E080934F0110924D01C8
:100AD0005CCEF3CF089580E090E0089581E090E04F
:100AE0006F9364E06A95F1F76F910197C9F70895E4
:100AF0000F931F93CF93DF9317B13D982898299AAE
:100B0000C0E0D0E0EBDF2A9AE9DF06B12A98E6DF01
:100B10002A9AE4DF2A982496CE01A0E0B0E0409122
:100B2000530150915401609155017091560105FD9A
:100B30000AC084179507A607B70758F082E390E02C
:100B4000A0E0B0E00AC084179507A607B707D0F267
:100B5000F0CF80E395E7A0E0B0E08093530190935D
:100B60005401A0935501B093560117B9DF91CF916D
:100B70001F910F91089528B18F7034E0839FC001B9
:100B80001124237C282B28B92A9AA8DF2A98A6CFDB
:100B9000FF920F931F93CF93DF93C82FF62E042F4E
:100BA00080917901811104C081E08093790124D082
:100BB0009FDF17B1D8B12998FF2011F0289A01C002
:100BC000289897B19C6397B9013021F08C2F8295BA
:100BD0008F70D1DF8C2F8F70CEDF17B9D8B9CDB71A
:100BE000DEB7E5E06FC642E060E0D2CF42E061E010
:100BF000CFCF41E060E0CCCF3D98459A80E395E7C8
:100C0000A0E0B0E08093530190935401A09355016C
:100C1000B0935601209A219A229A8EE190E085D5D0
:100C200083E0E7DF86E090E080D583E0E2DF82E0EA
:100C300090E07BD583E0DDDF82E090E076D582E056
:100C4000D8DF82E090E071D588E2CDDF88E0CBDFAD
:100C500081E0C9DF86E0C7DF8CE0C5CF81E0C3DF7C
:100C60008091590190915A01892BF9F060E0A0E23E
:100C7000262F30E070910B0180910C0190E00197DC
:100C8000789FA001799F500D1124241735074CF44B
:100C9000E0915901F0915A01E20FF31FA0836F5FB9
:100CA000E7CF10925701109258010895D7CF0895B9
:100CB000A5E0B0E0EDE5F6E0EBC5182F80E889830C
:100CC00080EC8A8384E98B8384ED8C83FE01E60FBC
:100CD000F11D8181810F6D8386DF109357016D8136
:100CE000609358012596E3E0EFC5FF920F931F93A1
:100CF000CF93DF93C82F8091590190915A01892B8E
:100D000041F48C2F992787FD9095CDB7DEB7E5E0AC
:100D1000D9C5CA3009F43DC0C830C1F4809157012B
:100D20008150809357018F3F51F480915801815039
:100D30008093580180910B018150809357018091DD
:100D400058018F3FB9F51092580132C08C2F4EDFF9
:100D5000809158018823A1F090E0019740910B0108
:100D6000489F9001499F300D112480915701E091D7
:100D70005901F0915A01E20FF31FE80FF11DC083F2
:100D8000809157018F5F8093570190910B018913D8
:100D9000B8CF40915801842F90E020910C0130E0B1
:100DA000215031098217930759F04F5F4093580142
:100DB00010925701609158018091570179DFA1CFBE
:100DC000D0E060910C01862F90E002972D2F332701
:100DD00027FD3095281739077CF56D2F80E068DFF7
:100DE000F12C20910B01F21628F50F2D10E03D2F6C
:100DF0003203C0011124E0915901F0915A01E00F32
:100E0000F11FE80FF91F8081F1DEE0915901F091A7
:100E10005A0120910B013D2F3203C0011124E00F34
:100E2000F11FE80FF91FDF01A20FB11D8C91808324
:100E3000F394D7CFDF5FC5CF623038F460910C01F7
:100E4000615080E035DFD0E037C0625080E030DFB5
:100E5000D0E030E2F32E40910B01D41778F70D2F3C
:100E600010E020910C0130E022503109429FC00176
:100E7000439F900D1124E0915901F0915A01E00F28
:100E8000F11FE80FF91F8081B1DE20910C0130E0E5
:100E90002250310940910B01429FC001439F900DA8
:100EA0001124E0915901F0915A01E00FF11FE80F70
:100EB000F91FF082DF5FCFCF80910B01D81708F0C8
:100EC00077CF80E293DEDF5FF7CF80915901909179
:100ED0005A01009709F09CD520910B0180910C01DB
:100EE00090E00197AC01249FC001259F900D112433
:100EF000F7D490935A0180935901892B01F160E056
:100F0000A0E2262F30E070910B0180910C0190E05F
:100F10000197789FA001799F500D11242417350760
:100F20004CF4E0915901F0915A01E20FF31FA083B4
:100F30006F5FE7CF6BE675E085E796E0F8C508954B
:100F4000C4CF089587B1837D87B988B18C6288B991
:100F500085E090E06F9364E06A95F1F76F910197F7
:100F6000C9F7089580917A01811104C081E08093CE
:100F70007A01E8CF08951F93CF93DF93182FF2DF04
:100F8000C12FD0E026B130E0209530952C233D23B1
:100F9000232BC1F38AE090E0C8D326B130E020953E
:100FA00030952C233D23232B69F386B18095812333
:100FB000DF91CF911F910895DECF0895CF93C82F71
:100FC000D1DF86B18C23E9F38AE090E0AED386B11D
:100FD0008C23B9F386B18C23CF910895EFCF089578
:100FE000A1E0B0E0E5EFF7E054C48983BBDF96B140
:100FF0009095898189232196E2E067C4F1CF089515
:10100000683050F421E001C0220F6A95EAF7AAE2A5
:10101000B0E0EBE2F0E030C0603158F4685021E01D
:1010200001C0220F6A95EAF7A4E2B0E0E5E2F0E041
:1010300023C0683158F4605121E001C0220F6A9545
:10104000EAF7A7E2B0E0E8E2F0E016C0603278F438
:101050002FE130E0261B310931E001C0330F2A9522
:10106000EAF7232FA1E2B0E0E2E2F0E005C020E0E1
:10107000A0E0B0E0E0E0F0E04081322F3095342392
:1010800030833C91322B3C93DC011196FC93EE9320
:1010900012962C9308951F920F920FB60F9211245F
:1010A0001F932F933F934F935F936F937F938F93F0
:1010B0009F93AF93BF93CF93DF93EF93FF932091D1
:1010C0005F012F5F277020935F0130E08091620104
:1010D0003817E8F443E0349FC0011124A0915D016A
:1010E000B0915E01A80FB91FED91FC91119720FFFF
:1010F00005C0808112969C91892B05C09081129623
:101100008C9180958923808326953F5FDFCF109156
:101110005F011F5F177080916101181728F010920E
:1011200089001092880043C0212F30E0220F331F26
:10113000E0916D01F0916E01E20FF31F408151814A
:10114000A0916501B0916601A20FB31F6D917C91D2
:10115000A0916901B0916A0161157105F1F0411525
:101160005105D9F0ED01C20FD31F888199810097F5
:10117000A1F04817590738F4460F571F4817590769
:1011800080F4CA010EC09C01260F371F4217530777
:1011900040F0CA01861B970B04C0A20FB31F8D91AC
:1011A0009C91909389008093880091838083C09163
:1011B00060011C1728F010928B0010928A0039C031
:1011C000812F90E0880F991FE0916B01F0916C01E5
:1011D000E80FF91F40815181A0916301B091640132
:1011E000A80FB91F2D913C91609167017091680122
:1011F000DB01A80FB91F8D919C912115310599F044
:101200004817590738F4240F351F2817390758F4A1
:10121000C90109C0BC01620F731F4617570718F0B8
:10122000CA01821B930B90938B0080938A00918359
:10123000808380915F018C1780F4E0915B01F091D5
:101240005C0193E0899FE00DF11D1124A081B18123
:101250009C918281809589238C93FF91EF91DF91FE
:10126000CF91BF91AF919F918F917F916F915F913E
:101270004F913F912F911F910F900FBE0F901F9094
:1012800018951F920F920FB60F9211248F939F9370
:10129000AF93BF93EF93FF9380915F0190916001B3
:1012A000891778F4E0915B01F0915C0193E0899FEC
:1012B000E00DF11D1124A081B1818C9192818927CB
:1012C0008C93FF91EF91BF91AF919F918F910F9070
:1012D0000FBE0F901F90189580915D0190915E0157
:1012E000009729F095D310925E0110925D018091D4
:1012F0006D0190916E01009729F08AD310926E01D2
:1013000010926D018091690190916A01009729F016
:101310007FD310926A0110926901809165019091CA
:101320006601009729F074D310926601109265014E
:1013300080915B0190915C01009729F069D3109234
:101340005C0110925B0180916B0190916C010097A0
:1013500029F05ED310926C0110926B0180916701AD
:1013600090916801009729F053D310926801109270
:1013700067018091630190916401009729F048D33F
:1013800010926401109263010895A0E0B0E0EAECCD
:10139000F9E073C2782E692EC42EB52E10926F001C
:1013A00010924C0181E080930A0110924B0110923F
:1013B0004A0110928100A62E83E0861710F4E3E024
:1013C000AE2EA092620181E00A2C01C0880F0A941F
:1013D000EAF7809361015D98559A82E880938000D6
:1013E000D22E28E02D1510F478E0D72ED09260018F
:1013F00073DF23E0A29EC001112472D24C019093AE
:101400005E0180935D01C0916101D0E0CC0FDD1FD2
:10141000CE0166D27C0190936E0180936D01CE0166
:101420005FD28C0190936A0180936901CE0158D2FA
:1014300090936601809365018114910419F44CDF47
:1014400081E0B5C0E114F104D1F301151105B9F340
:10145000892BA9F3D11006C0F72CC72DD62D00E09B
:1014600010E031C023E0D29EC001112439D24C01DA
:1014700090935C0180935B01C0916001D0E0CC0F40
:10148000DD1FCE012DD27C0190936C0180936B0106
:10149000CE0126D28C019093680180936701CE0122
:1014A0001FD290936401809363018114910439F2F7
:1014B000E114F10409F4C3CF0115110509F4BFCFFC
:1014C000892B51F6BCCF8C2F8F198A1558F469914E
:1014D00080915D0190915E01800F911F91DD0D5F04
:1014E0001F4FF1CF90916101E0916D01F0916E017C
:1014F000A0916901B0916A01C0916501D091660126
:1015000080E0891741F0119211921D921D9219925B
:1015100019928F5FF6CFAC2CCC2DDB2D00E010E0C4
:10152000E12CF12C8C2F8A198D1530F56991809161
:101530005B0190915C018E0D9F1D62DDE0916B015E
:10154000F0916C01E00FF11F11821082E0916701B0
:10155000F0916801E00FF11F11821082E0916301A8
:10156000F0916401E00FF11F1182108283E0E80E18
:10157000F11C0E5F1F4FD6CF10925F0181E1809367
:10158000810088EA91E690938700809386008FEF30
:1015900086BB80916F00806280936F00DD2029F010
:1015A00080916F00846080936F00789480E0CDB765
:1015B000DEB7EEE07EC1E9CE089590916001891713
:1015C00020F590916F009F7D90936F008770209120
:1015D000670190916801E22FF92FE80FF11DE80FE4
:1015E000F11DCB01633929E0720710F082E999E01F
:1015F0004AE0489F9001499F300D11243183208398
:1016000080916F00806280936F000895D6CF089517
:10161000909160018917F0F490916F009F7D9093F5
:101620006F0087702091630190916401E22FF92F80
:10163000E80FF11DE80FF11DCB01693A21E67207B1
:1016400010F088EA91E69183808380916F00806238
:1016500080936F000895DCCF089510926F00109270
:1016600080001092810090E080916001981790F4C2
:10167000E0915B01F0915C0183E0989FE00DF11D2A
:101680001124A081B1812C918281809582238C9339
:101690009F5FEACF21CEE1CF08952F928F939F9342
:1016A0002FB6809176019091770101968093760113
:1016B0009093770190E080917801891F8093780161
:1016C000909170019C5F9093700180916F018051A7
:1016D0009742C0F09093700180936F0180917101E7
:1016E000909172010196809371019093720190E044
:1016F00080917301891F8093730180917401891F08
:10170000809374012FBE9F918F912F90189528EE92
:1017100033E0019748F0F9016F9364E06A95F1F7BF
:101720006F913197C9F7F5CF0895F1CF0895E0E7AC
:10173000F0E080818E7F8083A0EBB0E08C918360AD
:101740008C93A1EBB0E08C91807F8C938C91826024
:101750008C93B89A80818160808378940895809179
:101760007B01811104C081E080937B01E0CF08956B
:10177000F6DFE0E7F0E080818E7F80836091710189
:1017800070917201809173019091740120812160A8
:1017900020830895EDCF0895A29FB001B39FC001AB
:1017A000A39F700D811D1124911DB29F700D811D8D
:1017B0001124911D0895991B79E004C0991F961773
:1017C00008F0961B881F7A95C9F780950895AA1B83
:1017D000BB1B51E107C0AA1FBB1FA617B70710F01C
:1017E000A61BB70B881F991F5A95A9F7809590954E
:1017F000BC01CD010895A1E21A2EAA1BBB1BFD015D
:101800000DC0AA1FBB1FEE1FFF1FA217B307E407DF
:10181000F50720F0A21BB30BE40BF50B661F771F37
:10182000881F991F1A9469F7609570958095909517
:101830009B01AC01BD01CF010895052E97FB16F465
:1018400000940FD057FD05D0D6DF07FC02D046F438
:1018500008C050954095309521953F4F4F4F5F4FB1
:10186000089590958095709561957F4F8F4F9F4F0C
:1018700008952F923F924F925F926F927F928F9234
:101880009F92AF92BF92CF92DF92EF92FF920F930F
:101890001F93CF93DF93CDB7DEB7CA1BDB0B0FB619
:1018A000F894DEBF0FBECDBF09942A8839884888D6
:1018B0005F846E847D848C849B84AA84B984C8846C
:1018C000DF80EE80FD800C811B81AA81B981CE0F63
:1018D000D11D0FB6F894DEBF0FBECDBFED01089548
:1018E000CF93DF938230910510F482E090E0E09195
:1018F0007E01F0917F0120E030E0A0E0B0E0309781
:1019000039F14081518148175907B8F048175907F4
:1019100071F482819381109729F013969C938E9392
:1019200012972CC090937F0180937E0127C02115D0
:10193000310531F04217530718F0A901DB0101C04E
:10194000EF019A01BD01DF010280F381E02DD7CFC5
:1019500021153105F9F0281B390B2430310580F4AD
:101960008A819B816115710521F0FB01938382833C
:1019700004C090937F0180937E01FE01329644C0A3
:10198000FE01E20FF31F81939193225031093983B5
:1019900028833AC020917C0130917D01232B41F4B2
:1019A00020910F013091100130937D0120937C0133
:1019B00020910D0130910E012115310541F42DB713
:1019C0003EB74091110150911201241B350BE0915B
:1019D0007C01F0917D01E217F307A0F42E1B3F0B71
:1019E0002817390778F0AC014E5F5F4F2417350791
:1019F00048F04E0F5F1F50937D0140937C0181930F
:101A0000919302C0E0E0F0E0CF01DF91CF91089523
:101A1000CF93DF93009709F487C0FC0132971382BC
:101A20001282C0917E01D0917F01209781F42081A4
:101A30003181280F391F80917C0190917D0182179F
:101A4000930779F5F0937D01E0937C016DC0DE0191
:101A500020E030E0AE17BF0750F412964D915C9134
:101A600013979D014115510509F1DA01F3CFB383B5
:101A7000A28340815181840F951F8A179B0771F4BF
:101A80008D919C911197840F951F0296918380836D
:101A900012968D919C911397938382832115310522
:101AA00029F4F0937F01E0937E013EC0D9011396A3
:101AB000FC93EE9312974D915D91A40FB51FEA1719
:101AC000FB0779F480819181840F951F0296D901DB
:101AD00011969C938E938281938113969C938E93FF
:101AE0001297E0E0F0E08A819B81009719F0FE01F7
:101AF000EC01F9CFCE01029628813981820F931F24
:101B000020917C0130917D012817390769F43097C5
:101B100029F410927F0110927E0102C0138212827A
:101B2000D0937D01C0937C01DF91CF9108950F93F5
:101B30001F93CF93DF93EC018B01009731F4611574
:101B4000710519F480E090E037C06EE070E081E04C
:101B500090E010D2FC010097A9F380E8838301157F
:101B6000110571F01387028781E8838380918001DA
:101B700090918101892B21F4F0938101E093800100
:101B80002097C9F0D187C087838182608383809149
:101B9000820190918301892B71F4F0938301E0938A
:101BA00082018091840190918501892B21F4F09329
:101BB0008501E0938401CF01DF91CF911F910F91B7
:101BC0000895A0E0B0E0E6EEFDE063CEFE013596BC
:101BD00061917191AF01809182019091830107D051
:101BE000E2E073CE6091820170918301FAC1ACE0B2
:101BF000B0E0ECEFFDE03DCE7C016B018A01FC0121
:101C000017821682838181FFB0C1CE0101964C01FB
:101C1000F7019381F60193FD859193FF81916F0107
:101C2000882309F49EC1853239F493FD859193FF91
:101C300081916F01853221F4B70190E0D2D1E8CFD4
:101C4000512C312C20E02032A0F48B3269F030F49A
:101C5000803259F0833269F420612CC08D3239F022
:101C6000803339F4216026C02260246023C02860BC
:101C700021C027FD27C030ED380F3A3078F426FF19
:101C800006C0FAE05F9E300D1124532E13C08AE087
:101C9000389E300D1124332E20620CC08E3221F478
:101CA00026FD5FC1206406C08C3611F4206802C096
:101CB000883641F4F60193FD859193FF81916F0180
:101CC0008111C1CF982F9F7D9554933028F40C5FDC
:101CD0001F4FFFE3F9830DC0833631F0833771F076
:101CE000833509F057C021C0F801808189830E5FD8
:101CF0001F4F44244394512C540114C03801F2E086
:101D00006F0E711CF801A080B18026FF03C0652D05
:101D100070E002C06FEF7FEFC5012C8757D12C0117
:101D200083012C852F77222E16C03801F2E06F0E2A
:101D3000711CF801A080B18026FF03C0652D70E002
:101D400002C06FEF7FEFC5012C872ED12C012C85AF
:101D50002068222E830123FC19C0832D90E04816B1
:101D60005906A0F4B70180E290E03BD13A94F5CF58
:101D7000F50127FC859127FE81915F01B70190E075
:101D800030D131103A94F1E04F1A51084114510406
:101D900079F7DEC0843611F0893631F5F80127FF76
:101DA00007C060817181828193810C5F1F4F08C0E1
:101DB00060817181882777FD8095982F0E5F1F4F76
:101DC0002F76B22E97FF09C09095809570956195FA
:101DD0007F4F8F4F9F4F2068B22E2AE030E0A40142
:101DE00032D1A82EA81843C0853729F42F7EB22EF1
:101DF0002AE030E025C0F22FF97FBF2E8F36C1F0E8
:101E000018F4883579F0ADC0803719F0883721F0A3
:101E1000A8C02F2F2061B22EB4FE0DC08B2D846080
:101E2000B82E09C024FF0AC09F2F9660B92E06C0A5
:101E300028E030E005C020E130E002C020E132E0DF
:101E4000F801B7FE07C060817181828193810C5FC8
:101E50001F4F06C06081718180E090E00E5F1F4FD0
:101E6000A401F1D0A82EA818FB2DFF77BF2EB6FE37
:101E70000BC02B2D2E7FA51450F4B4FE0AC0B2FC6B
:101E800008C02B2D2E7E05C07A2C2B2D03C07A2C5A
:101E900001C0752C24FF0DC0FE01EA0DF11D8081EB
:101EA000803311F4297E09C022FF06C07394739415
:101EB00004C0822F867809F0739423FD12C020FF9E
:101EC00006C05A2C731418F4530C5718732C73143F
:101ED00060F4B70180E290E02C8783D073942C8566
:101EE000F6CF731410F4371801C0312C24FF11C041
:101EF000B70180E390E02C8774D02C8522FF16C0B8
:101F000021FF03C088E590E002C088E790E0B701B8
:101F10000CC0822F867851F021FD02C080E201C002
:101F20008BE227FD8DE2B70190E05BD0A51430F481
:101F3000B70180E390E055D05A94F8CFAA94F40109
:101F4000EA0DF11D8081B70190E04BD0A110F6CFD2
:101F5000332009F45DCEB70180E290E042D03A949C
:101F6000F7CFF7018681978102C08FEF9FEF2C9604
:101F7000E2E19BCC0F931F93CF93DF93869F800169
:101F8000879F100D969F100D1124C801A9DCEC014C
:101F9000009721F0A80160E070E011D0CE01DF9140
:101FA000CF911F910F910895FC01059061507040F1
:101FB0000110D8F7809590958E0F9F1F0895DC0132
:101FC00001C06D9341505040E0F70895FC0161500D
:101FD000704001900110D8F7809590958E0F9F1F4B
:101FE00008950F931F93CF93DF93182F092FEB01C1
:101FF0008B8181FD03C08FEF9FEF20C082FF10C057
:102000004E815F812C813D81421753077CF4E8812A
:10201000F9819F012F5F3F4F39832883108306C0CA
:10202000E885F985812F0995892B29F72E813F8134
:102030002F5F3F4F3F832E83812F902FDF91CF91D2
:102040001F910F910895FA01AA27283051F12031EC
:1020500081F1E8946F936E7F6E5F7F4F8F4F9F4F3C
:10206000AF4FB1E03ED0B4E03CD0670F781F891F7E
:102070009A1FA11D680F791F8A1F911DA11D6A0F4C
:10208000711D811D911DA11D20D009F468943F91FF
:102090002AE0269F11243019305D3193DEF6CF01FE
:1020A0000895462F4770405D4193B3E00FD0C9F7C4
:1020B000F6CF462F4F70405D4A3318F0495D31FD31
:1020C0004052419302D0A9F7EACFB4E0A695979584
:1020D000879577956795BA95C9F70097610571055A
:1020E00008959B01AC010A2E0694579547953795A4
:1020F0002795BA95C9F7620F731F841F951FA01DFE
:062100000895F894FFCFE2
:10210600010F00F4010400D007040110020000864C
:102116000120009C01B501CF01EA01070226024712
:102126000269028E02B502DE020A0346756775650C
:1021360000507265737320610A627574746F6E0065
:0A214600636465666761623E630032
:00000001FF
