:100000003DC0000056C0000054C0000052C00000B7
:1000100050C000004EC000004CC000004AC00000AC
:1000200048C0000046C0000044C0000078C4000082
:1000300040C000003EC000003CC0000046C30000BD
:1000400038C0000036C0000034C0000032C00000DC
:1000500030C000002EC000002CC000002AC00000EC
:1000600028C0000026C0000024C0000022C00000FC
:1000700020C000001EC000001CC0000011241FBED4
:10008000CFEFD8E0DEBFCDBF11E0A0E0B1E0EEEFF2
:10009000FAE002C005900D92AC33B107D9F711E038
:1000A000ACE3B1E001C01D92A835B107E1F759D02A
:1000B00024C5A6CF883058F491E001C0990F8A95E5
:1000C000EAF7892FAAE2B0E0EBE2F0E031C080313C
:1000D00060F498EF980F81E001C0880F9A95EAF7D5
:1000E000A4E2B0E0E5E2F0E023C0883160F490EFF4
:1000F000980F81E001C0880F9A95EAF7A7E2B0E077
:10010000E8E2F0E015C0803270F42FE130E0281B07
:10011000310981E001C0880F2A95EAF7A1E2B0E039
:10012000E2E2F0E005C080E0A0E0B0E0E0E0F0E076
:100130006F3F19F49081982709C0662319F09081C8
:10014000982B04C02081982F9095922390839C91A6
:10015000982B9C930895809100018F5F80930001FC
:1001600008958BE291E0D9D382E391E009D361E075
:1001700081E0A0DF61E084E19DDF84E690E017D4B8
:1001800060E081E097DF60E084E194DF84E690E066
:100190000ED4EDCF90914101E0913C01F0913D01F1
:1001A000992311F0849101C080812FEB280F2A310F
:1001B00010F4805E0895803249F49F012F5F3F4F15
:1001C00030933D0120933C01EF2B31F708951F93AD
:1001D000CF93DF93DFDFC0E0D0E01AE090ED980F1F
:1001E0009A30B0F49E01129FE001139FD00D1124AC
:1001F000C80FD11D87FDDA95E09780913C01909161
:100200003D01019690933D0180933C01C3DFE6CF11
:10021000CE01DF91CF911F91089510926F0083E27C
:100220008093800081E1809381001092820080E1C0
:1002300097E2909389008093880010928B0010922F
:100240008A00549A789408958F929F92AF92BF92A9
:10025000DF92EF92FF920F931F93CF93DF935C0196
:100260008B01D42E80913E01811104C081E08093E6
:100270003E01D3DF10920A01B7FE05C0E894B7F83B
:100280002AE0F22E02C0FF24F394E09081002E2D8C
:10029000287FE22E48ECF49EC00111248A159B05AC
:1002A000D8F4E50151E1A51657E2B50610F0C0E11A
:1002B000D7E2BE017695679580E090E06058794678
:1002C00087469F4F4E01A12CB12CA5019401A0D3CC
:1002D00059018E2D816023C0C8E2FC9EC02D1124DF
:1002E000D0E0CA15DB0508F4E501BE0176956795F7
:1002F0009E0140E050E08AE0F81207C080E090E004
:10030000605E734481449F4F06C080E090E060537C
:100310007D4E8C4E9F4F7CD359018E2D8260882E4E
:100320002AE0F21206C0CE0105966AE070E05CD3C6
:10033000EB01C83E43E0D40749F09801DE0139D310
:1003400028EE33E040E050E085D3890110926F0041
:1003500080928100B0928900A0928800209188004C
:10036000309189004D2D403108F04FE080E190E060
:10037000841B9109A90102C0569547958A95E2F719
:1003800050938B0040938A001093440100934301E3
:1003900086B38FEF86BB81E080936F00DF91CF91B2
:1003A0001F910F91FF90EF90DF90BF90AF909F90C3
:1003B0008F900895CF93DF93EB018F3F11F04111A0
:1003C00005C040E0BE0188EE93E041C0813130F0CD
:1003D00050EF580F503618F05FE501C050E0852F00
:1003E0006CE0F6D2682F74EF760390011124250F8C
:1003F000311D2C30310540F4F901EE0FFF1FED5E89
:10040000FE4F2081318102C020E030E0873081F052
:10041000082E02C0220F331F0A94E2F7823028F020
:10042000C90105966AE070E00CC0C90190580BC084
:10043000C90136E0880F991F3A95E1F7029665E009
:1004400070E0D2D2CB01403108F04FE0BE01FCDEBB
:10045000DF91CF910895A2E0B0E0E0E3F2E018C3AD
:100460009090090180914001882321F060913F0123
:10047000611117C077247394B0ECAB2EBDE5BB2E91
:100480001AE0612E04E0802E80EDC82E87E0D82E81
:1004900094E0E92EF12C04EF11E02FE0422E512CD4
:1004A00014C070E040E088EE93E0CEDE10923F0191
:1004B00009C18636CCF5813609F4A1C074F58C33B8
:1004C00009F45CC08E3379F4939464DE20913C018E
:1004D00030913D012F5F3F4F30933D0120933C0110
:1004E000853639F74FC0813209F084C08092090106
:1004F000D0920801C0920701F0920601E092050136
:1005000010930401009303015092020140920101F3
:1005100010924001A4E09A2ED8CF833689F10CF4D2
:1005200071C010E082E070C08D36A9F18CF487367E
:1005300079F15CF18C3609F05DC049DEBC01909325
:1005400006018093050180910701909108014CC03C
:100550008237B1F144F48F3609F04CC038DE982E62
:1005600080930901B2CF843771F1863709F042C018
:100570002EDE9093020180930101A7CF9A94A5CF1C
:1005800010E01FC010E084E03FC010E085E03CC0F8
:1005900010E087E039C0FEDD8C3619F4109240017E
:1005A00004C07092400110923F0120913C013091B3
:1005B0003D012F5F3F4F30933D0120933C0185CF9C
:1005C00011E080E021C003DEBC01C5010DD2669EB2
:1005D000C001679E900D112490930801809307013C
:1005E0006091050170910601FFD170930401609341
:1005F00003016BCF10923D0110923C0163C010E0EB
:1006000089E002C010E08BE0082F9CE0999E000D6D
:100610001124C0DD982F977F933261F420913C0123
:1006200030913D012F5F3F4F30933D0120933C01BE
:100630000F5FEFCF8D3269F420913C0130913D0185
:100640002F5F3F4F30933D0120933C010150A2DDCD
:10065000F1CF60910301709104018153883040F41F
:10066000E0900701F0900801B2DDBC01C701BCD1E8
:100670007B01F694E79469837A838CDD69817A81C2
:100680008E3269F420913C0130913D012F5F3F4F44
:1006900030933D0120933C016E0D7F1DEACF809188
:1006A0004001882339F09B013695279520933F011F
:1006B000621B710940910101112311F08FEF01C0FC
:1006C000802F78DE2296E0E1FFC11F920F920FB6D5
:1006D0000F9211242F933F934F935F936F937F93C8
:1006E0008F939F93AF93BF93EF93FF9380914301B9
:1006F000909144019C012150310930934401209391
:100700004301892B09F510926F0078948091810044
:10071000887F81608093810080E197E290938900D7
:100720008093880010928B0010928A0081E0809361
:100730000A0180913C0190913D01892B29F0809123
:100740004201811101C087DEFF91EF91BF91AF910E
:100750009F918F917F916F915F914F913F912F91D9
:100760000F900FBE0F901F90189510926F009093EE
:100770003D0180933C011092410110923F016BCEEC
:10078000F4CF089581E090E06F9364E06A95F1F70B
:100790006F910197C9F708950F931F93CF93DF933C
:1007A00017B13D982898299AC0E0D0E0EBDF2A9A4B
:1007B000E9DF06B12A98E6DF2A9AE4DF2A98249630
:1007C000CE01A0E0B0E0409145015091460160911A
:1007D00047017091480105FD0AC084179507A607D7
:1007E000B70758F082E390E0A0E0B0E00AC08417B9
:1007F0009507A607B707D0F2F0CF80E395E7A0E012
:10080000B0E08093450190934601A0934701B093D7
:10081000480117B9DF91CF911F910F91089528B129
:100820008F7034E0839FC0011124237C282B28B9CA
:100830002A9AA8DF2A98A6CFFF920F931F93CF93EF
:10084000DF93C82FF62E042F80915701811104C029
:1008500081E08093570124D09FDF17B1D8B1299848
:10086000FF2011F0289A01C0289897B19C6397B98E
:10087000013021F08C2F82958F70D1DF8C2F8F70FB
:10088000CEDF17B9D8B9CDB7DEB7E5E028C142E071
:1008900060E0D2CF42E061E0CFCF41E060E0CCCF7A
:1008A0003D98459A80E395E7A0E0B0E0809345014C
:1008B00090934601A0934701B0934801209A219A52
:1008C000229A8EE190E073D083E0E7DF86E090E04B
:1008D0006ED083E0E2DF82E090E069D083E0DDDF8C
:1008E00082E090E064D082E0D8DF82E090E05FD0E8
:1008F00088E2CDDF88E0CBDF81E0C9DF86E0C7DFBB
:100900008CE0C5CFCF93DF93EC018991882311F060
:10091000C1DFFBCFDF91CF910895F4CF08952F92DF
:100920008F939F932FB6809154019091550101961A
:10093000809354019093550190E080915601891F56
:100940008093560190914E019C5F90934E0180914F
:100950004D0180519742C0F090934E0180934D011C
:1009600080914F0190915001019680934F01909397
:10097000500190E080915101891F80935101809135
:100980005201891F809352012FBE9F918F912F900A
:10099000189528EE33E0019748F0F9016F9364E071
:1009A0006A95F1F76F913197C9F7F5CF0895F1CFB7
:1009B0000895A29FB001B39FC001A39F700D811D38
:1009C0001124911DB29F700D811D1124911D089558
:1009D000991B79E004C0991F961708F0961B881F91
:1009E0007A95C9F780950895AA1BBB1B51E107C0F2
:1009F000AA1FBB1FA617B70710F0A61BB70B881FAF
:100A0000991F5A95A9F780959095BC01CD0108953D
:100A1000A1E21A2EAA1BBB1BFD010DC0AA1FBB1F02
:100A2000EE1FFF1FA217B307E407F50720F0A21B74
:100A3000B30BE40BF50B661F771F881F991F1A94E1
:100A400069F760957095809590959B01AC01BD010B
:100A5000CF010895052E97FB16F400940FD057FD93
:100A600005D0D6DF07FC02D046F408C0509540956B
:100A7000309521953F4F4F4F5F4F0895909580954A
:100A8000709561957F4F8F4F9F4F08952F923F92A2
:100A90004F925F926F927F928F929F92AF92BF928E
:100AA000CF92DF92EF92FF920F931F93CF93DF933A
:100AB000CDB7DEB7CA1BDB0B0FB6F894DEBF0FBE97
:100AC000CDBF09942A88398848885F846E847D84E4
:100AD0008C849B84AA84B984C884DF80EE80FD80E6
:100AE0000C811B81AA81B981CE0FD11D0FB6F8945C
:0E0AF000DEBF0FBECDBFED010895F894FFCF1D
:100AFE00010F00F4010400D0070401100200005899
:100B0E000120009C01B501CF01EA01070226024730
:100B1E000269028E02B502DE020A0348656C6C6F32
:0C0B2E0021004C3136206365673E6300F7
:00000001FF
