:1000000045C0000061C000005FC000005DC000008E
:10001000B6C20000B4C20000B2C20000B0C200000C
:1000200053C0000051C000004FC000004BC700008B
:1000300084C4000049C000007AC500000C94030B82
:1000400043C0000041C000003FC000003DC00000B0
:100050003BC0000039C0000037C0000035C00000C0
:1000600033C0000031C000002FC000002DC00000D0
:100070002BC0000029C0000027C0000025C00000E0
:1000800023C0000021C000001FC0000011241FBEBB
:10009000CFEFD0E4DEBFCDBF11E0A0E0B1E0EAEDEC
:1000A000FAE100E00BBF02C007900D92A236B10743
:1000B000D9F711E0A2E6B1E001C01D92A43BB1075F
:1000C000E1F703D00C946B0D9BCFA1E1B0E0EBE620
:1000D000F0E00C94170C21E04DE151E060E080E08D
:1000E00090E0C3D65098589AE3D161E08EE191E058
:1000F000B5D380917C008F7D80937C00C12CD12C66
:10010000760198D76C197D098E099F0962337105B4
:100110008105910558F0E1D096958795BC016E5107
:100120007B4F80E0CDD686D76B017C01BE016F5F2F
:100130007F4F80E0B5D36AD70C811D812E813F812E
:10014000601B710B820B930B6039704D83409105DE
:10015000D0F0888560E0813059F480E00ED287E3EA
:1001600091E0B3D161E080E008D282E491E026C062
:1001700080E003D282E491E0A8D161E080E0FDD18B
:100180008DE491E01BC08989823009F0BACF60E02C
:1001900080E0F3D169857A858B859C8575D2CCD139
:1001A00088E591E092D161E080E0E7D16D857E85C0
:1001B0008F85988969D2C0D188E591E086D1A1CF99
:1001C00080916401882309F440C02091620130913C
:1001D000630180917C004091010150910201FA017C
:1001E000F695E79585FF16C0AFEFB0E00E94A00B33
:1001F0006E0F7F1F811D911D9A0140E050E00E940B
:10020000CF0BC901DA018F3F9105A105B10509F0B6
:10021000B0F40895AFEFB3E00E94A00B6E0F7F1F04
:10022000811D911D9A0140E050E00E94CF0BC90151
:10023000DA01009721E0A207B10520F408958FEFBD
:1002400090E008958FEF9FEF089580917C0085FFE7
:1002500004C08091790090E0089580917800909199
:10026000790008958032D8F091E09093640180384D
:1002700011F410D70FC0813811F412D70BC0823897
:1002800011F414D707C0833811F416D703C084388B
:10029000E1F418D79093630180936201089510925E
:1002A000640197E890937A0090917C00662311F0A6
:1002B000906C02C09F779064907E982B90937C0006
:1002C00080917A00806480937A00089560E0CADFAC
:1002D00080917A0086FDFCCF73CF80E8F7CF81E074
:1002E00090E06F9364E06A95F1F76F910197C9F719
:1002F00008950F931F93CF93DF9317B13D982898DC
:10030000299AC0E0D0E0EBDF2A9AE9DF06B12A980B
:10031000E6DF2A9AE4DF2A982496CE01A0E0B0E036
:10032000409165015091660160916701709168018B
:1003300005FD0AC084179507A607B70758F082E3A2
:1003400090E0A0E0B0E00AC084179507A607B707C1
:10035000D0F2F0CF80E395E7A0E0B0E080936501B4
:1003600090936601A0936701B093680117B9DF917C
:10037000CF911F910F91089528B18F7034E0839F22
:10038000C0011124237C282B28B92A9AA8DF2A9897
:10039000A6CFFF920F931F93CF93DF93C82FF62E14
:1003A000042F8091AE01811104C081E08093AE01E1
:1003B00025D09FDF17B1D8B12998FF2011F0289AD6
:1003C00001C0289897B19C6397B9013021F08C2F18
:1003D00082958F70D1DF8C2F8F70CEDF17B9D8B98F
:1003E000CDB7DEB7E5E00C94360C42E060E0D1CF4B
:1003F00042E061E0CECF41E060E0CBCF3D98459A4E
:1004000080E395E7A0E0B0E08093650190936601FA
:10041000A0936701B0936801209A219A229A8EE1F5
:1004200090E0A8D583E0E7DF86E090E0A3D583E005
:10043000E2DF82E090E09ED583E0DDDF82E090E0C5
:1004400099D582E0D8DF82E090E094D588E2CDDFD4
:1004500088E0CBDF81E0C9DF86E0C7DF8CE0C5CF75
:1004600081E0C3DF80916B0190916C01892BF9F0E1
:1004700060E0A0E2262F30E070910301809104013A
:1004800090E00197789FA001799F500D11242417C7
:1004900035074CF4E0916B01F0916C01E20FF31F12
:1004A000A0836F5FE7CF1092690110926A010895EF
:1004B000D7CF0895CF93DF93EC018991882311F072
:1004C00097DFFBCFDF91CF910895F4CF0895AAE095
:1004D000B0E0EDE6F2E00C94170C1AE02AE0C22E30
:1004E000D12CE12CF12C062FA70196010E94CF0BF5
:1004F000CA01B9011150E1E0F0E0EC0FFD1FE10F7E
:10050000F11D005D2AE0629F00191124008361152E
:1005100071058105910539F71A3050F4E1E0F0E0FA
:10052000EC0FFD1FE10FF11D808162DF1F5FF4CF33
:100530002A96E8E00C94330CCACF0895A5E0B0E009
:10054000E4EAF2E00C941C0C182F80E8898380EC1C
:100550008A8384E98B8384ED8C83FE01E60FF11D91
:100560008181810F6D8341DF109369016D816093FB
:100570006A012596E3E00C94380CE0CF08951F92B1
:100580000F920FB60F9211240BB60F92CF92DF92FB
:10059000EF92FF921F932F933F934F935F936F932D
:1005A0007F938F939F93AF93BF93CF93DF93EF93FB
:1005B000FF932091B20080918A0190918B01A091CC
:1005C0008C01B0918D01B89B0DC02091B20080913B
:1005D0008A0190918B01A0918C01B0918D019F5F58
:1005E000AF4FBF4F822B10916D01E0916E01F091E2
:1005F0006F0120E0211771F1C081D18148813281E2
:10060000432331E009F430E04781341701F143819D
:100610005481658176816C017D01C41AD50AE60A90
:10062000F70AC781CC2339F0C086D186E286F386EB
:100630004089426006C0C486D586E686F786408932
:100640004160408B378383839483A583B6832F5F78
:100650007196D0CFFF91EF91DF91CF91BF91AF9184
:100660009F918F917F916F915F914F913F912F91CA
:100670001F91FF90EF90DF90CF900F900BBE0F90E7
:100680000FBE0F901F90189557C4089580916E016A
:1006900090916F01009731F00E94DC0C10926F0175
:1006A00010926E010895A0E0B0E0E9E5F3E00C944B
:1006B000110CEC01962E1092680010926B001092B3
:1006C0006C0010926D001092730060936D01DEDF7C
:1006D00021E1929EC00111240E94440C90936F016D
:1006E00080936E01892B09F4B3C06C2E7E01A12C7E
:1006F000B12C8FE1C82ED12C772473948E2D8619BE
:10070000891508F07CC0F70181917F01883040F4A1
:10071000872C01C0880C8A95EAF7C9E2D0E027C08F
:10072000803148F48850872C01C0880C8A95EAF7FC
:10073000C3E2D0E01CC0883148F48051872C01C04E
:10074000880C8A95EAF7C6E2D0E011C0803260F4E6
:100750009601281B3109872C022E01C0880C0A94AF
:10076000EAF7C0E2D0E003C0812CC0E0D0E0009105
:100770006E0110916F010A0D1B1DF801D183C0831A
:100780008282108611861286138614861586168636
:10079000178613D4F8016383748385839683E0916D
:1007A0006E01F0916F01EA0DFB1D8881882187831E
:1007B000108AC032D10531F480916B008829809372
:1007C0006B0012C0C332D10531F480916C008829CE
:1007D00080936C0010C0C632D10531F480916D0059
:1007E000882980936D0007C0A99729F48091730030
:1007F000882980937300F1E1AF0EB11C7FCF8FEF9A
:100800008BBB80916B00882329F080916800816008
:100810008093680080916C00882329F080916800A3
:1008200082608093680080916D00882329F0809118
:10083000680084608093680080917300882329F0A9
:1008400080916800886080936800789480E001C09F
:1008500081E0CDB7DEB7EEE00C942D0C24CF0895E7
:10086000CF93DF9390916D018917B8F49091680050
:1008700010926800C0916E01D0916F0121E1829FBA
:10088000C00DD11D112481E1FE01DB0101900D920B
:100890008A95E1F7188A90936800DF91CF910895C7
:1008A000DFCF0895683050F421E001C0220F6A952F
:1008B000EAF7AAE2B0E0EBE2F0E030C0603158F4D1
:1008C000685021E001C0220F6A95EAF7A4E2B0E087
:1008D000E5E2F0E023C0683158F4605121E001C046
:1008E000220F6A95EAF7A7E2B0E0E8E2F0E016C06E
:1008F000603278F42FE130E0261B310931E001C08D
:10090000330F2A95EAF7232FA1E2B0E0E2E2F0E00C
:1009100005C020E0A0E0B0E0E0E0F0E04081322F50
:100920003095342330833C91322B3C93DC0111967B
:10093000FC93EE9312962C9308951F920F920FB68C
:100940000F9211240BB60F921F932F933F934F9347
:100950005F936F937F938F939F93AF93BF93CF9347
:10096000DF93EF93FF93209174012F5F2770209303
:10097000740130E0809177013817E8F443E0349F48
:10098000C0011124A0917201B0917301A80FB91F89
:10099000ED91FC91119720FF05C0808112969C91EA
:1009A000892B05C0908112968C9180958923808334
:1009B00026953F5FDFCF109174011F5F1770809104
:1009C0007601181728F0109289001092880043C011
:1009D000212F30E0220F331FE0918201F09183013B
:1009E000E20FF31F40815181A0917A01B0917B0108
:1009F000A20FB31F6D917C91A0917E01B0917F01F8
:100A000061157105F1F041155105D9F0ED01C20FE5
:100A1000D31F888199810097A1F04817590738F4AE
:100A2000460F571F4817590780F4CA010EC09C0192
:100A3000260F371F4217530740F0CA01861B970B3A
:100A400004C0A20FB31F8D919C9190938900809355
:100A5000880091838083C09175011C1728F0109243
:100A60008B0010928A0039C0812F90E0880F991F67
:100A7000E0918001F0918101E80FF91F40815181DF
:100A8000A0917801B0917901A80FB91F2D913C91E7
:100A900060917C0170917D01DB01A80FB91F8D91E0
:100AA0009C912115310599F04817590738F4240F06
:100AB000351F2817390758F4C90109C0BC01620F56
:100AC000731F4617570718F0CA01821B930B9093A8
:100AD0008B0080938A0091838083809174018C17AE
:100AE00080F4E0917001F091710193E0899FE00D35
:100AF000F11D1124A081B1819C918281809589236F
:100B00008C93FF91EF91DF91CF91BF91AF919F9126
:100B10008F917F916F915F914F913F912F911F9195
:100B20000F900BBE0F900FBE0F901F9018951F9245
:100B30000F920FB60F9211240BB60F928F939F93C3
:100B4000AF93BF93EF93FF938091740190917501E0
:100B5000891778F4E0917001F091710193E0899F19
:100B6000E00DF11D1124A081B1818C919281892722
:100B70008C93FF91EF91BF91AF919F918F910F90C7
:100B80000BBE0F900FBE0F901F90189580917201B1
:100B900090917301009729F00FD710927301109272
:100BA00072018091820190918301009729F004D70E
:100BB000109283011092820180917E0190917F01B9
:100BC000009729F0F9D610927F0110927E01809152
:100BD0007A0190917B01009729F0EED610927B016B
:100BE00010927A018091700190917101009729F023
:100BF000E3D6109271011092700180918001909162
:100C00008101009729F0D8D61092810110928001BD
:100C100080917C0190917D01009729F0CDD61092B2
:100C20007D0110927C01809178019091790100976B
:100C300029F0C2D610927901109278010895A0E0AF
:100C4000B0E0E4E2F6E0EDC5782E692EC42EB52EB4
:100C500010926F001092A70181E08093160110920C
:100C6000A6011092A50110928100A62E83E086179E
:100C700010F4E3E0AE2EA092770181E00A2C01C0CF
:100C8000880F0A94EAF7809376015D98559A82E876
:100C900080938000D22E28E02D1510F478E0D72E16
:100CA000D092750173DF23E0A29EC0011124ECD520
:100CB0004C019093730180937201C0917601D0E052
:100CC000CC0FDD1FCE01E0D57C0190938301809392
:100CD0008201CE01D9D58C0190937F0180937E0152
:100CE000CE01D2D590937B0180937A018114910437
:100CF00019F44CDF81E0B5C0E114F104D1F3011522
:100D00001105B9F3892BA9F3D11006C0F72CC72D13
:100D1000D62D00E010E031C023E0D29EC0011124A6
:100D2000B3D54C019093710180937001C09175010E
:100D3000D0E0CC0FDD1FCE01A7D57C0190938101BF
:100D400080938001CE01A0D58C0190937D0180938A
:100D50007C01CE0199D5909379018093780181141B
:100D6000910439F2E114F10409F4C3CF011511051E
:100D700009F4BFCF892B51F6BCCF8C2F8F198A1560
:100D800058F469918091720190917301800F911FC5
:100D900089DD0D5F1F4FF1CF90917601E0918201C7
:100DA000F0918301A0917E01B0917F01C0917A0101
:100DB000D0917B0180E0891741F0119211921D9230
:100DC0001D92199219928F5FF6CFAC2CCC2DDB2D92
:100DD00000E010E0E12CF12C8C2F8A198D1530F5F4
:100DE000699180917001909171018E0D9F1D5ADD66
:100DF000E0918001F0918101E00FF11F11821082DA
:100E0000E0917C01F0917D01E00FF11F11821082D1
:100E1000E0917801F0917901E00FF11F11821082C9
:100E200083E0E80EF11C0E5F1F4FD6CF10927401C5
:100E300081E18093810088EA91E690938700809316
:100E400086008FEF86BB80916F00806280936F0079
:100E5000DD2029F080916F00846080936F0078948A
:100E600080E0CDB7DEB7EEE0F8C4E9CE089590910A
:100E70007501891720F590916F009F7D90936F0009
:100E8000877020917C0190917D01E22FF92FE80F6E
:100E9000F11DE80FF11DCB01633929E0720710F055
:100EA00082E999E04AE0489F9001499F300D112462
:100EB0003183208380916F00806280936F0008955A
:100EC000D6CF08952F928F939F932FB680918B0149
:100ED00090918C01019680938B0190938C0190E00E
:100EE00080918D01891F80938D01909185019C5F78
:100EF000909385018091840180519742C0F0909336
:100F000085018093840180918601909187010196EB
:100F1000809386019093870190E080918801891FDA
:100F20008093880180918901891F809389012FBE58
:100F30009F918F912F9018956F5F7F4F8F4F9F4F8D
:100F4000660F771F881F991F25E030E040E050E0D2
:100F500026D4CA01B901089528EE33E0019748F07C
:100F6000F9016F9364E06A95F1F76F913197C9F7D2
:100F7000F5CF0895F1CF0895E0E7F0E080818E7F0E
:100F80008083A0EBB0E08C9183608C93A1EBB0E008
:100F90008C91807F8C938C9182608C93B89A8081A5
:100FA00081608083789408958091AF01811104C09D
:100FB00081E08093AF01E0CF0895F6DF809170006B
:100FC0008E7F809370002091B20080918A01909171
:100FD0008B01A0918C01B0918D01B89903C0BC0127
:100FE000CD010DC02091B20060918A0170918B01FA
:100FF00080918C0190918D017F5F8F4F9F4F622B6D
:10100000209170002160209370000895D6CF08953C
:10101000CBDFE0E7F0E080818E7F80836091860106
:1010200070918701809188019091890120812160D0
:1010300020830895EDCF089564E08FEF58C30F9398
:101040001F93CF93DF93E4DF0091090110910A0110
:1010500020910B0130910C016017710782079307F3
:10106000A1F067E081E843D3C8E9D1E0E5DF8993E7
:1010700081E0C53AD807D1F7CBDF609309017093BF
:101080000A0180930B0190930C01DF91CF911F9186
:101090000F910895D4DF8091A1019091A20108954C
:1010A000CEDF8091990190919A010895C8DF8091D7
:1010B0009B0190919C010895C2DF80919D019091C8
:1010C0009E010895BCDF80919F019091A001089539
:1010D0009091AA01E091A501F091A601992311F048
:1010E000849101C080812FEB280F2A3110F4805E9B
:1010F0000895803249F49F012F5F3F4F3093A6013E
:101100002093A501EF2B31F708951F93CF93DF9321
:10111000DFDFC0E0D0E01AE090ED980F9A30B0F435
:101120009E01129FE001139FD00D1124C80FD11D05
:1011300087FDDA95E0978091A5019091A60101962F
:101140009093A6018093A501C3DFE6CFCE01DF9186
:10115000CF911F91089510926F0083E280938000D9
:1011600081E1809381001092820080E197E2909368
:1011700089008093880010928B0010928A00549A04
:10118000789408958F929F92AF92BF92DF92EF92E0
:10119000FF920F931F93CF93DF935C018B01D42EAB
:1011A0008091A701811104C081E08093A701D3DF62
:1011B00010921601B7FE05C0E894B7F82AE0F22EA7
:1011C00002C0FF24F394E09081002E2D287FE22EB0
:1011D00048ECF49EC00111248A159B05D8F4E50162
:1011E00051E1A51657E2B50610F0C0E1D7E2BE0105
:1011F0007695679580E090E06058794687469F4FE6
:101200004E01A12CB12CA5019401C9D259018E2DFA
:10121000816023C0C8E2FC9EC02D1124D0E0CA1515
:10122000DB0508F4E501BE01769567959E0140E077
:1012300050E08AE0F81207C080E090E0605E7344FE
:1012400081449F4F06C080E090E060537D4E8C4EFD
:101250009F4FA5D259018E2D8260882E2AE0F2126E
:1012600006C0CE0105966AE070E085D2EB01C83E6B
:1012700043E0D40749F09801DE0162D228EE33E062
:1012800040E050E0AED2890110926F008092810060
:10129000B0928900A0928800209188003091890046
:1012A0004D2D403108F04FE080E190E0841B910922
:1012B000A90102C0569547958A95E2F750938B0095
:1012C00040938A001093AD010093AC0186B38FEF79
:1012D00086BB81E080936F00DF91CF911F910F91CA
:1012E000FF90EF90DF90BF90AF909F908F90089508
:1012F000CF93DF93EB018F3F11F0411105C040E028
:10130000BE0188EE93E041C0813130F050EF580FBC
:10131000503618F05FE501C050E0852F6CE01FD219
:10132000682F74EF760390011124250F311D2C30A6
:10133000310540F4F901EE0FFF1FE15EFE4F208101
:10134000318102C020E030E0873081F0082E02C0F9
:10135000220F331F0A94E2F7823028F0C901059664
:101360006AE070E00CC0C90190580BC0C90136E0BA
:10137000880F991F3A95E1F7029665E070E0FBD17E
:10138000CB01403108F04FE0BE01FCDEDF91CF9190
:101390000895A2E0B0E0EEECF9E041C290901501B2
:1013A0008091A901882321F06091A801611117C0E3
:1013B00077247394B0ECAB2EBDE5BB2E1AE0612E02
:1013C00004E0802E80EDC82E87E0D82E94E0E92E30
:1013D000F12C04EF11E02FE0422E512C14C070E0EC
:1013E00040E088EE93E0CEDE1092A80109C1863677
:1013F000CCF5813609F4A1C074F58C3309F45CC0D6
:101400008E3379F4939464DE2091A5013091A60186
:101410002F5F3F4F3093A6012093A501853639F702
:101420004FC0813209F084C080921501D09214011E
:10143000C0921301F0921201E09211011093100179
:1014400000930F0150920E0140920D011092A901DC
:10145000A4E09A2ED8CF833689F10CF471C010E045
:1014600082E070C08D36A9F18CF4873679F15CF199
:101470008C3609F05DC049DEBC0190931201809367
:10148000110180911301909114014CC08237B1F188
:1014900044F48F3609F04CC038DE982E8093150145
:1014A000B2CF843771F1863709F042C02EDE9093B7
:1014B0000E0180930D01A7CF9A94A5CF10E01FC015
:1014C00010E084E03FC010E085E03CC010E087E021
:1014D00039C0FEDD8C3619F41092A90104C0709257
:1014E000A9011092A8012091A5013091A6012F5FBA
:1014F0003F4F3093A6012093A50185CF11E080E0F6
:1015000021C003DEBC01C50136D1669EC001679EC5
:10151000900D112490931401809313016091110197
:101520007091120128D17093100160930F016BCF5D
:101530001092A6011092A50163C010E089E002C0DC
:1015400010E08BE0082F9CE0999E000D1124C0DD77
:10155000982F977F933261F42091A5013091A601D5
:101560002F5F3F4F3093A6012093A5010F5FEFCF70
:101570008D3269F42091A5013091A6012F5F3F4F74
:101580003093A6012093A5010150A2DDF1CF609117
:101590000F01709110018153883040F4E0901301E5
:1015A000F0901401B2DDBC01C701E5D07B01F694D7
:1015B000E79469837A838CDD69817A818E3269F45C
:1015C0002091A5013091A6012F5F3F4F3093A601D6
:1015D0002093A5016E0D7F1DEACF8091A90188237C
:1015E00039F09B01369527952093A801621B71095C
:1015F00040910D01112311F08FEF01C0802F78DE93
:101600002296E0E128C11F920F920FB60F9211248B
:101610000BB60F922F933F934F935F936F937F93EC
:101620008F939F93AF93BF93EF93FF938091AC0100
:101630009091AD019C01215031093093AD0120936F
:10164000AC01892B09F510926F007894809181008C
:10165000887F81608093810080E197E29093890088
:101660008093880010928B0010928A0081E0809312
:1016700016018091A5019091A601892B29F08091F6
:10168000AB01811101C085DEFF91EF91BF91AF9158
:101690009F918F917F916F915F914F913F912F918A
:1016A0000F900BBE0F900FBE0F901F9018952499AE
:1016B00002C02C9B11C094B1906A94B92698982FBF
:1016C000937090656C7A962B9CBD82FB882780F97D
:1016D0008DBD81E090E040CC2C9AEEE1F0E06F937C
:1016E00064E06A95F1F76F913197C9F7E4CFCF9332
:1016F000DF93D82FC62F0CB406FC03C064E080E053
:10170000D6DF0CB404FC03C09CB590619CBDDEBD6B
:101710000DB407FC06C09CB5892F807194FDF8CFED
:101720000CC0CC2349F08C2F90E06F9364E06A9555
:10173000F1F76F910197C9F78EB5DF91CF910895B9
:10174000A29FB001B39FC001A39F700D811D112402
:10175000911DB29F700D811D1124911D0895991B3B
:1017600079E004C0991F961708F0961B881F7A9598
:10177000C9F780950895AA1BBB1B51E107C0AA1F9A
:10178000BB1FA617B70710F0A61BB70B881F991F22
:101790005A95A9F780959095BC01CD010895A1E2D5
:1017A0001A2EAA1BBB1BFD010DC0AA1FBB1FEE1FDB
:1017B000FF1FA217B307E407F50720F0A21BB30B26
:1017C000E40BF50B661F771F881F991F1A9469F7A2
:1017D00060957095809590959B01AC01BD01CF01FE
:1017E0000895052E97FB16F400940FD057FD05D0F1
:1017F000D6DF07FC02D046F408C0509540953095DE
:1018000021953F4F4F4F5F4F08959095809570956C
:1018100061957F4F8F4F9F4F08952F923F924F9228
:101820005F926F927F928F929F92AF92BF92CF9270
:10183000DF92EF92FF920F931F93CF93DF93CDB779
:10184000DEB7CA1BDB0B0FB6F894DEBF0FBECDBFF1
:1018500009942A88398848885F846E847D848C84C2
:101860009B84AA84B984C884DF80EE80FD800C81CB
:101870001B81AA81B981CE0FD11D0FB6F894DEBFAE
:101880000FBECDBFED010895CF93DF938230910558
:1018900010F482E090E0E091B201F091B30120E019
:1018A00030E0A0E0B0E0309739F140815181481735
:1018B0005907B8F04817590771F48281938110973E
:1018C00029F013969C938E9312972CC09093B3019A
:1018D0008093B20127C02115310531F0421753071B
:1018E00018F0A901DB0101C0EF019A01BD01DF0180
:1018F0000280F381E02DD7CF21153105F9F0281BA7
:10190000390B2430310580F48A819B816115710582
:1019100021F0FB019383828304C09093B3018093F1
:10192000B201FE01329644C0FE01E20FF31F819323
:10193000919322503109398328833AC02091B00114
:101940003091B101232B41F42091190130911A01FA
:101950003093B1012093B00120911701309118010B
:101960002115310541F42DB73EB740911B0150912F
:101970001C01241B350BE091B001F091B101E2177D
:10198000F307A0F42E1B3F0B2817390778F0AC01A2
:101990004E5F5F4F2417350748F04E0F5F1F50937F
:1019A000B1014093B0018193919302C0E0E0F0E077
:1019B000CF01DF91CF910895CF93DF93009709F482
:1019C00087C0FC01329713821282C091B201D0917C
:1019D000B301209781F420813181280F391F809134
:1019E000B0019091B1018217930779F5F093B1019D
:1019F000E093B0016DC0DE0120E030E0AE17BF071C
:101A000050F412964D915C9113979D01411551052B
:101A100009F1DA01F3CFB383A28340815181840FAE
:101A2000951F8A179B0771F48D919C911197840FD4
:101A3000951F02969183808312968D919C911397A6
:101A4000938382832115310529F4F093B301E09348
:101A5000B2013EC0D9011396FC93EE9312974D91BB
:101A60005D91A40FB51FEA17FB0779F4808191817E
:101A7000840F951F0296D90111969C938E938281B3
:101A8000938113969C938E931297E0E0F0E08A8105
:101A90009B81009719F0FE01EC01F9CFCE0102966F
:101AA00028813981820F931F2091B0013091B101BB
:101AB0002817390769F4309729F41092B30110926E
:101AC000B20102C013821282D093B101C093B0015F
:0A1AD000DF91CF910895F894FFCF45
:101ADA000188131002FFFFFFFFFFFFFFFF0F00F453
:101AEA00010400D00704010000B401200001009C99
:101AFA0001B501CF01EA0107022602470269028EF7
:101B0A0002B502DE020A0344303A20484947482017
:101B1A002000202020202020202020200044303AAD
:101B2A0020204C4F57202000207573202020202091
:021B3A00200089
:00000001FF
