:1000000054C000006FC000006DC000006BC0000055
:1000100069C0000067C0000065C0000063C0000048
:1000200061C000005FC000005DC00000D0C10000E2
:1000300059C0000057C0000055C0000053C0000068
:1000400051C000004FC000004DC000004BC0000078
:1000500049C0000047C0000045C0000043C0000088
:1000600041C000003FC000003DC000003BC0000098
:1000700039C0000037C0000035C0000033C00000A8
:1000800031C000002FC000002DC000009500980076
:100090009B009E00A100A400A900AE00B300B80020
:1000A000BD00C200C700CA00CF0011241FBECFEFA1
:1000B000D0E4DEBFCDBF11E0A0E0B1E0E8EAF4E0BB
:1000C00000E00BBF02C007900D92A230B107D9F734
:1000D00011E0A2E0B1E001C01D92AE30B107E1F73E
:1000E0008AD0E0C18DCF809100018F5F80930001A5
:1000F00008952091020190910101813021F4920F25
:100100009093020103C0291B2093020180910201F8
:100110008F7090E0FC013197EF30F10518F4EA5B45
:10012000FF4FBAC164EB70E02FC06CEE70E027C0E7
:100130006FEF70E01FC06CEE70E017C064EB70E012
:100140000FC062E670E007C060E070E081E09FEF02
:100150002AC06EE97FEF84E19FEF25C06CE47FEF5A
:100160008CE49FEF20C064E17FEF8EE99FEF1BC01E
:1001700061E07FEF80E090E016C064E17FEF82E60F
:1001800090E011C06CE47FEF84EB90E00CC06EE96E
:100190007FEF07C060E070E08FEF90E004C062E6A0
:1001A00070E08CEE90E011C1FF920F931F93CF93FC
:1001B000DF938B0197FF05C0919581959109F12CF3
:1001C00002C0FF24F394EC01209761F08F2D91DFA2
:1001D000F8016F9364E06A95F1F76F913197C9F771
:1001E0002197F2CFCDB7DEB7E5E048C160E070E01F
:1001F00080E090E0EAC0D4E012E080910101843018
:1002000019F41093010102C0D093010168E873E171
:1002100080E991E0C9DF84EF91E021D1C4E060ED95
:1002200077E08CE99FEFC0DF84E690E018D1C15001
:10023000B1F7E3CF883058F491E001C0990F8A9567
:10024000EAF7892FAAE2B0E0EBE2F0E031C08031BA
:1002500060F498EF980F81E001C0880F9A95EAF753
:10026000A4E2B0E0E5E2F0E023C0883160F490EF72
:10027000980F81E001C0880F9A95EAF7A7E2B0E0F5
:10028000E8E2F0E015C0803270F42FE130E0281B86
:10029000310981E001C0880F2A95EAF7A1E2B0E0B8
:1002A000E2E2F0E005C080E0A0E0B0E0E0E0F0E0F5
:1002B0006F3F19F49081982709C0662319F0908147
:1002C000982B04C02081982F9095922390839C9125
:1002D000982B9C93089583E08093B00082E08093F4
:1002E000B1001092B4001092B30060E087E1A2DF89
:1002F00060E086E19FDF60E087E09CDF60E086E011
:1003000099CF80910D01811104C081E080930D018E
:10031000E2CF0895CF93DF93EC01F3DFD7FF05C061
:10032000D195C195D10991E001C090E0CF3FD105B1
:1003300019F014F0CFEFD0E0C093B3008091B0007B
:10034000CD2B21F48F778093B0000AC08068809312
:10035000B000992311F061E001C060E087E16ADF3D
:10036000DF91CF910895CF93DF93EC01CADFD7FFE0
:1003700005C0D195C195D10991E001C090E0CF3F72
:10038000D10519F014F0CFEFD0E0C093B400809104
:10039000B000CD2B21F48F7D8093B0000AC0806225
:1003A0008093B000992311F061E001C060E086E124
:1003B00041DFDF91CF910895CF93DF93EB01AADF67
:1003C000CE01D1DFDF91CF910895F6CF08952F921E
:1003D0008F939F932FB680910A0190910B01019604
:1003E00080930A0190930B0190E080910C01891F8A
:1003F00080930C01909104019C5F90930401809183
:10040000030180519742C0F090930401809303014F
:1004100080910501909106010196809305019093CA
:10042000060190E080910701891F80930701809168
:100430000801891F809308012FBE9F918F912F90F3
:10044000189528EE33E0019748F0F9016F9364E0C6
:100450006A95F1F76F913197C9F7F5CF0895F1CF0C
:1004600008952A88398848885F846E847D848C84C6
:100470009B84AA84B984C884DF80EE80FD800C81CF
:100480001B81AA81B981CE0FD11D0FB6F894DEBFB2
:100490000FBECDBFED010895EE0FFF1F0590F49143
:0804A000E02D0994F894FFCF50
:0204A80001044D
:00000001FF
