:1000000045C0000061C000005FC000005DC000008E
:100010005BC0000059C0000057C0000055C0000080
:1000200053C0000051C000004FC0000072C4000067
:1000300084C1000049C000007AC200004FC7000020
:1000400043C0000041C000003FC000003DC00000B0
:100050003BC0000039C0000037C0000035C00000C0
:1000600033C0000031C000002FC000002DC00000D0
:100070002BC0000029C0000027C0000025C00000E0
:1000800023C0000021C000001FC0000011241FBEBB
:10009000CFEFD0E4DEBFCDBF11E0A0E0B1E0EEE1F4
:1000A000F3E100E00BBF02C007900D92AA32B10746
:1000B000D9F711E0AAE2B1E001C01D92A635B1075F
:1000C000E1F703D00C948D099BCFA3E0B0E0EAE602
:1000D000F0E0D5C78BE089838CE08A8380E18B8355
:1000E00063E0CE010196C1D366E970E080E00FD4F1
:1000F00066E970E081E00BD466E970E082E007D445
:1001000066E970E083E003D466E970E084E0FFD341
:1001100066E970E085E0FBD366E970E086E0F7D33E
:1001200066E970E087E0F3D364E175E080E0CAD36C
:1001300064E175E081E0C6D364E175E082E0C2D39A
:1001400064E175E083E0BED364E175E084E0BAD396
:1001500064E175E085E0B6D364E175E086E0B2D392
:1001600064E175E087E0AED380E29AD08823E1F3C2
:1001700068E077E080E0A6D38EE591E012D468E0F5
:1001800077E081E09FD38EE591E00BD468E077E0E3
:1001900082E098D38EE591E004D468E077E083E0D4
:1001A00091D38EE591E0FDD368E077E084E08AD3D7
:1001B0008EE591E0F6D368E077E085E083D38EE5C5
:1001C00091E0EFD368E077E086E07CD38EE591E0C4
:1001D000E8D368E077E087E075D388EE93E0E1D379
:1001E00064E175E080E06ED38EE591E0DAD364E1FE
:1001F00075E081E067D38EE591E0D3D364E175E0EB
:1002000082E060D38EE591E0CCD364E175E083E0D9
:1002100059D38EE591E0C5D364E175E084E052D313
:100220008EE591E0BED364E175E085E04BD38EE5C9
:1002300091E0B7D364E175E086E044D38EE591E0C8
:10024000B0D364E175E087E03DD38EE591E0A9D3BA
:100250008BCF87B1837D87B988B18C6288B985E0FF
:1002600090E06F9364E06A95F1F76F910197C9F799
:10027000089580915101811104C081E08093510162
:10028000E8CF0895A1E0B0E0E7E4F1E0F8C68983A3
:10029000F0DF96B19095898189232196E2E00BC722
:1002A000F1CF0895683050F421E001C0220F6A9523
:1002B000EAF7AAE2B0E0EBE2F0E030C0603158F4D7
:1002C000685021E001C0220F6A95EAF7A4E2B0E08D
:1002D000E5E2F0E023C0683158F4605121E001C04C
:1002E000220F6A95EAF7A7E2B0E0E8E2F0E016C074
:1002F000603278F42FE130E0261B310931E001C093
:10030000330F2A95EAF7232FA1E2B0E0E2E2F0E012
:1003100005C020E0A0E0B0E0E0E0F0E04081322F56
:100320003095342330833C91322B3C93DC01119681
:10033000FC93EE9312962C9308951F920F920FB692
:100340000F9211240BB60F921F932F933F934F934D
:100350005F936F937F938F939F93AF93BF93CF934D
:10036000DF93EF93FF9320912E012F5F277020934F
:100370002E0130E0809131013817E8F443E0349FDA
:10038000C0011124A0912C01B0912D01A80FB91F1B
:10039000ED91FC91119720FF05C0808112969C91F0
:1003A000892B05C0908112968C918095892380833A
:1003B00026953F5FDFCF10912E011F5F1770809150
:1003C0003001181728F0109289001092880043C05D
:1003D000212F30E0220F331FE0913C01F0913D01CD
:1003E000E20FF31F40815181A0913401B09135019A
:1003F000A20FB31F6D917C91A0913801B09139018A
:1004000061157105F1F041155105D9F0ED01C20FEB
:10041000D31F888199810097A1F04817590738F4B4
:10042000460F571F4817590780F4CA010EC09C0198
:10043000260F371F4217530740F0CA01861B970B40
:1004400004C0A20FB31F8D919C919093890080935B
:10045000880091838083C0912F011C1728F010928F
:100460008B0010928A0039C0812F90E0880F991F6D
:10047000E0913A01F0913B01E80FF91F4081518171
:10048000A0913201B0913301A80FB91F2D913C9179
:100490006091360170913701DB01A80FB91F8D9172
:1004A0009C912115310599F04817590738F4240F0C
:1004B000351F2817390758F4C90109C0BC01620F5C
:1004C000731F4617570718F0CA01821B930B9093AE
:1004D0008B0080938A009183808380912E018C17FA
:1004E00080F4E0912A01F0912B0193E0899FE00DC7
:1004F000F11D1124A081B1819C9182818095892375
:100500008C93FF91EF91DF91CF91BF91AF919F912C
:100510008F917F916F915F914F913F912F911F919B
:100520000F900BBE0F900FBE0F901F9018951F924B
:100530000F920FB60F9211240BB60F928F939F93C9
:10054000AF93BF93EF93FF9380912E0190912F0172
:10055000891778F4E0912A01F0912B0193E0899FAB
:10056000E00DF11D1124A081B1818C919281892728
:100570008C93FF91EF91BF91AF919F918F910F90CD
:100580000BBE0F900FBE0F901F90189580912C01FD
:1005900090912D01009729F031D610922D011092E3
:1005A0002C0180913C0190913D01009729F026D6C5
:1005B00010923D0110923C018091380190913901D7
:1005C000009729F01BD610923901109238018091C2
:1005D000340190913501009729F010D61092350121
:1005E0001092340180912A0190912B01009729F0FB
:1005F00005D610922B0110922A0180913A01909118
:100600003B01009729F0FAD510923B0110923A0174
:100610008091360190913701009729F0EFD5109223
:100620003701109236018091320190913301009789
:1006300029F0E4D510923301109232010895A0E020
:10064000B0E0E4E2F3E00FC5782E692EC42EB52E9B
:1006500010926F0010924A0181E080930A0110927B
:1006600049011092480110928100A62E83E086175E
:1006700010F4E3E0AE2EA092310181E00A2C01C01B
:10068000880F0A94EAF7809330015D98559A82E8C2
:1006900080938000D22E28E02D1510F478E0D72E1C
:1006A000D0922F0173DF23E0A29EC00111240ED54A
:1006B0004C0190932D0180932C01C0913001D0E02A
:1006C000CC0FDD1FCE0102D57C0190933D018093BC
:1006D0003C01CE01FBD48C01909339018093380109
:1006E000CE01F4D4909335018093340181149104A8
:1006F00019F44CDF81E0B5C0E114F104D1F3011528
:100700001105B9F3892BA9F3D11006C0F72CC72D19
:10071000D62D00E010E031C023E0D29EC0011124AC
:10072000D5D44C0190932B0180932A01C0912F01C5
:10073000D0E0CC0FDD1FCE01C9D47C0190933B01EA
:1007400080933A01CE01C2D48C01909337018093FB
:100750003601CE01BBD490933301809332018114D2
:10076000910439F2E114F10409F4C3CF0115110524
:1007700009F4BFCF892B51F6BCCF8C2F8F198A1566
:1007800058F4699180912C0190912D01800F911F57
:1007900089DD0D5F1F4FF1CF90913001E0913C0159
:1007A000F0913D01A0913801B0913901C09134011F
:1007B000D091350180E0891741F0119211921D927C
:1007C0001D92199219928F5FF6CFAC2CCC2DDB2D98
:1007D00000E010E0E12CF12C8C2F8A198D1530F5FA
:1007E000699180912A0190912B018E0D9F1D5ADDF8
:1007F000E0913A01F0913B01E00FF11F118210826C
:10080000E0913601F0913701E00FF11F1182108263
:10081000E0913201F0913301E00FF11F118210825B
:1008200083E0E80EF11C0E5F1F4FD6CF10922E0111
:1008300081E18093810088EA91E69093870080931C
:1008400086008FEF86BB80916F00806280936F007F
:10085000DD2029F080916F00846080936F00789490
:1008600080E0CDB7DEB7EEE01AC420E040E050E013
:10087000E6CE90913001891720F590916F009F7D11
:1008800090936F0087702091380190913901E22F89
:10089000F92FE80FF11DE80FF11DCB01633929E0B5
:1008A000720710F082E999E04AE0489F9001499F61
:1008B000300D11243183208380916F0080628093FA
:1008C0006F000895D6CF0895909130018917F0F404
:1008D00090916F009F7D90936F00877020913401FD
:1008E00090913501E22FF92FE80FF11DE80FF11D6E
:1008F000CB01693A21E6720710F088EA91E691830C
:10090000808380916F00806280936F000895DCCFB8
:1009100008952F928F939F932FB6809145019091C8
:1009200046010196809345019093460190E08091A5
:100930004701891F8093470190913F019C5F9093ED
:100940003F0180913E0180519742C0F090933F015A
:1009500080933E01809140019091410101968093E6
:1009600040019093410190E080914201891F809362
:10097000420180914301891F809343012FBE9F91C3
:100980008F912F90189528EE33E0019748F0F901E8
:100990006F9364E06A95F1F76F913197C9F7F5CFDE
:1009A0000895F1CF089590914D01E0914801F091A3
:1009B0004901992311F0849101C080812FEB280F08
:1009C0002A3110F4805E0895803249F49F012F5F30
:1009D0003F4F3093490120934801EF2B31F70895A1
:1009E0001F93CF93DF93DFDFC0E0D0E01AE090EDFC
:1009F000980F9A30B0F49E01129FE001139FD00D22
:100A00001124C80FD11D87FDDA95E0978091480128
:100A10009091490101969093490180934801C3DF69
:100A2000E6CFCE01DF91CF911F91089510926F0014
:100A300083E28093800081E18093810010928200A4
:100A400080E197E2909389008093880010928B0058
:100A500010928A00549A789408958F929F92AF9240
:100A6000BF92DF92EF92FF920F931F93CF93DF938A
:100A70005C018B01D42E80914A01811104C081E078
:100A800080934A01D3DF10920A01B7FE05C0E894B3
:100A9000B7F82AE0F22E02C0FF24F394E090810020
:100AA0002E2D287FE22E48ECF49EC00111248A15D9
:100AB0009B05D8F4E50151E1A51657E2B50610F003
:100AC000C0E1D7E2BE017695679580E090E060587E
:100AD000794687469F4F4E01A12CB12CA501940168
:100AE00080D259018E2D816023C0C8E2FC9EC02DAA
:100AF0001124D0E0CA15DB0508F4E501BE017695A6
:100B000067959E0140E050E08AE0F81207C080E05F
:100B100090E0605E734481449F4F06C080E090E0A7
:100B200060537D4E8C4E9F4F5CD259018E2D82605A
:100B3000882E2AE0F21206C0CE0105966AE070E027
:100B40003CD2EB01C83E43E0D40749F09801DE01F6
:100B500019D228EE33E040E050E065D289011092CE
:100B60006F0080928100B0928900A092880020914D
:100B70008800309189004D2D403108F04FE080E130
:100B800090E0841B9109A90102C0569547958A956A
:100B9000E2F750938B0040938A001093500100932A
:100BA0004F0186B38FEF86BB81E080936F00DF91AA
:100BB000CF911F910F91FF90EF90DF90BF90AF907A
:100BC0009F908F900895CF93DF93EB018F3F11F0AB
:100BD000411105C040E0BE0188EE93E041C0813183
:100BE00030F050EF580F503618F05FE501C050E07C
:100BF000852F6CE0D6D1682F74EF76039001112415
:100C0000250F311D2C30310540F4F901EE0FFF1F87
:100C1000EF5EFE4F2081318102C020E030E087305E
:100C200081F0082E02C0220F331F0A94E2F78230AF
:100C300028F0C90105966AE070E00CC0C90190581F
:100C40000BC0C90136E0880F991F3A95E1F702966B
:100C500065E070E0B2D1CB01403108F04FE0BE0159
:100C6000FCDEDF91CF910895A2E0B0E0E9E3F6E089
:100C7000F8C19090090180914C01882321F0609186
:100C80004B01611117C077247394B0ECAB2EBDE516
:100C9000BB2E1AE0612E04E0802E80EDC82E87E086
:100CA000D82E94E0E92EF12C04EF11E02FE0422E33
:100CB000512C14C070E040E088EE93E0CEDE10923C
:100CC0004B0109C18636CCF5813609F4A1C074F513
:100CD0008C3309F45CC08E3379F4939464DE2091F4
:100CE0004801309149012F5F3F4F309349012093D4
:100CF0004801853639F74FC0813209F084C08092AF
:100D00000901D0920801C0920701F0920601E09219
:100D100005011093040100930301509202014092D7
:100D2000010110924C01A4E09A2ED8CF833689F1AC
:100D30000CF471C010E082E070C08D36A9F18CF423
:100D4000873679F15CF18C3609F05DC049DEBC0173
:100D5000909306018093050180910701909108010D
:100D60004CC08237B1F144F48F3609F04CC038DE04
:100D7000982E80930901B2CF843771F1863709F03C
:100D800042C02EDE9093020180930101A7CF9A9476
:100D9000A5CF10E01FC010E084E03FC010E085E068
:100DA0003CC010E087E039C0FEDD8C3619F41092AB
:100DB0004C0104C070924C0110924B0120914801EB
:100DC000309149012F5F3F4F3093490120934801F3
:100DD00085CF11E080E021C003DEBC01C501EDD06C
:100DE000669EC001679E900D112490930801809328
:100DF00007016091050170910601DFD07093040135
:100E0000609303016BCF109249011092480163C0B7
:100E100010E089E002C010E08BE0082F9CE0999E72
:100E2000000D1124C0DD982F977F933261F420913B
:100E30004801309149012F5F3F4F30934901209382
:100E400048010F5FEFCF8D3269F420914801309156
:100E500049012F5F3F4F30934901209348010150D2
:100E6000A2DDF1CF609103017091040181538830BC
:100E700040F4E0900701F0900801B2DDBC01C70129
:100E80009CD07B01F694E79469837A838CDD698139
:100E90007A818E3269F420914801309149012F5FA7
:100EA0003F4F30934901209348016E0D7F1DEACFDB
:100EB00080914C01882339F09B013695279520932A
:100EC0004B01621B710940910101112311F08FEF59
:100ED00001C0802F78DE2296E0E1DFC01F920F92E2
:100EE0000FB60F9211240BB60F922F933F934F938F
:100EF0005F936F937F938F939F93AF93BF93EF9382
:100F0000FF9380914F01909150019C012150310934
:100F10003093500120934F01892B09F510926F00F7
:100F2000789480918100887F81608093810080E146
:100F300097E2909389008093880010928B00109222
:100F40008A0081E080930A018091480190914901D3
:100F5000892B29F080914E01811101C085DEFF911E
:100F6000EF91BF91AF919F918F917F916F915F9121
:100F70004F913F912F910F900BBE0F900FBE0F908E
:100F80001F901895A29FB001B39FC001A39F700D41
:100F9000811D1124911DB29F700D811D1124911D81
:100FA0000895991B79E004C0991F961708F0961BC5
:100FB000881F7A95C9F780950895AA1BBB1B51E13C
:100FC00007C0AA1FBB1FA617B70710F0A61BB70BB9
:100FD000881F991F5A95A9F780959095BC01CD015E
:100FE0000895A1E21A2EAA1BBB1BFD010DC0AA1F6A
:100FF000BB1FEE1FFF1FA217B307E407F50720F082
:10100000A21BB30BE40BF50B661F771F881F991FFC
:101010001A9469F760957095809590959B01AC0145
:10102000BD01CF010895052E97FB16F400940FD053
:1010300057FD05D0D6DF07FC02D046F408C0509516
:101040004095309521953F4F4F4F5F4F08959095B4
:101050008095709561957F4F8F4F9F4F08952F9288
:101060003F924F925F926F927F928F929F92AF9238
:10107000BF92CF92DF92EF92FF920F931F93CF9385
:10108000DF93CDB7DEB7CA1BDB0B0FB6F894DEBF1C
:101090000FBECDBF09942A88398848885F846E8442
:1010A0007D848C849B84AA84B984C884DF80EE808C
:1010B000FD800C811B81AA81B981CE0FD11D0FB695
:1010C000F894DEBF0FBECDBFED010895CF93DF933F
:1010D0008230910510F482E090E0E0915401F091AB
:1010E000550120E030E0A0E0B0E0309739F14081D8
:1010F000518148175907B8F04817590771F4828190
:101100009381109729F013969C938E9312972CC07D
:10111000909355018093540127C02115310531F07A
:101120004217530718F0A901DB0101C0EF019A0132
:10113000BD01DF010280F381E02DD7CF21153105FC
:10114000F9F0281B390B2430310580F48A819B810A
:101150006115710521F0FB019383828304C0909394
:10116000550180935401FE01329644C0FE01E20F06
:10117000F31F8193919322503109398328833AC018
:101180002091520130915301232B41F420910D0104
:1011900030910E01309353012093520120910B01A5
:1011A00030910C012115310541F42DB73EB7409126
:1011B0000F0150911001241B350BE0915201F09169
:1011C0005301E217F307A0F42E1B3F0B2817390732
:1011D00078F0AC014E5F5F4F2417350748F04E0F93
:1011E0005F1F50935301409352018193919302C02A
:1011F000E0E0F0E0CF01DF91CF910895CF93DF934E
:10120000009709F487C0FC01329713821282C091C3
:101210005401D0915501209781F420813181280F0C
:10122000391F80915201909153018217930779F5EC
:10123000F0935301E09352016DC0DE0120E030E0F5
:10124000AE17BF0750F412964D915C9113979D0114
:101250004115510509F1DA01F3CFB383A28340812F
:101260005181840F951F8A179B0771F48D919C9172
:101270001197840F951F02969183808312968D910A
:101280009C911397938382832115310529F4F09360
:101290005501E09354013EC0D9011396FC93EE939F
:1012A00012974D915D91A40FB51FEA17FB0779F4D2
:1012B00080819181840F951F0296D90111969C938C
:1012C0008E938281938113969C938E931297E0E084
:1012D000F0E08A819B81009719F0FE01EC01F9CFC3
:1012E000CE01029628813981820F931F20915201ED
:1012F000309153012817390769F4309729F4109277
:1013000055011092540102C013821282D0935301EE
:0E131000C0935201DF91CF910895F894FFCF62
:10131E00010F00F4010400D0070401000056012063
:10132E00009C01B501CF01EA0107022602470269BE
:0A133E00028E02B502DE020A03006F
:00000001FF
