:100000009CC10000B6C10000B4C10000B2C1000034
:10001000B0C10000AEC10000ACC10000AAC1000028
:10002000A8C100000C941C13A4C10000A2C10000D0
:10003000A0C100000C94230D9CC100009AC10000D7
:1000400098C1000096C100000C9448120C94F8125C
:1000500090C100008EC100008CC100008AC1000068
:1000600088C1000086C10000202020202020200719
:1000700020467567756520696E2044204D696E6F56
:1000800072202D206279204A2E532E20426163680F
:100090002007202020202020200021205431323031
:1000A0004F354C313661676166616561206461631B
:1000B0002B61646165612066613C61613C626163E2
:1000C00023612064616323616461656120664F364A
:1000D0006463643C622D643C61643C6720643C66FC
:1000E0002B643C67643C61643C622D20643C646426
:1000F0003C65643C662B643C6720643C662B643C36
:1001000067643C61644C384D533C622D643C622D05
:1001100064204D4C652D3C67652D3C67204D536335
:100120003C61633C61204D4C643C66643C66204FFE
:10013000354D53622D67622D674D4C3E6323653EFE
:10014000632365204D532061666166204D4C206716
:100150006323676323204D532066646664204D4CFF
:1001600020653C622D653C622D4F364C3136726104
:1001700067616661656120646163236164616561D3
:100180002066613C61613C6261632361206461635C
:100190002361646165612066616561646163613CDE
:1001A000622D61636164673C622D672065676467E7
:1001B00063673C622D67203C61673C622D67636624
:1001C0003C616620646663663C622D663C61663C09
:1001D00067663C61663C622D653C6765206323650C
:1001E0003C622D653C61653C6765203C66653C670B
:1001F000653C61643C66644F35653E65653E656699
:100200003E64663E6420622D3E6323622D3E63237E
:10021000613E64663E6420653E65653E65663E649B
:10022000663E64653E643E63233E64623E643E63B4
:100230002362203E63236167616567666520664FC0
:100240003664632364666463233C62206323340062
:1002500000020105091E080404060505041C1C0013
:10026000000000000000001F1F1F1F1F1F1F21761E
:10027000383E3E633332002167333200216533322A
:100280000021633332003E3E6333323E6733320037
:100290003E6733323E3E633332000642007F4120E8
:1002A000A54220437E0054696D6572005472696DE9
:1002B000706F74004D75736963004D6F746F727366
:1002C0000053656E736F7273004C4344004C454499
:1002D0007300426174746572790020204D656E75FB
:1002E0000020204D61696E002020796F752100206B
:1002F0005468616E6B20002D74727920697421003E
:10030000507265737320420073656C6563742E00D0
:10031000557365204220746F0050726F6772616D73
:100320000044656D6F0033F720526F626F740020D8
:10033000506F6C6F6C750000F71311241FBECFEF68
:10034000D4E0DEBFCDBF11E0A0E0B1E0E6E1F6E32E
:1003500002C005900D92A03AB107D9F713E0A0EAC8
:10036000B1E001C01D92A831B107E1F7F6D70C94B6
:10037000FF1A46CEDC011296ED91FC91139716966A
:100380008C9190816F3F11F4982703C0662319F078
:10039000982B9083089580958923808308950E94E7
:1003A000780ABC01882777FD8095982F0E94530F0B
:1003B0008BE591E00E94F30E84E690E00C946413C8
:1003C000AAE0B0E0E6EEF1E00C94A51980E20E940C
:1003D0007E10882311F060E001C061E0CE0101963B
:1003E0000E94B3138E010F5F1F4F7E018BE0E80E5A
:1003F000F11C89ECC82ED12CF801819191918F01CB
:10040000B6010E9436196B5D7E4FFB0180810E9410
:10041000890E0E151F0581F780E20E947E10882349
:1004200019F08EE591E002C082E691E00E94F30EA1
:1004300084E690E00E9464132A96E8E00C94C119C7
:10044000CF93DF9382E00E947E102091A201309131
:10045000A3018823E1F0232B81F488EC90E00E9433
:10046000641382E00E947E10811107C081E09091A8
:10047000BB01911180E08093BB018091A20190911A
:10048000A3010A969093A3018093A20106C0245170
:1004900031093093A3012093A20180E20E947E10D3
:1004A0002091A0013091A1018823E1F0232B81F458
:1004B00088EC90E00E94641380E20E947E1081111B
:1004C00007C081E09091BA01911180E08093BA0158
:1004D0008091A0019091A1010A969093A10180932F
:1004E000A00106C0245131093093A1012093A0013D
:1004F0008091A2019091A30197FF04C01092A301E3
:100500001092A2018091A2019091A3018F3F9105C9
:1005100039F034F08FEF90E09093A3018093A20123
:100520008091A0019091A10197FF04C01092A101B8
:100530001092A0018091A0019091A1018F3F91059F
:1005400039F034F08FEF90E09093A1018093A001F7
:100550008091A2019091A3012AE130E0B9010E94AB
:100560004A196B5D7E4FFB01D0818091A001909173
:10057000A101B9010E944A196B5D7E4FFB01C08148
:100580008D2F0E94890E8091BB01882311F081E696
:1005900001C081E40E94890E8D2F0E94890E60E0C7
:1005A00085E00E94860F8C2F0E94890E8091BA01EF
:1005B000882311F083E601C083E40E94890E8C2F0A
:1005C0000E94890E2091A0013091A1018091BA0171
:1005D000882319F08FEF9FEF02C081E090E0289F01
:1005E000B001299F700D389F700D11242091A20138
:1005F0003091A3018091BB01882319F08FEF9FEF09
:1006000002C081E090E0AC01249FC001259F900DC5
:10061000349F900D11240E94411082E390E00E94CB
:100620006413DF91CF9108950F931F930E94991344
:100630000091B6011091B7012091B8013091B90134
:10064000601B710B820B930B6B3F7105810591054C
:1006500050F100E010E08091B501F801E80FF11DC4
:1006600087FDFA95E859FF4F84910E94890E0F5F2C
:100670001F4F0830110579F70E9499136093B60156
:100680007093B7018093B8019093B9018091B5013F
:100690008F5F8093B501992787FD90950896C29743
:1006A00010F01092B5010E94820D811104C08AE9F8
:1006B00090E00E949D0D84E690E00E9464131F91DB
:1006C0000F9108954F925F926F927F928F929F92B7
:1006D000AF92BF92CF92DF92EF92FF920E94991356
:1006E000C090B101D090B201E090B301F090B4019C
:1006F000CD28CE28CF2811F1C090A901D090AA0111
:10070000E090AB01F090AC019B01AC012C193D09CC
:100710004E095F098090AD019090AE01A090AF01AD
:10072000B090B001820E931EA41EB51E8092AD0142
:100730009092AE01A092AF01B092B0016093A90176
:100740007093AA018093AB019093AC0182E00E9468
:100750007E108823F9F08091A80181111BC081E0EF
:100760008093A8011092B1011092B2011092B301CE
:100770001092B4011092AD011092AE011092AF012F
:100780001092B0010E94820D811104C081E892E0B4
:100790000E949D0D82E00E947E10811102C0109285
:1007A000A80180E20E947E10882331F18091A70188
:1007B000811122C081E08093A70181E090E0A0E058
:1007C000B0E04091B1015091B2016091B3017091DC
:1007D000B401452B462B472B19F080E090E0DC015B
:1007E0008093B1019093B201A093B301B093B4018F
:1007F00087E792E00E949D0D80E20E947E108111A9
:1008000002C01092A7016091AD017091AE0180917C
:10081000AF019091B00120EC37E249E050E00E9436
:100820007F199AE0C92ED12CE12CF12CCA01B90113
:10083000A70196010E947F190E94530F6091AD019C
:100840007091AE018091AF019091B00120E63AEE37
:1008500040E050E00E947F19CA01B901A70196014A
:100860000E947F190E94530F8AE30E94890E6091B3
:10087000AD017091AE018091AF019091B00128EE71
:10088000422E23E0522E612C712CA30192010E9472
:100890007F196CE3862E912CA12CB12CCA01B901D1
:1008A000A50194010E947F19A70196010E947F195A
:1008B000CA01B9010E94530F6091AD017091AE0160
:1008C0008091AF019091B001A30192010E947F1924
:1008D000CA01B901A50194010E947F19A7019601DF
:1008E0000E947F19B62E0E94530F8EE20E94890E3D
:1008F0006091AD017091AE018091AF019091B00116
:1009000024E630E040E050E00E947F19CA01B901BE
:10091000A70196010E947F190E94530F6091AD01BB
:100920007091AE018091AF019091B001A701960145
:100930000E947F19CA01B901A70196010E947F197F
:100940000E94530F8091A601B816A1F08091AD01CD
:100950009091AE01A091AF01B091B001892B8A2B8B
:100960008B2B41F00E94820D811104C08EE692E033
:100970000E949D0DB092A601FF90EF90DF90CF9066
:10098000BF90AF909F908F907F906F905F904F90AF
:100990000895A7E0B0E0EFECF4E00C94AB1929E285
:1009A00030E03A8329832BE230E03C832B832AE238
:1009B00030E03E832D8392E09F83682FCE01019625
:1009C000D9DCED81FE8180819F81892B80832796F0
:1009D000E2E00C94C719A7E0B0E0E1EFF4E00C947A
:1009E000AB1929E230E03A8329832BE230E03C83E3
:1009F0002B832AE230E03E832D8390E89F83682F8B
:100A0000CE010196B7DCED81FE8180819F81892B2B
:100A100080832796E2E00C94C7190F931F93CF931E
:100A2000DF930E949913062F80917C008F7D809325
:100A30007C0012D5BC0180E090E00E94530F86E656
:100A400091E00E94F30E0E949913162F101B14368A
:100A5000B4F402D5EC014FE068EC70E060D62AE017
:100A60001202C0011124C817D90724F480E091DFD5
:100A700081E003C081E08DDF80E0ADDFE4CFDF9176
:100A8000CF911F910F910895809100018F5F809306
:100A90000001089560E080E692E00E94870E61E028
:100AA00081E692E00E94870E62E082E692E00E9478
:100AB000870E63E084E692E00E94870E64E085E69C
:100AC00092E00E94870E65E086E692E00E94870E23
:100AD00066E080E592E00E94870E67E088E592E09C
:100AE0000E94870E0C94E60ECF93DF93C9E1D0E00D
:100AF0008AE090E00E94641380E10E947E108111E0
:100B000005C021972097A1F780E001C081E0DF9127
:100B1000CF91089581E791E00E948F0D8AE691E0E0
:100B20000E94F30E81E035DFDFDF811116C031DF77
:100B3000DBDF811112C080E791E0F1D760E080E057
:100B40000E94860F85E791E00E94F30E81E043DF6B
:100B5000CBDF811102C03FDFC7CF0895CF93DF9372
:100B6000C1ECD0E08881877F8883D4DF888188606A
:100B70008883DF91CF910895CF92DF92EF92FF9219
:100B8000CF93DF9300D0CDB7DEB77B0189839A8303
:100B90000E94E60E89819A810E94020F61E080E046
:100BA0000E94860FC7010E94020F0E9499136B01D9
:100BB0007C010E9499136C197D098E099F09683E7A
:100BC00073408105910510F4B6D3F3CF0F900F90C9
:100BD000DF91CF91FF90EF90DF90CF900895CF936A
:100BE00082E30E942211C82FA6D3CC23C9F3C1FFF0
:100BF00003C081E892E009C0C4FF03C08CE792E023
:100C000004C0C5FF03C087E792E097D78C2F0E94EE
:100C1000C511811102C08FD3F9CF8C2FCF910895C8
:100C2000CF92DF92EF92FF9280ED97E00E94F51352
:100C300031DF86D30E9499136B017C010E949913C6
:100C40006C197D098E099F09643F714081059105EA
:100C500010F471D3F3CF80E992E06FD766E273E0CE
:100C60008FE293E089DF69E173E081E293E084DF62
:100C700068E073E080E193E07FDF0E94E60E80E0B1
:100C800093E00E94020F61E080E00E94860F87EFF0
:100C900092E00E94020FA3DF84FFFDCF86E892E07E
:100CA0004CD768EE72E08FEE92E066DFFF90EF9037
:100CB000DF90CF9008951F93CF93DF936AED72E09A
:100CC00081EE92E059DFC6E0D0E00E94E60E61E0DE
:100CD00080E00E94860F8DE992E00E94020F60E0A2
:100CE00080E00E94860FE091A401F091A501EE0F33
:100CF000FF1FEF5FFE4F808191810E94020F81E014
:100D00000E948E0F18D382E30E942211182F88238D
:100D1000C9F381FF09C081E892E00FD78091A40157
:100D20009091A50101974EC084FF42C00E94920F8E
:100D30000E94E60E8CE792E000D7812F0E946C1093
:100D400080E10E947E10811119C061E080E00E9464
:100D5000860F8AE992E00E94020F60E080E00E9424
:100D6000860FE091A401F091A501EE0FFF1FE05D59
:100D7000FE4F0190F081E02D0995E2CF60E070E038
:100D800080E090E00E944110F4D61092A3011092EE
:100D9000A2011092A1011092A00180E0FADD80E092
:100DA0001ADE8CE792E0C9D6DF91CF911F910895AA
:100DB00085FF0CC087E792E0C0D68091A401909196
:100DC000A50101969093A5018093A4018091A401AF
:100DD0009091A50197FF04C0D093A501C093A401F1
:100DE0008091A4019091A50107970CF46ECF109209
:100DF000A5011092A40169CF80910F018F5F8093AC
:100E00000F0108958091C3019091C401892B09F4C9
:100E100054C08091C101882321F08091BF018111CC
:100E200005C060E070E080E090E045C061E08AE0ED
:100E300093E00E94C4139C01205D37408091BD0166
:100E40009091BE01F901E81BF90B3093BE0120938C
:100E5000BD014091C201429FC001439F900D1124EA
:100E60006091C10170E00E944A199B014091C0014C
:100E70004E9FC0014F9F900D11246091BF0170E003
:100E80000E944A198091100190E0260F371F8217A7
:100E900093070CF49C0144275527481B590B241732
:100EA00035070CF49A01BC0137FF03C0820F931F72
:100EB00002C0621B730B0C94411008950E94C7116D
:100EC0009091BC01891309C06CD60E94C711909102
:100ED000BC018913F3CF96DFF1CFE92FF0E0EE5B91
:100EE000FD4F80819F5F943618F49093BC01089564
:100EF0001092BC0108958091BC01815008F483E6F2
:100F00008093BC010895881F8827881F08958095C5
:100F1000881F8827881F0895CF93C82F87FD02C098
:100F200080E00EC08BE791E0FAD550D78FE791E0D3
:100F30005AD761E080E0EAD78C2FC7D7DCDF81E0A9
:100F4000CF91089566E088E891E00E94F61260E093
:100F500070E080E090E00E9441101092C401109275
:100F6000C3010895882361F08091C3019091C40169
:100F7000892B59F461E08AE093E00E94BF1305C019
:100F800061E08AE093E00E94B3136AE08AE093E0B4
:100F90000C94F61280E0E6CF81E0E4CFACE0B0E064
:100FA000E4EDF7E00C94AB198091C3019091C4017A
:100FB000892B39F08091BD019091BE018053984FEB
:100FC00005C061E0CE0101960E94C4139C878B8707
:100FD00062E0CE010B960E94F6122C96E2E00C9491
:100FE000C719A2E0B0E0E7EFF7E00C94AB1934D2F8
:100FF0009A83898362E0CE0101960E94F6122296BE
:10100000E2E00C94C719A2E0B0E0E9E0F8E00C944B
:10101000AB196ED29A83898362E0CE0101960E9459
:10102000F6122296E2E00C94C719CF9347DFC82F3F
:1010300073DF811109C0CF3721F08C2F880F990BF6
:1010400002C08FEF90E0F0D7CF910895CF9336DFB5
:10105000C82F62DF81110AC0CF3721F08C2F880F93
:10106000990B02C08FEF90E00E943610CF91089547
:10107000CF9324DFC82F50DF81110AC0CF3729F06A
:101080002EEFC202C001112402C081E09FEFCCD735
:10109000CF910895CF9312DFC82F3EDF81110AC090
:1010A000CF3729F02EEFC202C001112402C081E027
:1010B0009FEFDCD7CF910895FF920F931F93CF93AB
:1010C000DF93FCDEF82E28DF811114C006EA12E05F
:1010D000E801EC2FE01BEF1530F4F0DE89931CDF04
:1010E0008823B9F307C0F0E0EA55FD4F108286EA85
:1010F00092E015D5CDB7DEB7E5E00C94C41966C60D
:101100001F93CF93DF93DADED82F06DF81110CC057
:10111000C0E0CD1749F0D2DE182FFEDE811104C0E9
:10112000812FF7D5CF5FF5CFDF91CF911F91089534
:10113000A1E0B0E0EEE9F8E00C94AA19BFDE182FA8
:10114000EBDE811109C0BADE682F6983E5DE6981B3
:10115000811102C0812FDAD62196E3E00C94C619E2
:101160000E94B11364EC7FEF8CE390E08AD70E9479
:1011700099136A3F71058105910520F481E00E9471
:10118000B813F5CF6CE370E084EC9FEF7AD70E9440
:1011900099136E3E72408105910520F481E00E9412
:1011A000B813F5CF64EC7FEF8CE390E06AD70E9430
:1011B0009913683E73408105910520F481E00E94F7
:1011C000B813F5CF60E070E080E090E05AD761E0BE
:1011D0008DE791E00C94F612A5E0B0E0E2EFF8E0C4
:1011E0000C94A7198E010F5F1F4F7E0186E0E80E59
:1011F000F11C64DEF80181938F018EDE81111DC028
:101200000E151F05B1F789818F3711F0880F01C0C6
:101210008FEF809310018A818093C2018B8180932C
:10122000C1018C818093C0018D818093BF0181E0D9
:1012300090E09093C4018093C3012596E6E00C945E
:10124000C31960E070E080E090E01BD71092C40109
:101250001092C301089581E0ACD430DEC82F873BE3
:1012600009F44CC014F5813B09F43CC07CF4863889
:10127000B9F12CF4813809F051C064DEEECF873823
:10128000B1F1803B09F04AC0ACDEE7CF843B61F1AD
:101290002CF4833B09F042C00FDFDFCF853B59F1CF
:1012A000863B09F03BC07ADED8CF8C3B79F14CF419
:1012B000893B41F12CF18A3B39F18B3B79F58CDF8D
:1012C000CCCF853C39F134F4813C11F1823C31F5CD
:1012D000CFDEC3CF863C01F1882309F4BECF1EC008
:1012E00059DEBBCF90DEB9CF81E00E94B81381E018
:1012F00090E052DEB2CF0E94BC13AFCF67D5ADCF26
:10130000FFDEABCF15DFA9CF2BDFA7CF9ADFA5CFAD
:101310008CDEA3CF9BDEA1CFBDDE9FCF57D58FE85C
:1013200091E061D561E080E0F1D58C2FCED587E9E1
:1013300091E0F5D392CF0E94C71181118CCF08950F
:101340005098589A60E072EC81E090E00E949A1206
:1013500064E682E492E00C94461262DCACDCFECFE0
:10136000ECE7F0E080818F7D80830895811101C0DA
:10137000F7CF80917C00806280937C0008958091FB
:101380007C0085FB882780F90895F9DF882321F008
:101390008091790090E00895809178009091790093
:1013A00008958032A0F497E890937A0090917C00A1
:1013B000662311F0906C02C09F779064907E982B0A
:1013C00090937C0080917A00806480937A000895E5
:1013D000A0E0B0E0EEEEF9E00C94A519EB0160E0BE
:1013E000E0DF80917A0086FDFCCF8E01C12CD12CEC
:1013F000760180917A00806480937A0080917A00EF
:1014000086FDFCCFC2DFC80ED91EE11CF11C0150C5
:1014100011090115110569F7CE0196958795C0341C
:10142000D10538F48C0D9D1DBE010E943619CB01EB
:101430000EC0A7019601280F391F411D511DCA0179
:10144000B9019E0140E050E00E945D19C901CDB78D
:10145000DEB7E8E00C94C11964E170E087E0B8CF32
:10146000CF92DF92EF92FF92A0911101B091120101
:101470009C010E940B196B017C0181DF882359F0CC
:10148000C701B60161587F4F8F4F9F4F2FEF30E05C
:1014900040E050E00AC0C701B60161507E4F8F4F57
:1014A0009F4F2FEF33E040E050E00E945D19C901EB
:1014B000FF90EF90DF90CF9008958ADFD1CF1F93F8
:1014C000CF93DF935CDF182F4BDF6AE070E086E09C
:1014D000F4DFEC01812F4ADFCE01880F991F8C0FBA
:1014E0009D1F019696958795DF91CF911F91089545
:1014F000E6CF08959091CA01E091C501F091C6012F
:10150000992311F0849101C080812FEB280F2A319B
:1015100010F4805E0895803249F49F012F5F3F4FA1
:101520003093C6012093C501EF2B31F708951F9327
:10153000CF93DF93DFDFC0E0D0E01AE090ED980FAB
:101540009A30B0F49E01129FE001139FD00D112438
:10155000C80FD11D87FDDA95E0978091C501909164
:10156000C60101969093C6018093C501C3DFE6CF03
:10157000CE01DF91CF911F91089510926F0083E209
:101580008093800081E1809381001092820080E14D
:1015900097E2909389008093880010928B001092BC
:1015A0008A00229A789408958F929F92AF92BF9268
:1015B000DF92EF92FF920F931F93CF93DF935C0123
:1015C0008B01D42E8091C701811104C081E08093EA
:1015D000C701D3DF10921C01B7FE05C0E894B7F82D
:1015E0002AE0F22E02C0FF24F394E09081002E2D19
:1015F000287FE22E48ECF49EC00111248A159B0539
:10160000E0F4E50151E1A51657E2B50610F0C0E19E
:10161000D7E2BE017695679580E090E06058794604
:1016200087469F4F4E01A12CB12CA50194010E9429
:101630005D1959018E2D816024C0C8E2FC9EC02D29
:101640001124D0E0CA15DB0508F4E501BE0176954A
:1016500067959E0140E050E08AE0F81207C080E004
:1016600090E0605E734481449F4F06C080E090E04C
:1016700060537D4E8C4E9F4F0E945D1959018E2DF7
:101680008260882E2AE0F21207C0CE0105966AE039
:1016900070E00E943619EB01C83E43E0D40759F0D0
:1016A0009801DE010E940B1928EE33E040E050E083
:1016B0000E947F19890110926F0080928100B09280
:1016C0008900A092880020918800309189004D2DDA
:1016D000403108F04FE080E190E0841B9109A901BE
:1016E00002C0569547958A95E2F750938B00409338
:1016F0008A001093CD010093CC0186B38FEF86BB97
:1017000081E080936F00DF91CF911F910F91FF9047
:10171000EF90DF90BF90AF909F908F90089544CF4F
:101720000895CF93DF93EB018F3F11F0411105C076
:1017300040E0BE0188EE93E043C0813130F050EFCD
:10174000580F503618F05FE501C050E0852F6CE06F
:101750000E942A19682F74EF760390011124250F37
:10176000311D2C30310540F4F901EE0FFF1FE25C12
:10177000FE4F2081318102C020E030E0873081F0CF
:10178000082E02C0220F331F0A94E2F7823028F09D
:10179000C90105966AE070E00CC0C90190580CC000
:1017A000C90136E0880F991F3A95E1F7029665E086
:1017B00070E00E943619CB01403108F04FE0BE01C5
:1017C000F3DEDF91CF910895A2E0B0E0EAEEFBE016
:1017D0000C949D1990901B018091C901882321F0E0
:1017E0006091C801611117C077247394B0ECAB2EDF
:1017F000BDE5BB2E1AE0612E04E0802E80EDC82EE0
:1018000087E0D82E94E0E92EF12C04EF11E02FE0D0
:10181000422E512C14C070E040E088EE93E0C4DE0C
:101820001092C8010CC18636CCF5813609F4A3C0EC
:1018300074F58C3309F45CC08E3379F493945ADEDA
:101840002091C5013091C6012F5F3F4F3093C601F3
:101850002093C501853639F74FC0813209F086C023
:1018600080921B01D0921A01C0921901F0921801C6
:10187000E092170110931601009315015092140184
:10188000409213011092C901A4E09A2ED8CF83365A
:1018900089F10CF473C010E082E072C08D36A9F1BA
:1018A0008CF4873679F15CF18C3609F05FC03FDE4D
:1018B000BC019093180180931701809119019091B8
:1018C0001A014DC08237B1F144F48F3609F04EC091
:1018D0002EDE982E80931B01B2CF843771F18637AC
:1018E00009F044C024DE9093140180931301A7CF24
:1018F0009A94A5CF10E01FC010E084E041C010E032
:1019000085E03EC010E087E03BC0F4DD8C3619F482
:101910001092C90104C07092C9011092C8012091AF
:10192000C5013091C6012F5F3F4F3093C601209310
:10193000C50185CF11E080E023C0F9DDBC01C50100
:101940000E943619669EC001679E900D11249093E7
:101950001A018093190160911701709118010E947A
:101960003619709316016093150169CF1092C60164
:101970001092C50164C010E089E002C010E08BE065
:10198000082F9CE0999E000D1124B4DD982F977FBD
:10199000933261F42091C5013091C6012F5F3F4F12
:1019A0003093C6012093C5010F5FEFCF8D3269F4EC
:1019B0002091C5013091C6012F5F3F4F3093C60182
:1019C0002093C501015096DDF1CF60911501709112
:1019D00016018153883048F4E0901901F0901A0103
:1019E000A6DDBC01C7010E9436197B01F694E7947D
:1019F00069837A837FDD69817A818E3269F42091EF
:101A0000C5013091C6012F5F3F4F3093C60120932F
:101A1000C5016E0D7F1DEACF8091C901882339F081
:101A20009B01369527952093C801621B710940914F
:101A30001301112311F08FEF01C0802F72DE229667
:101A4000E0E10C94B9191F920F920FB60F92112476
:101A50002F933F934F935F936F937F938F939F93B6
:101A6000AF93BF93EF93FF938091CC019091CD0101
:101A70009C01215031093093CD012093CC01892B59
:101A800009F510926F00789480918100887F8160C1
:101A90008093810080E197E2909389008093880091
:101AA00010928B0010928A0081E080931C0180913B
:101AB000C5019091C601892B29F08091CB0181113C
:101AC00001C082DEFF91EF91BF91AF919F918F9105
:101AD0007F916F915F914F913F912F910F900FBE2A
:101AE0000F901F90189580911C01882349F081E088
:101AF0002091C5013091C601232B19F480E008958F
:101B000081E00895F0CF089510926F009093C60180
:101B10008093C5011092CA011092C80155CEF4CF2E
:101B2000089510926F009093C6018093C50181E0E3
:101B30008093CA011092C80147CEF3CF0895109246
:101B40006F00E1E8F0E08081887F8160808380E140
:101B500097E2909389008093880010928B001092F6
:101B60008A0081E080931C011092C6011092C50189
:101B70000895E5CF089580911C01882331F080916C
:101B8000C5019091C601892B49F481E02091C501DE
:101B90003091C601232B21F480E0089515DEF5CFA6
:101BA0000895E9CF08958093CB01811101C0E3CF5F
:101BB0000895F9CF089581E090E06F9364E06A950D
:101BC000F1F76F910197C9F708950F931F93CF9382
:101BD000DF931AB157985A98289AC0E0D0E0EBDF0B
:101BE0005C9AE9DF09B15C98E6DF5C9AE4DF5C9817
:101BF000249607FF10C0AE0160E070E08091CE0136
:101C00009091CF01A091D001B091D101481759070F
:101C10006A077B0720F31AB9DF91CF911F910F91CB
:101C2000089595B1282F217030E0220F331F482FDF
:101C3000467068E0469FA0011124242B9D7C292B2F
:101C400025B99BB188708295807F9F77892B8BB94E
:101C50005C9AB1DF5C98AFCFA0E0B0E0E2E3FEE0D9
:101C60000C94A619C82FD62EE42E80913E02811125
:101C700004C081E080933E0251D0A7DF14B1D5B1FA
:101C8000FAB00BB12898DD2011F05A9A01C05A9889
:101C900094B1926394B9579A81E0E81621F08C2FA1
:101CA00082958F70BEDF8C2F8F70BBDFFAB80BB9B7
:101CB00014B9D5B9CDB7DEB7E7E00C94C21942E04C
:101CC00060E0CACF42E061E0C7CFA1E0B0E0EBE660
:101CD000FEE00C94A7198C01660F660F660FE12CCD
:101CE000F12C8E2D860F80646983E9DFF801EE0DFB
:101CF000FF1D8491E7DF8FEFE81AF80A6981E8E0B9
:101D0000EE16F10471F72196E6E00C94C319DDCFCD
:101D10000895D8CF089541E060E09ECF80E197E23A
:101D2000A0E0B0E08093CE019093CF01A093D001CA
:101D3000B093D101529A209A549A8EE190E0C4D483
:101D400083E0E9DF86E090E0BFD483E0E4DF82E077
:101D500090E0BAD483E0DFDF82E090E0B5D482E0A7
:101D6000DADF82E090E0B0D488E2A9DF88E0A7DF84
:101D700081E0A5DF86E0A3DF8CE0A1CF81E09FDFDB
:101D80008091D4019091D501892BF9F060E0A0E217
:101D9000262F30E070911D0180911E0190E0019787
:101DA000789FA001799F500D1124241735074CF41A
:101DB000E091D401F091D501E20FF31FA0836F5F92
:101DC000E7CF1092D2011092D3010895D7CF089592
:101DD000CF93DF93EC018991882311F073DFFBCF60
:101DE000DF91CF910895F4CF0895CF93DF93EC0165
:101DF000FE018491882319F065DF2196F9CFDF91E8
:101E0000CF910895F2CF0895AAE0B0E0EAE0FFE0B4
:101E10000C94A5191AE05AE0C52ED12CE12CF12C16
:101E2000062FA70196010E945D19CA01B901115040
:101E3000E1E0F0E0EC0FFD1FE10FF11D005D2AE095
:101E4000629F0019112400836115710581059105B8
:101E500039F71A3050F4E1E0F0E0EC0FFD1FE10F2C
:101E6000F11D80812FDF1F5FF4CF2A96E8E00C94EC
:101E7000C119CF92DF92EF92FF926B017C0197FF25
:101E80000AC0F094E094D094C094C11CD11CE11C11
:101E9000F11C8DE217DFC701B601B6DFFF90EF90AE
:101EA000DF90CF900895E5CF08958A3010F4805DDB
:101EB00001C0895C07CFCF93C82F82958F70F5DF63
:101EC0008C2F8F70F2DFCF910895F5CF0895A5E0A4
:101ED000B0E0EDE6FFE00C94AA19182F80E88983A2
:101EE00080EC8A8384E98B8384ED8C83FE01E60F8A
:101EF000F11D8181810F6D83E2DE1093D2016D812E
:101F00006093D3012596E3E00C94C619E0CF0895C1
:101F1000813011F48FE001C08EE0D1CEF9CF089569
:101F20008CE0CDCEFDCF0895883058F491E001C00B
:101F3000990F8A95EAF7892FAAE2B0E0EBE2F0E088
:101F400021C08E3060F498EF980F81E001C0880FB7
:101F50009A95EAF7A4E2B0E0E5E2F0E013C085313B
:101F600060F492EF980F81E001C0880F9A95EAF72C
:101F7000A7E2B0E0E8E2F0E005C080E0A0E0B0E079
:101F8000E0E0F0E06F3F19F49081982709C06623E4
:101F900019F09081982B04C02081982F909592235E
:101FA00090839C91982B9C93089583EF8093B0002D
:101FB00084BD82E08093B10085BD1092B400109280
:101FC000B30018BC17BC60E086E0AEDF60E085E0DF
:101FD000ABDF60E08BE0A8DF60E083E0A5CF80911D
:101FE0003F02811104C081E080933F02DECF08955B
:101FF000CF93DF93EC01F3DFD7FF05C0D195C195F7
:10200000D10981E001C080E0CF3FD10519F014F083
:10201000CFEFD0E0882319F018BCC7BD02C0C8BDFF
:1020200017BCDF91CF910895E3CF0895CF93DF934D
:10203000EC01D5DFD7FF05C0D195C195D10981E06D
:1020400001C080E0CF3FD10519F014F0CFEFD0E010
:10205000882329F01092B400C093B30004C0C09349
:10206000B4001092B300DF91CF910895DFCF0895AF
:10207000CF93DF93EB01BCDFCE01D8DFDF91CF91AF
:102080000895F6CF089584B18D7C84B985B18263BB
:1020900085B985E090E06F9364E06A95F1F76F9100
:1020A0000197C9F7089580914002811104C081E031
:1020B00080934002E8CF0895CF93C82FF4DF83B117
:1020C0008C23E9F38AE090E0FFD283B18C23B9F34B
:1020D00083B18C23CF910895EFCF0895A1E0B0E0B4
:1020E000E4E7F0E10C94AB198983DDDF93B19095BF
:1020F000898189232196E2E00C94C719EFCF0895D6
:10210000A4E0B0E0E6E8F0E10C94A819182FF3B0D1
:10211000F0940FD369837A838B839C83C4DF2091EF
:10212000E10169817A818B819C81213009F138F04C
:10213000223009F453C0233009F463C07EC0212F3C
:1021400030E04F2D50E04095509524233523232B2C
:1021500009F473C0F094F122F092E0016093DC0185
:102160007093DD018093DE019093DF0181E063C015
:102170000091DC011091DD012091DE013091DF0141
:10218000DC01CB01801B910BA20BB30B0F97A105B8
:10219000B10508F452C04091E0018F2D90E0809588
:1021A0009095242F30E082239323892BA1F082E0A5
:1021B0008093E101F094F422F092E0013EC030E01F
:1021C000812F90E04F2D50E040955095842395232A
:1021D0002817390791F11092E1012FC02091E001F9
:1021E0003F2D322361F323E02093E1013093E0019E
:1021F0006093DC017093DD018093DE019093DF0139
:102200001CC00091DC011091DD012091DE013091B4
:10221000DF01DC01CB01801B910BA20BB30B0F97ED
:10222000A105B10550F08091E0018F2119F01092C5
:10223000E10104C082E08093E10180E02496E5E0C2
:102240000C94C4195DCF0895A4E0B0E0EAE2F1E196
:102250000C94A819182FF3B06CD269837A838B83FE
:102260009C8321DF2091DB0169817A818B819C81B4
:10227000213009F138F0223009F453C0233009F439
:1022800063C07EC0212F30E04F2D50E04095509527
:1022900024233523232B09F473C0F094F122F09208
:1022A000DA016093D6017093D7018093D80190939F
:1022B000D90181E063C00091D6011091D70120912E
:1022C000D8013091D901DC01CB01801B910BA20B0D
:1022D000B30B0F97A105B10508F452C04091DA0184
:1022E0008F2D90E080959095242F30E082239323CA
:1022F000892BA1F082E08093DB01F094F422F0922C
:10230000DA013EC030E0812F90E04F2D50E0409543
:102310005095842395232817390791F11092DB01FA
:102320002FC02091DA01322F3F2161F323E0209367
:10233000DB013093DA016093D6017093D70180936B
:10234000D8019093D9011CC00091D6011091D701FA
:102350002091D8013091D901DC01CB01801B910B78
:10236000A20BB30B0F97A105B10550F08091DA01D4
:102370008F2119F01092DB0104C082E08093DB0111
:1023800080E02496E5E00C94C4195ECF0895809116
:10239000E4010895282F30E09AE0899FF00111248C
:1023A000EE51FE4F80859185009721F05281448146
:1023B000541780F08AE0829FF001839FF00D112472
:1023C000EE51FE4F9281848198130EC08581811158
:1023D0000AC008954281DC01A40FB11D6C93828173
:1023E0008F5F8283E7CF12820895CF93DF9390911E
:1023F000C1009F779093C100C82FD0E09AE0899FD9
:10240000F0011124EE51FE4F20853185232B41F040
:1024100022819481291720F49091C00097FD11C06A
:102420008AE08C9FF0018D9FF00D1124EE51FE4F3C
:10243000808181110AC08091C10080688093C100B1
:1024400004C06091C600A6DFEBCFDF91CF91089565
:102450009091C1009F779093C1009AE0899FF0010D
:102460001124EE51FE4F71876087128244832583C9
:102470008081811105C08091C10080688093C10076
:102480000895462F21E0BC0180E0E2CFFACF089505
:102490001F920F920FB60F9211242F933F934F93D9
:1024A0005F936F937F938F939F93AF93BF93EF93BC
:1024B000FF936091C60080E06DDFFF91EF91BF91C7
:1024C000AF919F918F917F916F915F914F913F91CC
:1024D0002F910F900FBE0F901F9018959AE0899F33
:1024E000F0011124EE51FE4F86819781892B59F01E
:1024F00091818381981738F48081811104C0809183
:10250000C100806203C08091C1008F7D8093C100B3
:1025100008959AE0899FF0011124EE51FE4F9081B9
:10252000911102C098E901C098E19093C100D6DFF3
:1025300078940895CF92DF92EF92FF926B017C0125
:1025400080E0E7DFA8EFBFEFA70196017FD6735DBC
:102550008E4C9E4FE4E0220F331F441F551FEA9517
:10256000D1F7ABD63093C5002093C400FF90EF9015
:10257000DF90CF9008959AE0899FF0011124EE51E9
:10258000FE4F268137812115310541F0418193812C
:10259000491720F49091C00095FD01C09FCF918113
:1025A000D901A90FB11D9C919093C60091819F5FA5
:1025B0009183F4CFE1ECF0E080818F7D808380E037
:1025C000DADF80E012CF9093E9018093E801109266
:1025D000E3016093E50180E081DF9091E301809168
:1025E000E501981711F0E6DFF8CF0895ECCF0895D4
:1025F0001F920F920FB60F9211242F933F934F9378
:102600005F936F937F938F939F93AF93BF93EF935A
:10261000FF9380E0B0DFFF91EF91BF91AF919F9169
:102620008F917F916F915F914F913F912F910F907B
:102630000FBE0F901F9018952F928F939F932FB6D8
:102640008091F3019091F40101968093F3019093AE
:10265000F40190E08091F501891F8093F50190913C
:10266000ED019C5F9093ED018091EC0180519742C8
:10267000C0F09093ED018093EC018091EE01909178
:10268000EF0101968093EE019093EF0190E080912D
:10269000F001891F8093F0018091F101891F8093DF
:1026A000F1012FBE9F918F912F90189528EE33E066
:1026B000019748F0F9016F9364E06A95F1F76F9123
:1026C0003197C9F7F5CF0895F1CF0895E0E7F0E02D
:1026D00080818E7F8083A0EBB0E08C9183608C93AF
:1026E000A1EBB0E08C91807F8C938C9182608C9375
:1026F000B89A8081816080837894089580914102A6
:10270000811104C081E080934102E0CF0895F6DF9B
:10271000E0E7F0E080818E7F80836091EE01709130
:10272000EF018091F0019091F101208121602083DF
:102730000895EDCF0895E2DFE0E7F0E080818E7F3D
:1027400080831092EE011092EF011092F00110922E
:10275000F1011092ED011092EC0180818160808383
:102760000895E9CF0895462FBC0186EF91E0ADC2F0
:10277000682F86EF91E0FBC386EF91E0D1C0462F32
:10278000BC0186EF91E015C4462F20E0BC0186EF26
:1027900091E0B7C40F93CF93DF9300D000D01F9286
:1027A000CDB7DEB79C0185E0E6E5F1E0DE011196EC
:1027B00001900D928A95E1F7662311F00FEF01C0A9
:1027C00003E145E0BE016F5F7F4F86EF91E0DCD013
:1027D00086EF91E07ED0AFDF0F900F900F900F90BB
:1027E0000F90DF91CF910F91089560E0D3CF86EFE6
:1027F00091E0F7C46F9364E06A95F1F76F910197E8
:10280000C9F70895FC011182108213821282158289
:1028100014821682683068F489E290E091838083A4
:102820008BE290E0938382838AE290E095838483B5
:102830001FC06E3070F483E290E09183808385E264
:1028400090E09383828384E290E095838483685050
:102850000FC0653198F486E290E09183808388E22E
:1028600090E09383828387E290E0958384836E5027
:1028700081E001C0880F6A95EAF786830895A7E092
:10288000B0E0E4E4F4E165C58C01FC011182108242
:10289000138212821582148217821682613118F017
:1028A00080E1808702C0FC016087F801208B642FE3
:1028B000CE010196A7DF8F81F80181878B819C81F2
:1028C000938782878D819E81958784872796E4E010
:1028D0005CC5FC01A485B585109771F08C9191853C
:1028E000892B8C93A285B3859C91818580958923C2
:1028F0008C9388EC90E07ECF0895FC01A485B5858B
:10290000109769F08C919185892B8C93A285B38562
:102910008C919185892B8C9388EC90E06BCF0895F6
:10292000FC0120E08085281770F5A081B181109707
:1029300041F086859785A20FB11DA20FB11D8D9321
:102940009C93A481B581109741F086859785A20F4D
:10295000B11DA20FB11D8D939C93A281B3811097DD
:1029600031F0A20FB11DA20FB11D1D921C92A681C4
:10297000B781109731F0A20FB11DA20FB11D1D92AA
:102980001C922F5FCFCF0895A7E0B0E0E9ECF4E10F
:10299000D5C47C014B01642F3901402F20E06FDF4B
:1029A00087010F5B1F4FF80110826701F2E4CF0E21
:1029B000D11CF60110825701F3E4AF0EB11CF501F2
:1029C0001082F70177866686512CF70180855816AC
:1029D00048F5652C712CF401E60DF71D6081CE01E0
:1029E000019610DF2F81F701E60DF71D218B8981FC
:1029F0009A81F301EE0FFF1FEE0DFF1D92A381A33D
:102A00008332910511F4F80108C08632910511F462
:102A1000F60103C0899721F4F5018081822B808320
:102A20005394D3CF2796EFE0A5C4A0E0B0E0EAE14D
:102A3000F5E186C4EC015B016C0181E4C80ED11C98
:102A4000F60180807E01F2E4EF0EF11CF701708048
:102A50008E010D5B1F4FF801908080E098858917EB
:102A600048F4F501E80FF11DE80FF11D1182108205
:102A70008F5FF4CF84B1F6019081892B84B987B13F
:102A8000F7019081892B87B98AB1F8019081892B50
:102A90008AB985B1F6019081892B85B988B1F70192
:102AA0009081892B88B98BB1F8019081892B8BB9E2
:102AB0008AE090E09FDE94B1F601808180958923C1
:102AC00084B997B1F70180818095892387B99AB13C
:102AD000F8018081809589238AB995B1F6018081BA
:102AE0008095892385B998B1F701808180958923E4
:102AF00088B99BB1F8018081809589238BB9E090DA
:102B0000B000D090B1008091B00083608093B0009D
:102B100082E08093B1004091B20080E090E02E8589
:102B20003F858217930720F5C090B2002C2D241BFF
:102B3000820F911D03B1081132C0F6B0F7102FC0FB
:102B400029B129112CC010C0212F30E0A901440F58
:102B5000551FF501E40FF51F60817181672B21F18D
:102B60001F5F2885121780F37F2C802E4C2DD7CF26
:102B7000E092B000D092B10020E08885281730F5AF
:102B8000F501E20FF11DE20FF11D80819181892B8A
:102B900021F48E859F85918380832F5FEECF03B1D3
:102BA000F6B099B010E0DDCFDE01A40FB51F91960D
:102BB0000D90BC91A02D4C91DE01A20FB31F519638
:102BC0002C91422369F691838083CACFCDB7DEB7BB
:102BD000EDE0D2C3EF92FF920F931F93CF93DF9359
:102BE000FC019B01F0907C0000917A0047B118B184
:102BF00080917A0086FDFCCF80E09085891748F4AB
:102C0000D901A80FB11DA80FB11D1D921C928F5F95
:102C1000F4CF97B182A18095892387B998B182A119
:102C20008095892388B987E880937A00E12C81A177
:102C3000E81610F0E12C29C050E08085581718F5EF
:102C4000A52FB0E0EF01CA0FDB1F89898064809354
:102C50007C0080917A00806480937A0080917A0071
:102C600086FDFCCF6091780070917900AA0FBB1FA0
:102C7000A20FB31F8D919C911197860F971F8D9373
:102C80009C935F5FDACFE394D2CF8085E81698F407
:102C9000E901CE0DD11DCE0DD11D61A170E0CB019A
:102CA00095958795A881B9818A0F9B1FDFD279837B
:102CB0006883E394EACFF0927C0000937A0018B91D
:102CC00047B9CDB7DEB7E6E05EC3A0E2B0E0EAE622
:102CD000F6E13CC38C017B01D42E8FEF840F823050
:102CE00010F4C8010ADED80150968C91B701811109
:102CF0000DC0C8019ADEC801ECDDB2E0DB1236C0BF
:102D0000BE016F5F7F4FC80190DE0CC0C80162DF5B
:102D1000C801DFDDE2E0DE1229C0BE016F5F7F4F38
:102D2000C80158DF40E0F80180854817F8F4842F87
:102D300090E0880F991FF701E80FF91F21E030E0BC
:102D40002C0F3D1F820F931FD8011E962D913C9191
:102D50001F97DC018D919C91281B390B80819181FB
:102D6000820F931F918380834F5FDDCFA096E7E0B2
:102D700009C32F923F925F926F927F928F929F92A0
:102D8000AF92BF92CF92DF92EF92FF920F931F9379
:102D9000CF93DF93CDB7DEB7C056D1090FB6F89405
:102DA000DEBF0FBECDBF8C014B015A01522EDA019E
:102DB0008D919C91892B31F0F40180819181892B37
:102DC000E9F423C0D80118968C9190E0880F991FE0
:102DD000EFD2F50191838083009709F4AFC0FC0125
:102DE00020E030E0D80118968C9190E02817390740
:102DF0001CF7119211922F5F3F4FF4CFE12CF12C71
:102E00006E01B1E2CB0ED11C20C0F801808590E0AC
:102E1000880F991FCDD2D4018D939C93009709F40C
:102E20008DC0FC0120E030E0D80118968C9190E034
:102E3000281739071CF7D8011E968D919C911F9772
:102E4000819391932F5F3F4FEFCF452DBE016F5B75
:102E50007F4FC8013ADFF8016084712CFE01EF5BFF
:102E6000FF4FC6019E012F5F3F4F190120E030E068
:102E7000261537054CF5E114F10489F0DC016D915C
:102E80007C91408151816417750748F0D1016D91A3
:102E90007C91408151814617570748F00DC0408111
:102EA0005181DC014D935C93E114F10479F7408189
:102EB0005181D1014D935C932F5F3F4FB2E02B0EB8
:102EC000311C32960296D4CFEFEFEE1AFE0AFAE0EA
:102ED000EF16F10409F0B9CF9E012F5F3F4F790142
:102EE000360180E090E0F801208530E082179307FA
:102EF0002CF5D7012D913D917D01B3016C197D0910
:102F0000D501ED91FC91E60FF71F408151814217E9
:102F1000530710F431832083F301219131913F0154
:102F2000D401ED91FC91E60FF71F408151812417E8
:102F3000350710F4318320830196D5CFC05ADF4F77
:102F40000FB6F894DEBF0FBECDBFDF91CF911F91BA
:102F50000F91FF90EF90DF90CF90BF90AF909F9038
:102F60008F907F906F905F903F902F9008951F9368
:102F7000CF93DF93EC01162F8FEF860F823018F07E
:102F8000662351F012C021E0AE014E5F5F4FBE01DB
:102F9000CE01EFDE123049F4AE014A5F5F4FBE0151
:102FA0006C5F7F4F20E0CE01E4DEDF91CF911F9177
:102FB0000895A0E0B0E0EEEDF7E1C6C1EC018B01B1
:102FC000B42E842F8D7F51F48C819D81892B09F43F
:102FD00094C08E819F81892B09F48FC08FEF8B0D58
:102FE000823050F488819981892B09F486C08A81C6
:102FF0009B81892B09F481C04B2DB801CE0165DE80
:10300000780100E010E0C12CD12C888590E0C81632
:10301000D9060CF072C081E0B8120AC0EA81FB81C7
:10302000E00FF11F0190F081E02DA881B9810DC062
:103030008C819D812E813F81B1100CC0F901E00F80
:10304000F11F0190F081E02DDC01A00FB11F8D91E7
:103050009C9128C0FC01E00FF11F40815181E88163
:10306000F981E00FF11F80819181EE85FF8548177E
:10307000590710F4CF0104C08E0F9F1F841B950BBE
:10308000D901A00FB11F2D913C91AA81BB81A00F46
:10309000B11F4D915C912417350720F0E40FF51F07
:1030A000E21BF30BE81BF90B99F0D7012D913C9132
:1030B00040E050E0281B390B41095109A8EEB3E06C
:1030C000B9D09F0140E050E01AD137FD0AC002C0DC
:1030D00020E030E0293EB3E03B072CF028EE33E05F
:1030E00002C020E030E0F701219331937F01FFEF30
:1030F000CF1ADF0A0E5F1F4F88CFCDB7DEB7E9E0EA
:103100003FC1A0E0B0E0E6E8F8E115C1EC018B01B9
:10311000822E4FDF2884E801412C512C320100E03F
:1031200010E0C12CD12C7601312C912C58EEA52E1B
:1031300053E0B52E921419F1E991F991882021F00C
:10314000C5018E1B9F0BFC01E93CF10524F4E33320
:10315000F1056CF002C033243394DF01A301920126
:1031600073D0C60ED71EE81EF91E0E0F1F1F9394B4
:1031700098EE490E93E0591E611C711CDBCF311093
:103180001EC0492D50E04150510924EF31E0429FCB
:10319000C001439F900D529F900D112420913A023F
:1031A00030913B0228173907ACF088EE93E0489F36
:1031B0009001499F300D589F300D11240DC098018A
:1031C00040E050E0C701B60178D030933B02209335
:1031D0003A0202C020E030E0C901CDB7DEB7E2E13B
:1031E000C6C0CF93DF93EC018A819B81009709F0E1
:1031F00077D18E819F81009709F072D18881998162
:10320000009709F06DD18C819D81009709F068D1FC
:10321000DF91CF910895A29FB001B39FC001A39FFA
:10322000700D811D1124911DB29F700D811D1124FF
:10323000911D0895F0DFA59F900DB49F900DA49F60
:10324000800D911D11240895B7FFF4CFF3DF821B89
:10325000930B0895991B79E004C0991F961708F005
:10326000961B881F7A95C9F780950895AA1BBB1BEA
:1032700051E107C0AA1FBB1FA617B70710F0A61B76
:10328000B70B881F991F5A95A9F780959095BC0197
:10329000CD01089597FB072E16F4009406D077FD14
:1032A00008D0E4DF07FC05D03EF4909581959F4F50
:1032B0000895709561957F4F0895A1E21A2EAA1B7B
:1032C000BB1BFD010DC0AA1FBB1FEE1FFF1FA217D6
:1032D000B307E407F50720F0A21BB30BE40BF50BD3
:1032E000661F771F881F991F1A9469F7609570955C
:1032F000809590959B01AC01BD01CF010895052EED
:1033000097FB16F400940FD057FD05D0D6DF07FCCD
:1033100002D046F408C050954095309521953F4F16
:103320004F4F5F4F089590958095709561957F4FB1
:103330008F4F9F4F08952F923F924F925F926F92BF
:103340007F928F929F92AF92BF92CF92DF92EF9235
:10335000FF920F931F93CF93DF93CDB7DEB7CA1BB6
:10336000DB0B0FB6F894DEBF0FBECDBF09942A88E1
:10337000398848885F846E847D848C849B84AA8489
:10338000B984C884DF80EE80FD800C811B81AA8116
:10339000B981CE0FD11D0FB6F894DEBF0FBECDBFE1
:1033A000ED010895EE0FFF1F0590F491E02D0994B3
:1033B000CF93DF938230910510F482E090E0E091AA
:1033C0001603F091170320E030E0A0E0B0E0309762
:1033D00039F14081518148175907B8F0481759070A
:1033E00071F482819381109729F013969C938E93A8
:1033F00012972CC0909317038093160327C02115B2
:10340000310531F04217530718F0A901DB0101C063
:10341000EF019A01BD01DF010280F381E02DD7CFDA
:1034200021153105F9F0281B390B2430310580F4C2
:103430008A819B816115710521F0FB019383828351
:1034400004C09093170380931603FE01329644C084
:10345000FE01E20FF31F81939193225031093983CA
:1034600028833AC02091140330911503232B41F493
:1034700020912101309122013093150320931403F0
:1034800020911F01309120012115310541F42DB704
:103490003EB74091230150912401241B350BE0914C
:1034A0001403F0911503E217F307A0F42E1B3F0B52
:1034B0002817390778F0AC014E5F5F4F24173507A6
:1034C00048F04E0F5F1F50931503409314038193F0
:1034D000919302C0E0E0F0E0CF01DF91CF91089539
:1034E000CF93DF93009709F487C0FC0132971382D2
:1034F0001282C0911603D0911703209781F4208186
:103500003181280F391F8091140390911503821780
:10351000930779F5F0931503E09314036DC0DE0172
:1035200020E030E0AE17BF0750F412964D915C9149
:1035300013979D014115510509F1DA01F3CFB383CA
:10354000A28340815181840F951F8A179B0771F4D4
:103550008D919C911197840F951F02969183808382
:1035600012968D919C911397938382832115310537
:1035700029F4F0931703E09316033EC0D901139684
:10358000FC93EE9312974D915D91A40FB51FEA172E
:10359000FB0779F480819181840F951F0296D901F0
:1035A00011969C938E938281938113969C938E9314
:1035B0001297E0E0F0E08A819B81009719F0FE010C
:1035C000EC01F9CFCE01029628813981820F931F39
:1035D00020911403309115032817390769F43097A7
:1035E00029F4109217031092160302C0138212825C
:1035F000D0931503C0931403DF91CF91089513E086
:10360000C8E3D3E003C0FE01CFDE2296CA33D10760
:06361000D1F7F894FFCF92
:1036160001D202CD02AC02C102BA02B402A6020174
:10362600FF88130F00F4010400D00704010802000C
:103636000018032000200000010203030405FF0711
:10364600CF01AE050D05E0012002140362039C01C3
:10365600B501CF01EA0107022602470269028E027E
:10366600B502DE020A030E0F1011126D5600495202
:103676002D002020430020202000526564202000D9
:103686003E63333200477265656E006F33630042F6
:103696006164206461746100337069312E310042C7
:1036A600616420636D64006F376C3136637263004A
:00000001FF
