:1000000033C000004CC000004AC0000048C00000DF
:1000100046C0000044C0000042C0000040C00000D4
:100020003EC0000049C300003AC0000038C00000D4
:1000300036C0000034C0000032C0000030C00000F4
:100040002EC000002CC000002AC0000028C0000004
:1000500026C0000024C0000022C0000020C0000014
:100060001EC000001CC0000011241FBECFEFD4E052
:10007000DEBFCDBF11E0A0E0B1E0EEE6F8E002C0E7
:1000800005900D92A635B107D9F711E0A6E5B1E0CC
:1000900001C01D92AA36B107E1F702D0E6C3B0CF86
:1000A00053D28BE091E05DD261E080E0C7D282E183
:1000B00091E057D288EE93E047D346D289E191E0B0
:1000C00050D261E080E0BAD281E291E04AD282E38C
:1000D000F1D2C82F39D2C03169F0C032A1F0C2309C
:1000E000D9F48AE291E03DD261E080E0A7D282E3D8
:1000F00091E011C08AE291E034D261E080E09ED2CA
:1001000087E391E008C08CE391E02BD261E080E0CE
:1001100095D282E491E025D288EE93E015D314D2F3
:1001200080917C008F7D80937C0060E080E086D2AF
:10013000B9D0E9D0BC0180E090E061D289E491E0DF
:1001400010D261E080E07AD2C031D9F0C03221F122
:10015000C23051F5F7D06AE070E01BD38C018827DC
:1001600077FD8095982F4BD28EE291D1B8018827E8
:1001700077FD8095982F43D28FED89D180E591E06E
:1001800012C06AE070E086E08BD0BDD0BC01660F83
:10019000771F680F791F02C0F0D0BC0180E090E0AB
:1001A0002ED289E491E0DDD182E390E0CDD2BDCFC3
:1001B000ECE7F0E080818F7D80830895811101C09C
:1001C000F7CF80917C00806280937C0008958091BD
:1001D0007C0085FB882780F90895F9DF882321F0CA
:1001E0008091790090E00895809178009091790055
:1001F00008958032A0F497E890937A0090917C0063
:10020000662311F0906C02C09F779064907E982BCB
:1002100090937C0080917A00806480937A000895A6
:10022000A0E0B0E0E5E1F1E0F3C2EB0160E0E1DF86
:1002300080917A0086FDFCCF8E01C12CD12C7601F5
:1002400080917A00806480937A0080917A0086FDA4
:10025000FCCFC3DFC80ED91EE11CF11C01501109EF
:100260000115110569F7CE0196958795C034D10522
:1002700030F48C0D9D1DBE0178D2CB010DC0A701BD
:100280009601280F391F411D511DCA01B9019E0158
:1002900040E050E091D2C901CDB7DEB7E8E0D4C26A
:1002A000BFCF089564E170E087E0BACFCF92DF92CC
:1002B000EF92FF92A0910101B09102019C0146D200
:1002C0006B017C0184DF882359F0C701B6016158B6
:1002D0007F4F8F4F9F4F2FEF30E040E050E00AC03C
:1002E000C701B60161507E4F8F4F9F4F2FEF33E014
:1002F00040E050E061D2C901FF90EF90DF90CF90D5
:1003000008958EDFD3CFD2CF08951F93CF93DF937D
:100310005EDF182F4DDF64E170E086E0F2DFEC0174
:10032000812F4CDF2CE02C9FC0012D9F900D1124BC
:100330008A5792406DE070E02CD2CB01DF91CF91D3
:100340001F910895E2CF08951F93CF93DF933FDF6E
:10035000182F2EDF6AE070E086E0D3DFEC01812FFA
:100360002DDFCE01880F991F8C0F9D1F019696954A
:100370008795DF91CF911F910895E6CF089581E091
:1003800090E06F9364E06A95F1F76F910197C9F778
:1003900008950F931F93CF93DF931AB157985A98EC
:1003A000289AC0E0D0E0EBDF5C9AE9DF09B15C9805
:1003B000E6DF5C9AE4DF5C98249607FF10C0AE018C
:1003C00060E070E08091560190915701A091580132
:1003D000B0915901481759076A077B0720F31AB9EA
:1003E000DF91CF911F910F91089595B1282F217022
:1003F00030E0220F331F482F467068E0469FA0016F
:100400001124242B9D7C292B25B99BB188708295C2
:10041000807F9F77892B8BB95C9AB1DF5C98AFCFD7
:10042000A0E0B0E0E5E1F2E0F4C1C82FD62EE42E62
:1004300080916801811104C081E0809368012CD013
:10044000A8DF14B1D5B1FAB00BB12898DD2011F0B6
:100450005A9A01C05A9894B1926394B9579A81E01C
:10046000E81621F08C2F82958F70BFDF8C2F8F7054
:10047000BCDFFAB80BB914B9D5B9CDB7DEB7E7E030
:10048000E4C142E060E0CCCF42E061E0C9CFFCCF04
:10049000089541E060E0C4CF80E197E2A0E0B0E0E1
:1004A0008093560190935701A0935801B09359013E
:1004B000529A209A549A8EE190E046D183E0E9DF87
:1004C00086E090E041D183E0E4DF82E090E03CD13F
:1004D00083E0DFDF82E090E037D182E0DADF82E0A4
:1004E00090E032D188E2CDDF88E0CBDF81E0C9DF68
:1004F00086E0C7DF8CE0C5CF81E0C3DF80915C017F
:1005000090915D01892BF9F060E0A0E2262F30E0A8
:10051000709103018091040190E00197789FA00100
:10052000799F500D1124241735074CF4E0915C019C
:10053000F0915D01E20FF31FA0836F5FE7CF109290
:100540005A0110925B010895D7CF0895CF93DF939E
:10055000EC018991882311F097DFFBCFDF91CF91D8
:100560000895F4CF0895AAE0B0E0E8EBF2E050C1BE
:100570001AE05AE0C52ED12CE12CF12C062FA70150
:1005800096011AD1CA01B9011150E1E0F0E0EC0F77
:10059000FD1FE10FF11D005D2AE0629F001911248B
:1005A0000083611571058105910541F71A3050F4FA
:1005B000E1E0F0E0EC0FFD1FE10FF11D808164DF51
:1005C0001F5FF4CF2A96E8E03FC1CF92DF92EF920F
:1005D000FF926B017C0197FF0AC0F094E094D094E5
:1005E000C094C11CD11CE11CF11C8DE24DDFC70180
:1005F000B601B9DFFF90EF90DF90CF900895E5CF7F
:100600000895A5E0B0E0E6E0F3E007C1182F80E828
:10061000898380EC8A8384E98B8384ED8C83FE015B
:10062000E60FF11D8181810F6D832BDF10935A013D
:100630006D8160935B012596E3E00BC1E2CF0895E5
:1006400084B18D7C84B985B1826385B985E090E001
:100650006F9364E06A95F1F76F910197C9F7089578
:1006600080916901811104C081E080936901E8CF24
:1006700008951F93CF93DF93182FF2DFC12FD0E09F
:1006800023B130E0209530952C233D23232BC1F35B
:100690008AE090E059D023B130E0209530952C23AA
:1006A0003D23232B69F383B180958123DF91CF9183
:1006B0001F910895DECF08952F928F939F932FB6A9
:1006C00080916501909166010196809365019093F8
:1006D000660190E080916701891F80936701909186
:1006E0005F019C5F90935F0180915E018051974212
:1006F000C0F090935F0180935E01809160019091C2
:1007000061010196809360019093610190E0809176
:100710006201891F8093620180916301891F809328
:1007200063012FBE9F918F912F90189528EE33E093
:10073000019748F0F9016F9364E06A95F1F76F91C2
:100740003197C9F7F5CF0895F1CF0895A29FB00171
:10075000B39FC001A39F700D811D1124911DB29FF5
:10076000700D811D1124911D0895AA1BBB1B51E121
:1007700007C0AA1FBB1FA617B70710F0A61BB70B11
:10078000881F991F5A95A9F780959095BC01CD01B6
:10079000089597FB072E16F4009406D077FD08D035
:1007A000E4DF07FC05D03EF4909581959F4F0895B6
:1007B000709561957F4F0895A1E21A2EAA1BBB1B6D
:1007C000FD010DC0AA1FBB1FEE1FFF1FA217B3071D
:1007D000E407F50720F0A21BB30BE40BF50B661F33
:1007E000771F881F991F1A9469F7609570958095F7
:1007F00090959B01AC01BD01CF0108952F923F92CE
:100800004F925F926F927F928F929F92AF92BF9220
:10081000CF92DF92EF92FF920F931F93CF93DF93CC
:10082000CDB7DEB7CA1BDB0B0FB6F894DEBF0FBE29
:10083000CDBF09942A88398848885F846E847D8476
:100840008C849B84AA84B984C884DF80EE80FD8078
:100850000C811B81AA81B981CE0FD11D0FB6F894EE
:0E086000DEBF0FBECDBFED010895F894FFCFAF
:10086E00018813080200006A01200073656C65633D
:10087E007400646576696365004120204220204340
:10088E00004C5620535620337000204F72616E6715
:10089E002E0020204C56002020535600202033706E
:1008AE00690020526F626F7400206D562020200068
:0608BE004620202000008E
:00000001FF
