:1000000033C000004DC000004BC0000049C00000DC
:1000100047C0000045C0000043C0000041C00000D0
:100020003FC0000079C300003BC0000039C00000A1
:1000300037C0000035C0000033C0000031C00000F0
:100040002FC000002DC000002BC0000029C0000000
:1000500027C0000025C0000023C0000021C0000010
:100060001FC000001DC0000011241FBECFEFD4E050
:10007000DEBFCDBF11E0A0E0B1E0EAECF0E102C0EC
:1000800005900D92AA33B107D9F711E0AAE3B1E0C8
:1000900001C01D92A735B107E1F703D00C946308A6
:1000A000AFCF38D3EBD188EC90E07ED38BE091E0FA
:1000B0009F938F9368D588EC90E076D381E191E0AF
:1000C0009F938F9360D580ED97E06ED3D7D10F903B
:1000D0000F900F900F90C1E4D0E0CE0165D582E380
:1000E00090E062D32196CB37D105B9F780ED97E048
:1000F0005BD3C4D188E191E09F938F9344D50F9057
:100100000F90C0E0D0E080E2E82E83E0F82E00E21D
:1001100011E0C7018C1B9D0B47D3DF93CF93DF9377
:10012000CF931F930F932FD5E2960F900F900F90C0
:100130000F900F900F90C63282E0D80751F780EDF4
:1001400097E032D39BD18AE291E09F938F931BD5A6
:100150000F900F90C3E3D1E061E080E09ED277D0B2
:10016000A5D09F938F93DF93CF930DD582E390E03B
:100170001BD30F900F900F900F90EECF80917C00CB
:1001800085FB882780F90895F9DF882321F0809185
:10019000790090E008958091780090917900089519
:1001A0008032A0F497E890937A0090917C006623C7
:1001B00011F0906C02C09F779064907E982B909382
:1001C0007C0080917A00806480937A000895A0E09A
:1001D000B0E0ECEEF0E039C3EB0160E0E1DF8091EC
:1001E0007A0086FDFCCF8E01C12CD12C7601809146
:1001F0007A00806480937A0080917A0086FDFCCF3B
:10020000C3DFC80ED91EE11CF11C015011090115F4
:10021000110569F7CE0196958795C034D10530F464
:100220008C0D9D1DBE01D1D2CB010DC0A701960141
:10023000280F391F411D511DCA01B9019E0140E01F
:1002400050E0D7D2C901CDB7DEB7E8E01AC364E108
:1002500070E087E0BCCFCF92DF92EF92FF92A09147
:100260000101B09102019C01A1D26B017C0186DFEA
:10027000882359F0C701B60161587F4F8F4F9F4FB8
:100280002FEF30E040E050E00AC0C701B6016150F6
:100290007E4F8F4F9F4F2FEF33E040E050E0A9D2C9
:1002A000C901FF90EF90DF90CF900895D4CF0895CB
:1002B00080E090E0089581E090E06F9364E06A95BB
:1002C000F1F76F910197C9F708950F931F93CF939B
:1002D000DF931AB157985A98289AC0E0D0E0EBDF24
:1002E0005C9AE9DF09B15C98E6DF5C9AE4DF5C9830
:1002F000249607FF10C0AE0160E070E080913A01E3
:1003000090913B01A0913C01B0913D0148175907E4
:100310006A077B0720F31AB9DF91CF911F910F91E4
:10032000089595B1282F217030E0220F331F482FF8
:10033000467068E0469FA0011124242B9D7C292B48
:1003400025B99BB188708295807F9F77892B8BB967
:100350005C9AB1DF5C98AFCFA0E0B0E0E1EBF1E0F8
:1003600075C2C82FD62EE42E80914C01811104C095
:1003700081E080934C012AD0A8DF14B1D5B1FAB046
:100380000BB12898DD2011F05A9A01C05A9894B107
:10039000926394B9579A81E0E81621F08C2F8295E8
:1003A0008F70BFDF8C2F8F70BCDFFAB80BB914B918
:1003B000D5B9CDB7DEB7E7E065C242E060E0CCCFAB
:1003C00042E061E0C9CF41E060E0C6CF80E197E262
:1003D000A0E0B0E080933A0190933B01A0933C01F0
:1003E000B0933D01529A209A549A8EE190E0DCD16C
:1003F00083E0E9DF86E090E0D7D183E0E4DF82E0CC
:1004000090E0D2D183E0DFDF82E090E0CDD182E0E6
:10041000DADF82E090E0C8D188E2CFDF88E0CDDF8C
:1004200081E0CBDF86E0C9DF8CE0C7CF81E0C5DFAC
:100430008091400190914101892BF9F060E0A0E2A8
:10044000262F30E0709103018091040190E0019724
:10045000789FA001799F500D1124241735074CF483
:10046000E0914001F0914101E20FF31FA0836F5F23
:10047000E7CF10923E0110923F010895D7CF089523
:10048000A5E0B0E0E5E4F2E0E5C1182F80E889835B
:1004900080EC8A8384E98B8384ED8C83FE01E60FF4
:1004A000F11D8181810F6D8388DF10933E016D8185
:1004B00060933F012596E3E0E9C1FF920F931F93FC
:1004C000CF93DF93C82F8091400190914101892BF8
:1004D00041F48C2F992787FD9095CDB7DEB7E5E0E5
:1004E000D3C1CA3009F43DC0C830C1F480913E0187
:1004F000815080933E018F3F51F480913F018150A4
:1005000080933F0180910301815080933E0180914F
:100510003F018F3FB9F510923F0132C08C2F50DF61
:1005200080913F018823A1F090E001974091030161
:10053000489F9001499F300D112480913E01E09128
:100540004001F0914101E20FF31FE80FF11DC0835C
:1005500080913E018F5F80933E019091030189134A
:10056000B8CF40913F01842F90E02091040130E00A
:10057000215031098217930759F04F5F40933F0193
:1005800010923E0160913F0180913E0179DFA1CF41
:10059000D0E060910401862F90E002972D2F332741
:1005A00027FD3095281739077CF56D2F80E068DF2F
:1005B000F12C20910301F21628F50F2D10E03D2FAC
:1005C0003203C0011124E0914001F0914101E00F9C
:1005D000F11FE80FF91F8081F3DEE0914001F091F7
:1005E0004101209103013D2F3203C0011124E00F8E
:1005F000F11FE80FF91FDF01A20FB11D8C9180835D
:10060000F394D7CFDF5FC5CF623038F46091040137
:10061000615080E035DFD0E037C0625080E030DFED
:10062000D0E060E2F62E40910301D41778F70D2F49
:1006300010E02091040130E022503109429FC001B6
:10064000439F900D1124E0914001F0914101E00F92
:10065000F11FE80FF91F8081B3DE2091040130E023
:100660002250310940910301429FC001439F900DE8
:100670001124E0914001F0914101E00FF11FE80FDA
:10068000F91FF082DF5FCFCF80910301D81708F008
:1006900077CF80E295DEDF5FF7CFF2CE08958091CD
:1006A000400190914101009709F094D120910301FC
:1006B0008091040190E00197AC01249FC001259F27
:1006C000900D1124EFD09093410180934001892B2C
:1006D00001F160E0A0E2262F30E0709103018091EB
:1006E000040190E00197789FA001799F500D11249B
:1006F000241735074CF4E0914001F0914101E20FDD
:10070000F31FA0836F5FE7CF68E571E08DE592E0AE
:10071000F0C10895C4CF08952F928F939F932FB661
:100720008091490190914A010196809349019093EB
:100730004A0190E080914B01891F80934B01909179
:1007400043019C5F90934301809142018051974205
:10075000C0F09093430180934201809144019091B5
:1007600045010196809344019093450190E080916A
:100770004601891F8093460180914701891F80931C
:1007800047012FBE9F918F912F90189528EE33E04F
:10079000019748F0F9016F9364E06A95F1F76F9162
:1007A0003197C9F7F5CF0895F1CF0895A29FB00111
:1007B000B39FC001A39F700D811D1124911DB29F95
:1007C000700D811D1124911D0895AA1BBB1B51E1C1
:1007D00007C0AA1FBB1FA617B70710F0A61BB70BB1
:1007E000881F991F5A95A9F780959095BC01CD0156
:1007F0000895A1E21A2EAA1BBB1BFD010DC0AA1F62
:10080000BB1FEE1FFF1FA217B307E407F50720F079
:10081000A21BB30BE40BF50B661F771F881F991FF4
:100820001A9469F760957095809590959B01AC013D
:10083000BD01CF0108952F923F924F925F926F9228
:100840007F928F929F92AF92BF92CF92DF92EF9260
:10085000FF920F931F93CF93DF93CDB7DEB7CA1BE1
:10086000DB0B0FB6F894DEBF0FBECDBF09942A880C
:10087000398848885F846E847D848C849B84AA84B4
:10088000B984C884DF80EE80FD800C811B81AA8141
:10089000B981CE0FD11D0FB6F894DEBF0FBECDBF0C
:1008A000ED010895CF93DF938230910510F482E03B
:1008B00090E0E0914F01F091500120E030E0A0E0A5
:1008C000B0E0309739F14081518148175907B8F0AD
:1008D0004817590771F482819381109729F0139674
:1008E0009C938E9312972CC09093500180934F014C
:1008F00027C02115310531F04217530718F0A9011F
:10090000DB0101C0EF019A01BD01DF010280F3812B
:10091000E02DD7CF21153105F9F0281B390B2430F4
:10092000310580F48A819B816115710521F0FB01FD
:100930009383828304C09093500180934F01FE0102
:10094000329644C0FE01E20FF31F8193919322502F
:100950003109398328833AC020914D0130914E01ED
:10096000232B41F4209107013091080130934E016F
:1009700020934D012091050130910601211531058B
:1009800041F42DB73EB74091090150910A01241B53
:10099000350BE0914D01F0914E01E217F307A0F401
:1009A0002E1B3F0B2817390778F0AC014E5F5F4FC5
:1009B0002417350748F04E0F5F1F50934E014093A8
:1009C0004D018193919302C0E0E0F0E0CF01DF910F
:1009D000CF910895CF93DF93009709F487C0FC016E
:1009E000329713821282C0914F01D091500120970B
:1009F00081F420813181280F391F80914D01909120
:100A00004E018217930779F5F0934E01E0934D0163
:100A10006DC0DE0120E030E0AE17BF0750F4129643
:100A20004D915C9113979D014115510509F1DA0132
:100A3000F3CFB383A28340815181840F951F8A171E
:100A40009B0771F48D919C911197840F951F0296CD
:100A50009183808312968D919C91139793838283C7
:100A60002115310529F4F0935001E0934F013EC068
:100A7000D9011396FC93EE9312974D915D91A40FBB
:100A8000B51FEA17FB0779F480819181840F951FC8
:100A90000296D90111969C938E938281938113962D
:100AA0009C938E931297E0E0F0E08A819B810097FF
:100AB00019F0FE01EC01F9CFCE01029628813981AF
:100AC000820F931F20914D0130914E012817390755
:100AD00069F4309729F41092500110924F0102C02E
:100AE00013821282D0934E01C0934D01DF91CF91BA
:100AF00008950F931F93CF93DF93EC018B01009721
:100B000031F46115710519F480E090E037C06EE0B2
:100B100070E081E090E010D2FC010097A9F380E83A
:100B200083830115110571F01387028781E88383A0
:100B30008091510190915201892B21F4F09352013F
:100B4000E09351012097C9F0D187C08783818260EB
:100B500083838091530190915401892B71F4F09318
:100B60005401E09353018091550190915601892BD6
:100B700021F4F0935601E0935501CF01DF91CF911D
:100B80001F910F910895A0E0B0E0E8ECF5E063CE8E
:100B9000FE01359661917191AF0180915301909161
:100BA000540107D0E2E073CE60915301709154017B
:100BB000FAC1ACE0B0E0EEEDF5E03DCE7C016B01BA
:100BC0008A01FC0117821682838181FFB0C1CE01A8
:100BD00001964C01F7019381F60193FD859193FFF6
:100BE00081916F01882309F49EC1853239F493FD08
:100BF000859193FF81916F01853221F4B70190E0D7
:100C0000D2D1E8CF512C312C20E02032A0F48B320D
:100C100069F030F4803259F0833269F420612CC0DD
:100C20008D3239F0803339F4216026C0226024608F
:100C300023C0286021C027FD27C030ED380F3A308F
:100C400078F426FF06C0FAE05F9E300D1124532E83
:100C500013C08AE0389E300D1124332E20620CC060
:100C60008E3221F426FD5FC1206406C08C3611F45B
:100C7000206802C0883641F4F60193FD859193FF08
:100C800081916F018111C1CF982F9F7D9554933031
:100C900028F40C5F1F4FFFE3F9830DC0833631F05A
:100CA000833771F0833509F057C021C0F801808186
:100CB00089830E5F1F4F44244394512C540114C068
:100CC0003801F2E06F0E711CF801A080B18026FFA0
:100CD00003C0652D70E002C06FEF7FEFC5012C8768
:100CE00057D12C0183012C852F77222E16C0380175
:100CF000F2E06F0E711CF801A080B18026FF03C0E6
:100D0000652D70E002C06FEF7FEFC5012C872ED1FB
:100D10002C012C852068222E830123FC19C0832DF1
:100D200090E048165906A0F4B70180E290E03BD16C
:100D30003A94F5CFF50127FC859127FE81915F015B
:100D4000B70190E030D131103A94F1E04F1A5108D8
:100D50004114510479F7DEC0843611F0893631F53B
:100D6000F80127FF07C060817181828193810C5F48
:100D70001F4F08C060817181882777FD8095982F6B
:100D80000E5F1F4F2F76B22E97FF09C0909580956A
:100D9000709561957F4F8F4F9F4F2068B22E2AE04C
:100DA00030E0A40132D1A82EA81843C0853729F419
:100DB0002F7EB22E2AE030E025C0F22FF97FBF2E21
:100DC0008F36C1F018F4883579F0ADC0803719F04E
:100DD000883721F0A8C02F2F2061B22EB4FE0DC09D
:100DE0008B2D8460B82E09C024FF0AC09F2F966007
:100DF000B92E06C028E030E005C020E130E002C096
:100E000020E132E0F801B7FE07C060817181828184
:100E100093810C5F1F4F06C06081718180E090E07C
:100E20000E5F1F4FA401F1D0A82EA818FB2DFF774D
:100E3000BF2EB6FE0BC02B2D2E7FA51450F4B4FE92
:100E40000AC0B2FC08C02B2D2E7E05C07A2C2B2D9B
:100E500003C07A2C01C0752C24FF0DC0FE01EA0DE1
:100E6000F11D8081803311F4297E09C022FF06C064
:100E70007394739404C0822F867809F0739423FDD1
:100E800012C020FF06C05A2C731418F4530C5718C4
:100E9000732C731460F4B70180E290E02C8783D048
:100EA00073942C85F6CF731410F4371801C0312CCD
:100EB00024FF11C0B70180E390E02C8774D02C850B
:100EC00022FF16C021FF03C088E590E002C088E73A
:100ED00090E0B7010CC0822F867851F021FD02C04E
:100EE00080E201C08BE227FD8DE2B70190E05BD08C
:100EF000A51430F4B70180E390E055D05A94F8CFB0
:100F0000AA94F401EA0DF11D8081B70190E04BD065
:100F1000A110F6CF332009F45DCEB70180E290E056
:100F200042D03A94F7CFF7018681978102C08FEFC4
:100F30009FEF2C96E2E19BCC0F931F93CF93DF930F
:100F4000869F8001879F100D969F100D1124C80168
:100F5000A9DCEC01009721F0A80160E070E011D05D
:100F6000CE01DF91CF911F910F910895FC01059063
:100F7000615070400110D8F7809590958E0F9F1F9B
:100F80000895DC0101C06D9341505040E0F7089591
:100F9000FC016150704001900110D8F78095909548
:100FA0008E0F9F1F08950F931F93CF93DF93182FDA
:100FB000092FEB018B8181FD03C08FEF9FEF20C0D4
:100FC00082FF10C04E815F812C813D814217530703
:100FD0007CF4E881F9819F012F5F3F4F398328839B
:100FE000108306C0E885F985812F0995892B29F79B
:100FF0002E813F812F5F3F4F3F832E83812F902F84
:10100000DF91CF911F910F910895FA01AA272830FF
:1010100051F1203181F1E8946F936E7F6E5F7F4FC5
:101020008F4F9F4FAF4FB1E03ED0B4E03CD0670F41
:10103000781F891F9A1FA11D680F791F8A1F911D94
:10104000A11D6A0F711D811D911DA11D20D009F4E4
:1010500068943F912AE0269F11243019305D319326
:10106000DEF6CF010895462F4770405D4193B3E00F
:101070000FD0C9F7F6CF462F4F70405D4A3318F0B6
:10108000495D31FD4052419302D0A9F7EACFB4E067
:10109000A6959795879577956795BA95C9F700971F
:1010A0006105710508959B01AC010A2E06945795C0
:1010B000479537952795BA95C9F7620F731F841F17
:0A10C000951FA01D0895F894FFCFBE
:1010CA00018813080200005701200068656C6C6FE4
:1010DA00000A776F726C6400486578204465630083
:1010EA000A2530335820253364005472696D706FB5
:0A10FA00743A00253475206D56008D
:00000001FF
