:1000000025C1000041C100003FC100003DC100000A
:100010003BC1000039C1000037C1000035C10000FC
:1000200033C1000031C100002FC100000C940A0A46
:10003000B2C600009EC70000CBC700009AC30000F4
:1000400023C1000021C100001FC100001DC100002C
:100050001BC1000019C1000017C1000015C100003C
:1000600013C1000011C100000FC100000DC100004C
:100070000BC1000009C1000007C1000005C100005C
:1000800003C1000001C10000FFC0000021204F3566
:10009000204C31362061676166616561206461636F
:1000A0002B61646165612066613C61613C626163F2
:1000B00023612064616323616461656120664F365A
:1000C000206463643C622D643C61643C6720643C52
:1000D000662B643C67643C61643C622D20643C6434
:1000E000643C65643C662B643C6720643C662B641E
:1000F0003C67643C61644C38204D53203C622D6465
:100100003C622D64204D4C652D3C67652D3C67207D
:100110004D53633C61633C61204D4C20643C6664FC
:100120003C66204F35204D5320622D67622D674D70
:100130004C203E6323653E632365204D532061665A
:100140006166204D4C20676323676323204D532055
:1001500066646664204D4C20653C622D653C622DD2
:100160004F36204C3136726167616661656120648B
:1001700061632361646165612066613C61613C6229
:10018000616323612064616323616461656120664A
:10019000616561646163613C622D61636164673CB8
:1001A000622D67206567646763673C622D67203C4A
:1001B00061673C622D6763663C61662064666366C6
:1001C0003C622D663C61663C67663C61663C622D24
:1001D000653C6765206323653C622D653C61653C39
:1001E0006765203C66653C67653C61643C66644FBE
:1001F0003520653E65653E65663E64663E64206208
:100200002D3E6323622D3E6323613E64663E64207F
:10021000653E65653E65663E64663E64653E643E79
:1002200063233E64623E643E632362203E63236137
:100230006761656766652066204F362064632364C6
:10024000666463233C6220632334000011241FBED4
:10025000CFEFD0E4DEBFCDBF11E0A0E0B1E0E6E239
:10026000FFE100E00BBF02C007900D92A233B1077F
:10027000D9F711E0A2E3B1E001C01D92AC36B1079D
:10028000E1F714D00C94910FBBCE809100018F5FE9
:10029000809300010895CF93DF93EB010E94A50A9C
:1002A000CE010E94520ADF91CF910895A2E0B0E002
:1002B000ECE5F1E00C942B0B8CE890E0C7D27CD3FA
:1002C000C5D483E191E09F938F930E94C60C88EC84
:1002D00090E00E94520A8EE290E00E94D70C88ECD7
:1002E00090E00E94520A8EE290E00E94D70C88ECC7
:1002F00090E00E94520A8EE290E00E94D70C84EFB8
:1003000091E00E94520A0F900F9009E111E0FF2442
:10031000F39452D31F930F930E94C60C82E5CBD463
:100320001982FA8222E0AE014F5F5F4F60E080E009
:1003300090E0E7D760EB74E080E00E94AC0960EBEE
:1003400074E081E00E94AC0982E390E00E94520ACE
:1003500068EC70E080E00E94D10964E670E081E022
:100360000E94D1090F900F9060EB74E080E0F4D709
:1003700062E370E08CE38FDF62E370E084E38BDFA5
:1003800060EB74E081E0E8D780E991E00E94520AD6
:1003900082E574D4811114C068E077E080E0DCD796
:1003A00088EC90E00E94520A68E077E081E0D4D7C0
:1003B00080E991E00E94520A82E560D48823A1F28C
:1003C00082E55CD49BD40E94080A88E291E030D296
:1003D00088EE93E00E94520A9CCF90913701E09101
:1003E0003201F0913301992311F0849101C0808191
:1003F0002FEB280F2A3110F4805E0895803249F4E3
:100400009F012F5F3F4F3093330120933201EF2B39
:1004100031F708951F93CF93DF93DFDFC0E0D0E083
:100420001AE090ED980F9A30B0F49E01129FE0010F
:10043000139FD00D1124C80FD11D87FDDA95E097C9
:100440008091320190913301019690933301809312
:100450003201C3DFE6CFCE01DF91CF911F91089526
:1004600010926F0083E08093800081E1809381008F
:100470001092820080E197E2909389008093880037
:1004800010928B0010928A00789408958091340124
:10049000811104C081E080933401E2CF0895CF92AE
:1004A000DF92FF920F931F93CF93DF931F92CDB7ED
:1004B000DEB7F82E6B014983E9DF10920A010FE6DF
:1004C00010E0F801108260E089810E94A70AB6015D
:1004D0008F2D0E94850AD0923A01C092390186B3CD
:1004E0008FEF86BB81E0F801808378940F90DF91D5
:1004F000CF911F910F91FF90DF90CF900895A2E0D0
:10050000B0E0E5E8F2E00C94200B909009018091B6
:100510003601882321F060913501611117C07724DD
:10052000739430ECA32E3DE5B32E4AE0642E54E0E4
:10053000852E60EDC62E67E0D62E74E0E72EF12CF6
:1005400004EF11E0EFE04E2E512C13C070E040E0BC
:100550008FEFA5DF1092350109C18636CCF58136C3
:1005600009F4A1C074F58C3309F45CC08E3379F4BE
:10057000939433DF20913201309133012F5F3F4F4D
:100580003093330120933201853639F74FC08132E1
:1005900009F084C080920901D0920801C09207013D
:1005A000F0920601E092050110930401009303010B
:1005B00050920201409201011092360124E0922EE5
:1005C000D8CF833689F10CF471C010E082E070C09E
:1005D0008D36A9F18CF4873679F15CF18C3609F00F
:1005E0005DC018DFBC0190930601809305018091E6
:1005F0000701909108014CC08237B1F144F48F3665
:1006000009F04CC007DF982E80930901B2CF8437E0
:1006100071F1863709F042C0FDDE909302018093AC
:100620000101A7CF9A94A5CF10E01FC010E084E08D
:100630003FC010E085E03CC010E087E039C0CDDE6F
:100640008C3619F41092360104C070923601109263
:10065000350120913201309133012F5F3F4F3093AC
:1006600033012093320185CF11E080E021C0D2DE3A
:10067000BC01C501CFD7669EC001679E900D1124B5
:100680009093080180930701609105017091060124
:10069000C1D770930401609303016BCF10923301B3
:1006A0001092320163C010E089E002C010E08BE0DC
:1006B000082F9CE0999E000D11248FDE982F977FC4
:1006C000933261F420913201309133012F5F3F4F1B
:1006D00030933301209332010F5FEFCF8D3269F4F5
:1006E00020913201309133012F5F3F4F309333011E
:1006F00020933201015071DEF1CF609103017091BE
:1007000004018153883040F4E0900701F090080123
:1007100081DEBC01C7017ED77B01F694E794698333
:100720007A835BDE69817A818E3269F420913201AD
:10073000309133012F5F3F4F3093330120933201CB
:100740006E0D7F1DEACF80913601882339F09B0121
:100750003695279520933501621B7109409101015F
:10076000112311F08FEF01C0802F99DE2296E0E176
:1007700083C71F920F920FB60F9211240BB60F92E0
:100780002F933F934F935F936F937F938F939F9399
:10079000AF93BF93EF93FF938091390190913A010A
:1007A0009C012150310930933A0120933901892B62
:1007B00009F510926F00789480918100887F8160A4
:1007C0008093810080E197E2909389008093880074
:1007D00010928B0010928A0081E080930A01809130
:1007E000320190913301892B29F0809138018111D8
:1007F00001C085DEFF91EF91BF91AF919F918F91E5
:100800007F916F915F914F913F912F910F900BBE10
:100810000F900FBE0F901F90189510926F0090933D
:10082000330180933201109237011092350167CE67
:10083000F4CF089510926F009093330180933201AA
:1008400081E0809337011092350159CEF3CF08959E
:1008500080E090E0089581E090E06F9364E06A9515
:10086000F1F76F910197C9F708951F93CF93DF9325
:1008700017B13F982898299AC0E0D0E0ECDF2B9A76
:10088000EADF86B12B98229687FF10C0AE0160E0A8
:1008900070E080913B0190913C01A0913D01B091AD
:1008A0003E01481759076A077B0740F317B9DF91E4
:1008B000CF911F91089588B92B9ACDDF2B98CBCF7C
:1008C000A1E0B0E0E5E6F4E0C6C6062F9091600135
:1008D000911106C091E090936001898317D08981BE
:1008E0008983C3DF17B1F8B029988981002311F0FB
:1008F000289A01C028989FEF97B9DDDF17B9F8B89B
:100900002196E5E0C4C642E060E0DACF80E197E2FC
:10091000A0E0B0E080933B0190933C01A0933D01A7
:10092000B0933E01209A219A239A8EE190E0BAD5A5
:1009300080E3E9DF86E090E0B5D580E3E4DF82E0A4
:1009400090E0B0D580E3DFDF82E090E0ABD588E3D4
:10095000DADF88E0D8DF81E0D6DF86E0D4DF8CE024
:10096000D2CF42E061E0ACCF81E0CDDF80914101A8
:1009700090914201892BF9F060E0A0E2262F30E04F
:1009800070910B0180910C0190E00197789FA0017C
:10099000799F500D1124241735074CF4E091410143
:1009A000F0914201E20FF31FA0836F5FE7CF109237
:1009B0003F01109240010895D7CF0895A5E0B0E01F
:1009C000E3EEF4E04AC6182F80E8898380EC8A833E
:1009D00084E98B8384ED8C83FE01E60FF11D818118
:1009E000810F6D8390DF10933F016D816093400113
:1009F0002596E3E04EC6FF920F931F93CF93DF93AC
:100A0000C82F8091410190914201892B41F48C2F94
:100A1000992787FD9095CDB7DEB7E5E038C6CA3097
:100A200009F43DC0C830C1F480913F0181508093EA
:100A30003F018F3F51F480914001815080934001EC
:100A400080910B01815080933F01809140018F3F45
:100A5000B9F51092400132C08C2F83DF80914001A4
:100A60008823A1F090E0019740910B01489F9001ED
:100A7000499F300D112480913F01E0914101F09197
:100A80004201E20FF31FE80FF11DC08380913F0187
:100A90008F5F80933F0190910B018913B8CF4091F4
:100AA0004001842F90E020910C0130E02150310969
:100AB0008217930759F04F5F4093400110923F0116
:100AC0006091400180913F0179DFA1CFD0E060913A
:100AD0000C01862F90E002972D2F332727FD3095AC
:100AE000281739077CF56D2F80E068DFF12C209105
:100AF0000B01F21628F50F2D10E03D2F3203C00137
:100B00001124E0914101F0914201E00FF11FE80F43
:100B1000F91F808126DFE0914101F091420120918F
:100B20000B013D2F3203C0011124E00FF11FE80F2C
:100B3000F91FDF01A20FB11D8C918083F394D7CFF1
:100B4000DF5FC5CF623038F460910C01615080E006
:100B500035DFD0E037C0625080E030DFD0E030E2F7
:100B6000F32E40910B01D41778F70D2F10E0209150
:100B70000C0130E022503109429FC001439F900D8B
:100B80001124E0914101F0914201E00FF11FE80FC3
:100B9000F91F8081E6DE20910C0130E022503109FE
:100BA00040910B01429FC001439F900D1124E091A1
:100BB0004101F0914201E00FF11FE80FF91FF082AF
:100BC000DF5FCFCF80910B01D81708F077CF80E29D
:100BD000C8DEDF5FF7CF809141019091420100971D
:100BE00009F0FBD520910B0180910C0190E0019759
:100BF000AC01249FC001259F900D112456D59093E0
:100C0000420180934101892B01F160E0A0E2262F8F
:100C100030E070910B0180910C0190E00197789F7A
:100C2000A001799F500D1124241735074CF4E09151
:100C30004101F0914201E20FF31FA0836F5FE7CF04
:100C400068E274E08BEF94E057C60895C4CF08952E
:100C500087B18D7A87B985E090E06F9364E06A95FB
:100C6000F1F76F910197C9F70895809161018111A2
:100C700004C081E080936101EBCF0895A1E0B0E072
:100C8000E3E4F6E0EBC48983F0DF96B18981892340
:100C90002196E2E0FFC4CF93C82FE7DF86B18C2313
:100CA000E9F38AE090E0FED386B18C23B9F386B1F4
:100CB0008C23CF910895EFCF08951F93CF93DF93A7
:100CC000182FD3DFC12FD0E026B130E0209530952A
:100CD0002C233D23232BC1F38AE090E0E3D326B1FC
:100CE00030E0209530952C233D23232B69F386B1EA
:100CF00080958123DF91CF911F910895DECF0895D4
:100D0000683050F421E001C0220F6A95EAF7AAE2A8
:100D1000B0E0EBE2F0E030C0603158F4685021E020
:100D200001C0220F6A95EAF7A4E2B0E0E5E2F0E044
:100D300023C0683158F4605121E001C0220F6A9548
:100D4000EAF7A7E2B0E0E8E2F0E016C0603278F43B
:100D50002FE130E0261B310931E001C0330F2A9525
:100D6000EAF7232FA1E2B0E0E2E2F0E005C020E0E4
:100D7000A0E0B0E0E0E0F0E04081322F3095342395
:100D800030833C91322B3C93DC011196FC93EE9323
:100D900012962C9308951F920F920FB60F92112462
:100DA0000BB60F921F932F933F934F935F936F93C5
:100DB0007F938F939F93AF93BF93CF93DF93EF93E3
:100DC000FF93109147011F5F1770109347011F5F3A
:100DD000177080914901181728F01092890010921D
:100DE000880043C0212F30E0220F331FE0915401CF
:100DF000F0915501E20FF31F40815181A0914C0108
:100E0000B0914D01A20FB31F6D917C91A091500143
:100E1000B091510161157105F1F041155105D9F0FD
:100E2000ED01C20FD31F888199810097A1F0481767
:100E3000590738F4460F571F4817590780F4CA015D
:100E40000EC09C01260F371F4217530740F0CA01FE
:100E5000861B970B04C0A20FB31F8D919C9190939A
:100E600089008093880091838083809148011817BE
:100E700028F010928B0010928A0039C0812F90E0E8
:100E8000880F991FE0915201F0915301E80FF91F6B
:100E900040815181A0914A01B0914B01A80FB91F27
:100EA0002D913C9160914E0170914F01DB01A80F93
:100EB000B91F8D919C912115310599F0481759075B
:100EC00038F4240F351F2817390758F4C90109C011
:100ED000BC01620F731F4617570718F0CA01821B27
:100EE000930B90938B0080938A00918380838091F1
:100EF000470190914901891780F4E0914501F091F3
:100F0000460193E0899FE00DF11D1124A081B1817C
:100F10009C918281809589238C9380914701909147
:100F20004801891780F4E0914301F091440193E076
:100F3000899FE00DF11D1124A081B1819C918281D6
:100F4000809589238C93FF91EF91DF91CF91BF9191
:100F5000AF919F918F917F916F915F914F913F9151
:100F60002F911F910F900BBE0F900FBE0F901F90EF
:100F700018951F920F920FB60F9211240BB60F9275
:100F80008F939F93AF93BF93EF93FF93809147010C
:100F900090914901891778F4E0914501F09146015B
:100FA00093E0899FE00DF11D1124A081B1818C9106
:100FB000928189278C93FF91EF91BF91AF919F917F
:100FC0008F910F900BBE0F900FBE0F901F90189532
:100FD0001F920F920FB60F9211240BB60F928F93A0
:100FE0009F93AF93BF93EF93FF93809147019091AD
:100FF0004801891778F4E0914301F091440193E0AE
:10100000899FE00DF11D1124A081B1818C91928105
:1010100089278C93FF91EF91BF91AF919F918F9111
:101020000F900BBE0F900FBE0F901F9018958091E0
:10103000450190914601009729F0CFD310924601C7
:10104000109245018091540190915501009729F02B
:10105000C4D3109255011092540180915001909187
:101060005101009729F0B9D310925101109250010B
:1010700080914C0190914D01009729F0AED31092D0
:101080004D0110924C0180914301909144010097D1
:1010900029F0A3D310924401109243018091520190
:1010A00090915301009729F098D310925301109218
:1010B000520180914E0190914F01009729F08DD3FC
:1010C00010924F0110924E0180914A0190914B0174
:1010D000009729F082D310924B0110924A01089593
:1010E000A0E0B0E0E5E7F8E0ADC2782E692EC42EAE
:1010F000B52E10926F001092340181E080930A01A6
:10110000109233011092320110928100A62E88E0D5
:10111000861710F4E8E0AE2EA092490182E0809399
:101120008000D22E28E02D1510F478E0D72ED09232
:1011300048017DDF23E0A29EC0011124B6D24C01FC
:101140009093460180934501C0914901D0E0CC0FB6
:10115000DD1FCE01AAD27C019093550180935401EA
:10116000CE01A3D28C019093510180935001CE0106
:101170009CD290934D0180934C018114910419F4F9
:1011800056DF81E0BAC0E114F104D1F30115110575
:10119000B9F3892BA9F3D11006C0F72CC72DD62D92
:1011A00000E010E031C023E0D29EC00111247DD2C6
:1011B0004C019093440180934301C0914801D0E0D9
:1011C000CC0FDD1FCE0171D27C019093530180932F
:1011D0005201CE016AD28C0190934F0180934E014F
:1011E000CE0163D290934B0180934A018114910404
:1011F00039F2E114F10409F4C3CF0115110509F422
:10120000BFCF892B51F6BCCF8C2F8F198A1558F47C
:1012100069918091450190914601800F911F70DD89
:101220000D5F1F4FF1CF90914901E0915401F09172
:101230005501A0915001B0915101C0914C01D09144
:101240004D0180E0891741F0119211921D921D927B
:10125000199219928F5FF6CFAC2CCC2DDB2D00E0CC
:1012600010E0E12CF12C8C2F8A198D1530F5699145
:1012700080914301909144018E0D9F1D41DDE091CD
:101280005201F0915301E00FF11F11821082E091A1
:101290004E01F0914F01E00FF11F11821082E09199
:1012A0004A01F0914B01E00FF11F1182108283E09F
:1012B000E80EF11C0E5F1F4FD6CF1092470181E15F
:1012C0008093810088EA91E690938700809386005E
:1012D0008FEF86BB80916F00806280936F00DD206E
:1012E00029F080916F00846080936F0080916F007F
:1012F000826080936F00789480E0CDB7DEB7EEE037
:10130000BDC1EECE089590914801891720F59091C6
:101310006F009F7D90936F00877020914E01909198
:101320004F01E22FF92FE80FF11DE80FF11DCB015E
:10133000633929E0720710F082E999E04AE0489F9A
:101340009001499F300D11243183208380916F00DB
:10135000806280936F000895D6CF089590914801E0
:101360008917F0F490916F009F7D90936F008770C4
:1013700020914A0190914B01E22FF92FE80FF11DC6
:10138000E80FF11DCB01693A21E6720710F088EAF7
:1013900091E69183808380916F00806280936F00DB
:1013A0000895DCCF089510926F0010928000109283
:1013B000810090E080914901981790F4E0914501F7
:1013C000F091460183E0989FE00DF11D1124A0816A
:1013D000B1812C918281809582238C939F5FEACF8B
:1013E00090E080914801981790F4E0914301F091CA
:1013F000440183E0989FE00DF11D1124A081B1818B
:101400002C918281809582238C939F5FEACF0FCEAF
:10141000CACF08952F928F939F932FB680915D012D
:1014200090915E01019680935D0190935E0190E042
:1014300080915F01891F80935F01909157019C5FAC
:10144000909357018091560180519742C0F090933C
:10145000570180935601809158019091590101964E
:10146000809358019093590190E080915A01891F0F
:1014700080935A0180915B01891F80935B012FBE8D
:101480009F918F912F90189528EE33E0019748F0A7
:10149000F9016F9364E06A95F1F76F913197C9F79D
:1014A000F5CF0895F1CF089563E08EEF88D080E006
:1014B000AFC0FADF8111FDCF08951F93CF93DF9363
:1014C000EC01162FF6DF9E012078332786E0369553
:1014D00027958A95E1F7AE0144275170822F852B1D
:1014E000806F212F207830E095E0359527959A95EB
:1014F000E1F7822B8DD08C2F8F778AD0812F8F7739
:1015000087D0DF91CF911F910895A2E0B0E0EAE883
:10151000FAE0A1C0182F062F7A836983FA8067FD4D
:1015200002C088E901C08CE9F7FC826017FD816088
:101530006FD0812F8F776CD08F2D8F7769D0802FD0
:101540008F7766D02296E5E0A2C0DFCF0895A1E0B4
:10155000B0E0ECEAFAE081C0182F803108F01FE01B
:1015600082EE698355D0812F53D06981662321F0A3
:10157000612F81E190E0A1DF2196E3E08AC0249908
:1015800002C02C9B11C094B1906A94B92698982FF0
:10159000937090656C7A962B9CBD82FB882780F9AE
:1015A0008DBD81E090E070CF2C9AEEE1F0E06F937A
:1015B00064E06A95F1F76F913197C9F7E4CFCF9363
:1015C000DF93D82FC62F0CB406FC03C060E085E083
:1015D000D6DF0CB404FC03C09CB590619CBDDEBD9D
:1015E0000DB407FC06C09CB5892F807194FDF8CF1F
:1015F0000CC0CC2349F08C2F90E06F9364E06A9587
:10160000F1F76F910197C9F78EB5DF91CF910895EA
:1016100060E0D5CFAA1BBB1B51E107C0AA1FBB1FAF
:10162000A617B70710F0A61BB70B881F991F5A956E
:10163000A9F780959095BC01CD0108952F923F9216
:101640004F925F926F927F928F929F92AF92BF92D2
:10165000CF92DF92EF92FF920F931F93CF93DF937E
:10166000CDB7DEB7CA1BDB0B0FB6F894DEBF0FBEDB
:10167000CDBF09942A88398848885F846E847D8428
:101680008C849B84AA84B984C884DF80EE80FD802A
:101690000C811B81AA81B981CE0FD11D0FB6F894A0
:1016A000DEBF0FBECDBFED010895CF93DF93823033
:1016B000910510F482E090E0E0916401F091650101
:1016C00020E030E0A0E0B0E0309739F14081518176
:1016D00048175907B8F04817590771F48281938168
:1016E000109729F013969C938E9312972CC0909389
:1016F00065018093640127C02115310531F042173F
:10170000530718F0A901DB0101C0EF019A01BD01E7
:10171000DF010280F381E02DD7CF21153105F9F0EB
:10172000281B390B2430310580F48A819B81611597
:10173000710521F0FB019383828304C090936501BE
:1017400080936401FE01329644C0FE01E20FF31F54
:101750008193919322503109398328833AC0209193
:10176000620130916301232B41F420910F013091EC
:101770001001309363012093620120910D0130919B
:101780000E012115310541F42DB73EB740911101ED
:1017900050911201241B350BE0916201F09163011D
:1017A000E217F307A0F42E1B3F0B2817390778F038
:1017B000AC014E5F5F4F2417350748F04E0F5F1F97
:1017C00050936301409362018193919302C0E0E0E2
:1017D000F0E0CF01DF91CF910895CF93DF93009791
:1017E00009F487C0FC01329713821282C091640110
:1017F000D0916501209781F420813181280F391F14
:1018000080916201909163018217930779F5F093BB
:101810006301E09362016DC0DE0120E030E0AE17AD
:10182000BF0750F412964D915C9113979D0141159D
:10183000510509F1DA01F3CFB383A28340815181CD
:10184000840F951F8A179B0771F48D919C911197B6
:10185000840F951F02969183808312968D919C919F
:101860001397938382832115310529F4F093650141
:10187000E09364013EC0D9011396FC93EE93129756
:101880004D915D91A40FB51FEA17FB0779F4808194
:101890009181840F951F0296D90111969C938E9386
:1018A0008281938113969C938E931297E0E0F0E0EF
:1018B0008A819B81009719F0FE01EC01F9CFCE01DE
:1018C000029628813981820F931F20916201309105
:1018D00063012817390769F4309729F410926501DC
:1018E0001092640102C013821282D0936301C093EC
:1018F0006201DF91CF9108950F931F93CF93DF93F0
:10190000EC018B01009731F46115710519F480E049
:1019100090E037C06EE070E081E090E03BD2FC01E7
:101920000097A9F380E883830115110571F01387EF
:10193000028781E883838091660190916701892BFA
:1019400021F4F0936701E09366012097C9F0D187F5
:10195000C08783818260838380916801909169014F
:10196000892B71F4F0936901E093680180916A0119
:1019700090916B01892B21F4F0936B01E0936A0144
:10198000CF01DF91CF911F910F910895CF93DF93F6
:10199000CDB7DEB7FE01359661917191AF018091AF
:1019A00068019091690108D0DF91CF91089560910D
:1019B00068017091690125C22F923F924F925F9208
:1019C0006F927F928F929F92AF92BF92CF92DF924F
:1019D000EF92FF920F931F93CF93DF93CDB7DEB7B4
:1019E0002C970FB6F894DEBF0FBECDBF7C016B0104
:1019F0008A01FC0117821682838181FFB0C1CE016A
:101A000001964C01F7019381F60193FD859193FFB7
:101A100081916F01882309F49EC1853239F493FDC9
:101A2000859193FF81916F01853221F4B70190E098
:101A3000E8D1E8CF512C312C20E02032A0F48B32B9
:101A400069F030F4803259F0833269F420612CC09F
:101A50008D3239F0803339F4216026C02260246051
:101A600023C0286021C027FD27C030ED380F3A3051
:101A700078F426FF06C0FAE05F9E300D1124532E45
:101A800013C08AE0389E300D1124332E20620CC022
:101A90008E3221F426FD5FC1206406C08C3611F41D
:101AA000206802C0883641F4F60193FD859193FFCA
:101AB00081916F018111C1CF982F9F7D95549330F3
:101AC00028F40C5F1F4FFFE3F9830DC0833631F01C
:101AD000833771F0833509F057C021C0F801808148
:101AE00089830E5F1F4F44244394512C540114C02A
:101AF0003801F2E06F0E711CF801A080B18026FF62
:101B000003C0652D70E002C06FEF7FEFC5012C8729
:101B10006DD12C0183012C852F77222E16C0380120
:101B2000F2E06F0E711CF801A080B18026FF03C0A7
:101B3000652D70E002C06FEF7FEFC5012C8744D1A7
:101B40002C012C852068222E830123FC19C0832DB3
:101B500090E048165906A0F4B70180E290E051D118
:101B60003A94F5CFF50127FC859127FE81915F011D
:101B7000B70190E046D131103A94F1E04F1A510884
:101B80004114510479F7DEC0843611F0893631F5FD
:101B9000F80127FF07C060817181828193810C5F0A
:101BA0001F4F08C060817181882777FD8095982F2D
:101BB0000E5F1F4F2F76B22E97FF09C0909580952C
:101BC000709561957F4F8F4F9F4F2068B22E2AE00E
:101BD00030E0A40148D1A82EA81843C0853729F4C5
:101BE0002F7EB22E2AE030E025C0F22FF97FBF2EE3
:101BF0008F36C1F018F4883579F0ADC0803719F010
:101C0000883721F0A8C02F2F2061B22EB4FE0DC05E
:101C10008B2D8460B82E09C024FF0AC09F2F9660C8
:101C2000B92E06C028E030E005C020E130E002C057
:101C300020E132E0F801B7FE07C060817181828146
:101C400093810C5F1F4F06C06081718180E090E03E
:101C50000E5F1F4FA40107D1A82EA818FB2DFF77F8
:101C6000BF2EB6FE0BC02B2D2E7FA51450F4B4FE54
:101C70000AC0B2FC08C02B2D2E7E05C07A2C2B2D5D
:101C800003C07A2C01C0752C24FF0DC0FE01EA0DA3
:101C9000F11D8081803311F4297E09C022FF06C026
:101CA0007394739404C0822F867809F0739423FD93
:101CB00012C020FF06C05A2C731418F4530C571886
:101CC000732C731460F4B70180E290E02C8799D0F4
:101CD00073942C85F6CF731410F4371801C0312C8F
:101CE00024FF11C0B70180E390E02C878AD02C85B7
:101CF00022FF16C021FF03C088E590E002C088E7FC
:101D000090E0B7010CC0822F867851F021FD02C00F
:101D100080E201C08BE227FD8DE2B70190E071D037
:101D2000A51430F4B70180E390E06BD05A94F8CF5B
:101D3000AA94F401EA0DF11D8081B70190E061D011
:101D4000A110F6CF332009F45DCEB70180E290E018
:101D500058D03A94F7CFF7018681978102C08FEF70
:101D60009FEF2C960FB6F894DEBF0FBECDBFDF916C
:101D7000CF911F910F91FF90EF90DF90CF90BF9088
:101D8000AF909F908F907F906F905F904F903F901B
:101D90002F9008950F931F93CF93DF93869F800119
:101DA000879F100D969F100D1124C8017EDCEC0159
:101DB000009721F0A80160E070E011D0CE01DF9122
:101DC000CF911F910F910895FC01059061507040D3
:101DD0000110D8F7809590958E0F9F1F0895DC0114
:101DE00001C06D9341505040E0F70895FC016150EF
:101DF000704001900110D8F7809590958E0F9F1F2D
:101E000008950F931F93CF93DF93182F092FEB01A2
:101E10008B8181FD03C08FEF9FEF20C082FF10C038
:101E20004E815F812C813D81421753077CF4E8810C
:101E3000F9819F012F5F3F4F39832883108306C0AC
:101E4000E885F985812F0995892B29F72E813F8116
:101E50002F5F3F4F3F832E83812F902FDF91CF91B4
:101E60001F910F910895FA01AA27283051F12031CE
:101E700081F1E8946F936E7F6E5F7F4F8F4F9F4F1E
:101E8000AF4FB1E03ED0B4E03CD0670F781F891F60
:101E90009A1FA11D680F791F8A1F911DA11D6A0F2E
:101EA000711D811D911DA11D20D009F468943F91E1
:101EB0002AE0269F11243019305D3193DEF6CF01E0
:101EC0000895462F4770405D4193B3E00FD0C9F7A6
:101ED000F6CF462F4F70405D4A3318F0495D31FD13
:101EE0004052419302D0A9F7EACFB4E0A695979566
:101EF000879577956795BA95C9F70097610571053C
:101F000008959B01AC010A2E069457954795379585
:101F10002795BA95C9F7620F731F841F951FA01DDF
:061F20000895F894FFCFC4
:101F2600010F00F4010400D0070401140400006C42
:101F360001200046756775650050726573732061F0
:101F46000A627574746F6E00636465666761623EEB
:021F5600630026
:00000001FF
