:1000000046C2000062C2000060C200005EC2000082
:100010005CC200005AC2000058C2000056C2000074
:1000200054C2000052C2000050C200000C94F90EED
:100030004CC200004AC2000048C200000C946E0C82
:1000400044C2000042C2000040C200003EC20000A4
:100050003CC200003AC2000038C2000036C20000B4
:1000600034C2000032C2000030C200002EC20000C4
:100070002CC200002AC2000028C2000026C20000D4
:1000800024C2000022C2000020C2000021204F35FF
:10009000204C31362061676166616561206461636F
:1000A0002B61646165612066613C61613C626163F2
:1000B00023612064616323616461656120664F365A
:1000C000206463643C622D643C61643C6720643C52
:1000D000662B643C67643C61643C622D20643C6434
:1000E000643C65643C662B643C6720643C662B641E
:1000F0003C67643C61644C38204D53203C622D6465
:100100003C622D64204D4C652D3C67652D3C67207D
:100110004D53633C61633C61204D4C20643C6664FC
:100120003C66204F35204D5320622D67622D674D70
:100130004C203E6323653E632365204D532061665A
:100140006166204D4C20676323676323204D532055
:1001500066646664204D4C20653C622D653C622DD2
:100160004F36204C3136726167616661656120648B
:1001700061632361646165612066613C61613C6229
:10018000616323612064616323616461656120664A
:10019000616561646163613C622D61636164673CB8
:1001A000622D67206567646763673C622D67203C4A
:1001B00061673C622D6763663C61662064666366C6
:1001C0003C622D663C61663C67663C61663C622D24
:1001D000653C6765206323653C622D653C61653C39
:1001E0006765203C66653C67653C61643C66644FBE
:1001F0003520653E65653E65663E64663E64206208
:100200002D3E6323622D3E6323613E64663E64207F
:10021000653E65653E65663E64663E64653E643E79
:1002200063233E64623E643E632362203E63236137
:100230006761656766652066204F362064632364C6
:10024000666463233C622063233400202020202046
:100250002020072048756E67617269616E205268C0
:100260006170736F6479204E6F2E2032202D2062D2
:1002700079204672616E7A204C69737A7420072067
:10028000202020202020004F3620543430204C31B4
:10029000362064233C623C66233C64233C66233C5A
:1002A00062642366235438302063233C622D3C660D
:1002B000233C63233C66233C622D6323385431384E
:1002C00030206423623C6623642366233E626423F9
:1002D00066236323622D3C6623632366233E622DDF
:1002E00063233820633E63233C63233E63233C62E5
:1002F0003E63233C63233E6323633E63233C6323CB
:100300003E63233C623E63233C63233E6323633EA0
:1003100063233C63233E63233C622D3E63233C63A3
:10032000233E6323633E63233C63233E63233C629B
:100330002D3E63233C63233E6323633E63233C6380
:10034000233E6323663E63233C63233E6323633E75
:1003500063233C63233E6323663E63233C63233E67
:100360006323633E63233C63233E632366233E6330
:10037000233C63233E6323633E63233C63233E634A
:100380002366233E63233C63233E6323642362622C
:100390002D62642362662364236323622D61622DD0
:1003A0006323622D662364230000020105091E08F1
:1003B0000404060505041C1C0000000000000000E9
:1003C0001F1F1F1F1F1F1F2176383E3E6333320041
:1003D0002167333200216533320021633332003E1E
:1003E0003E6333323E673332003E6733323E3E6314
:1003F0003332000642007F4120A54220437E005454
:10040000696D6572005472696D706F74004D75731B
:100410006963004D6F746F7273004C4344004C4528
:10042000447300426174746572790020204D656EDA
:10043000750020204D61696E002020796F752100C4
:10044000205468616E6B20002D74727920697421CC
:1004500000507265737320420073656C6563742E7F
:1004600000557365204220746F0050726F6772618F
:100470006D0044656D6F00204F72616E6775746129
:100480006E2058320020506F6C6F6C750000112484
:100490001FBECFEFD0E4DEBFCDBF12E0A0E0B1E0E1
:1004A000EAE7F3E200E00BBF02C007900D92A03331
:1004B000B107D9F712E0A0E3B2E001C01D92AB365C
:1004C000B107E1F746D70C94BB119ACD6F9364E066
:1004D0006A95F1F76F910197C9F708950E947F0A15
:1004E000BC01882777FD8095982F0E944B0E88E3EA
:1004F00091E00E94EC0D84E690E00C94410FCF93C4
:10050000DF9382E00E94B70E2091320230913302D5
:100510008823E1F0232B81F488EC90E00E94410FC6
:1005200082E00E94B70E811107C081E090914B02DA
:10053000911180E080934B028091320290913302BE
:100540000A96909333028093320206C024513109F7
:10055000309333022093320280E40E94B70E209140
:100560003002309131028823E1F0232B81F488ECB2
:1005700090E00E94410F80E40E94B70E811107C0F5
:1005800081E090914A02911180E080934A0280912B
:100590003002909131020A9690933102809330029A
:1005A00006C02451310930933102209330028091EA
:1005B00032029091330297FF04C0109233021092DE
:1005C000320280913202909133028F3F910539F0CF
:1005D00034F08FEF90E09093330280933202809159
:1005E00030029091310297FF04C0109231021092B4
:1005F000300280913002909131028F3F910539F0A5
:1006000034F08FEF90E0909331028093300280912C
:100610003202909133022AE130E0B9010E94331195
:100620006F5D7E4FFB01D08180913002909131024D
:10063000B9010E9433116F5D7E4FFB01C0818D2F88
:100640000E94B50D80914B02882311F081E601C014
:1006500081E40E94B50D8D2F0E94B50D60E085E00C
:100660000E94800E8C2F0E94B50D80914A02882333
:1006700011F083E601C083E40E94B50D8C2F0E9427
:10068000B50D209130023091310280914A028823C9
:1006900019F08FEF9FEF02C081E090E0289FB0013A
:1006A000299F700D389F700D1124209132023091D6
:1006B000330280914B02882319F08FEF9FEF02C025
:1006C00081E090E0AC01249FC001259F900D349FF4
:1006D000900D11240E949F0E82E390E00E94410F32
:1006E000DF91CF9108950F931F930E94760F009191
:1006F0004602109147022091480230914902601B46
:10070000710B820B930B6B3F71058105910550F1C5
:1007100000E010E080914502F801E80FF11D87FD2F
:10072000FA95E55BFD4F84910E94B50D0F5F1F4F59
:100730000830110579F70E94760F60934602709396
:1007400047028093480290934902809145028F5F4F
:1007500080934502992787FD90950896CC9710F0D5
:10076000109245020E94D10C811104C087E892E0EA
:100770000E94EC0C84E690E00E94410F1F910F91C3
:1007800008954F925F926F927F928F929F92AF9255
:10079000BF92CF92DF92EF92FF920E94760FC090AD
:1007A0004102D0904202E0904302F0904402CD28F2
:1007B000CE28CF2811F1C0903902D0903A02E090B3
:1007C0003B02F0903C029B01AC012C193D094E0903
:1007D0005F0980903D0290903E02A0903F02B09051
:1007E0004002820E931EA41EB51E80923D0290927E
:1007F0003E02A0923F02B092400260933902709391
:100800003A0280933B0290933C0282E00E94B70E32
:100810008823F9F08091380281111BC081E0809318
:10082000380210924102109242021092430210923A
:10083000440210923D0210923E0210923F0210922A
:1008400040020E94D10C811104C08AED93E00E9405
:10085000EC0C82E00E94B70E811102C010923802A7
:1008600080E40E94B70E882331F180913702811114
:1008700022C081E08093370281E090E0A0E0B0E008
:1008800040914102509142026091430270914402B2
:10089000452B462B472B19F080E090E0DC0180933C
:1008A000410290934202A0934302B093440280ED30
:1008B00093E00E94EC0C80E40E94B70E811102C00C
:1008C0001092370260913D0270913E0280913F028A
:1008D0009091400220EC37E249E050E00E9468111C
:1008E0008AE0C82ED12CE12CF12CCA01B901A70154
:1008F00096010E9468110E944B0E60913D0270911A
:100900003E0280913F029091400220E63AEE40E0A4
:1009100050E00E946811CA01B901A70196010E9426
:1009200068110E944B0E8AE30E94B50D60913D0252
:1009300070913E0280913F029091400228EE422E3B
:1009400023E0522E612C712CA30192010E946811A8
:100950006CE3862E912CA12CB12CCA01B901A50102
:1009600094010E946811A70196010E946811CA01B2
:10097000B9010E944B0E60913D0270913E02809140
:100980003F0290914002A30192010E946811CA01A6
:10099000B901A50194010E946811A70196010E9466
:1009A0006811B62E0E944B0E8EE20E94B50D60912A
:1009B0003D0270913E0280913F029091400224E6F8
:1009C00030E040E050E00E946811CA01B901A7017F
:1009D00096010E9468110E944B0E60913D02709139
:1009E0003E0280913F0290914002A70196010E9431
:1009F0006811CA01B901A70196010E9468110E94FD
:100A00004B0E80913602B81691F080913D02909184
:100A10003E02A0913F02B0914002892B8A2B8B2B82
:100A200031F0BFD7811103C087EC93E0D5D7B092E6
:100A30003602FF90EF90DF90CF90BF90AF909F90E5
:100A40008F907F906F905F904F900895883058F40A
:100A500091E001C0990F8A95EAF7892FAAE2B0E0E8
:100A6000EBE2F0E031C0803160F498EF980F81E064
:100A700001C0880F9A95EAF7A4E2B0E0E5E2F0E061
:100A800023C0883160F490EF980F81E001C0880F97
:100A90009A95EAF7A7E2B0E0E8E2F0E015C080320C
:100AA00070F42FE130E0281B310981E001C0880F8C
:100AB0002A95EAF7A1E2B0E0E2E2F0E005C080E0CA
:100AC000A0E0B0E0E0E0F0E06F3F19F490819827FB
:100AD00009C0662319F09081982B04C02081982FBB
:100AE0009095922390839C91982B9C930895682FC6
:100AF00087E1ACCF682F85E1A9CF0F931F93CF93E8
:100B0000DF930E94760F062F80917C008F7D80936B
:100B10007C00AED4BC0180E090E00E944B0E85EDDD
:100B200091E00E94EC0D0E94760F162F101B1436D8
:100B3000B4F49ED4EC014FE068EC70E066D52AE096
:100B40001202C0011124C817D90724F480E0CFDFB6
:100B500081E003C081E0CBDF80E0CCDFE4CFDF9138
:100B6000CF911F910F910895809100018F5F809325
:100B70000001089560E089EB93E0F5D761E08AEB2E
:100B800093E0F1D762E08BEB93E0EDD763E08DEB80
:100B900093E0E9D764E08EEB93E0E5D765E08FEB77
:100BA00093E0E1D766E089EA93E0DDD767E081EB87
:100BB00093E0D9D70C94DF0DCF93DF93C9E1D0E058
:100BC0008AE090E00E94410F80E10E94B70E8111FF
:100BD00005C021972097A1F780E001C081E0DF9157
:100BE000CF91089585E491E0E9D68BE391E0F4D7C5
:100BF00081E07DDFE1DF811157C079DFDDDF811129
:100C000053C084E491E0DAD660E080E00E94800E78
:100C100089E491E0E1D781E06DDFCEDF811144C04E
:100C200069DFCADF811140C08CE591E0C7D660E082
:100C300080E00E94800E82E591E0CED761E083E102
:100C400005DFBADF811130C060E083E1FFDEB4DF91
:100C500081112AC08BE591E0B1D660E080E00E946E
:100C6000800E80E691E0B8D761E082E1EFDEA4DF9C
:100C700081111AC060E082E1E9DE9EDF811114C0BB
:100C800089E691E09BD660E080E00E94800E81E7DB
:100C900091E0A2D761E080E1D9DE8EDF811104C04E
:100CA00060E080E1D3DE88CF0895A2E0B0E0EBE51C
:100CB000F6E00C9492118B0189839A8380D7898105
:100CC0009A8199D761E080E00E94800EC80193D795
:100CD00088EE93E00E94410F2296E4E00C94AE115E
:100CE000CF9382E50E94D40EC82F81FF03C08AED06
:100CF00093E007C084FF03C085ED93E002C080ED60
:100D000093E06AD68C2F0E94F70E8C2FCF91089516
:100D100031DF89EE93E060D667E774E085E894E020
:100D2000C4DF6AE674E082E794E0BFDF69E574E05F
:100D300081E694E0BADF43D781E594E05CD761E0D7
:100D400080E0DED788E494E056D7CADF84FFFDCF89
:100D50008FED93E041D669E374E080E494E0A5CFA1
:100D60001F93CF93DF936BE274E082E394E09DDF07
:100D7000C5E0D0E024D761E080E0C2D786EF93E001
:100D80003AD760E080E0BCD7E0913402F0913502C0
:100D9000EE0FFF1FEF5FFE4F808191812CD781E026
:100DA000B7D782E5E4D78111FCCF82E5FDD7182FB4
:100DB00081FF09C08AED93E00FD6809134029091B3
:100DC0003502019747C084FF3BC0A6D7F8D685ED12
:100DD00093E002D6812F0E94F70E80E1C8D78111DF
:100DE00016C061E080E08CD783EF93E004D760E029
:100DF00080E086D7E0913402F0913502EE0FFF1FBC
:100E0000E45DFE4F0190F081E02D0995E6CF60E0B2
:100E100070E080E090E093D7FBD5109233021092FF
:100E20003202109231021092300280E060DE80E0E7
:100E300061DE85ED93E0D0D5DF91CF911F910895CC
:100E400086FF0CC080ED93E0C7D58091340290916D
:100E500035020196909335028093340280913402DA
:100E60009091350297FF04C0D0933502C0933402AD
:100E7000809134029091350206970CF47BCF10924A
:100E800035021092340276CFA1E0B0E0EAE4F7E058
:100E90000C948A118CE890E09FD580E028DE80E0F9
:100EA00029DE8DD68AE791E097D661E080E028D7E9
:100EB00082E891E091D60E948E0F812C912CBAEF9E
:100EC000EB2EF12C08EE13E08EEEC82E82E0D82E29
:100ED00094EFA92EBB24B3940E94760F6530710560
:100EE00081059105A8F00E948E0F82E140D78823EA
:100EF00039F089838DD589812196ECE00C94A61177
:100F000085E0880E911CE8EE8E16E3E09E062CF438
:100F1000FAEF8F16910464F402C0812C912C81E0C9
:100F2000E6DDC4010196D2DA80E0E1DDC7011FC031
:100F300084EF881681E0980664F481E0D8DDC5016D
:100F400088199909C3DA80E0D2DDC401895F91096B
:100F50001BC081E0EEEE8E16E2E09E065CF4CADD78
:100F6000C401835F9140B2DA80E0C4DDC601881914
:100F700099090AC0BFDDC80188199909A7DA80E07C
:100F8000B9DDC4018D5E9240A1DAA6CFCF92DF9287
:100F9000EF92FF921F93CF93DF9300D0CDB7DEB7D0
:100FA00080E090E89A83898381E0A1DD81E0A2DD81
:100FB00006D688E891E010D661E080E0A1D681E90C
:100FC00091E00AD662E080E09BD683EA91E004D605
:100FD00080917C00806280937C0010E09FD711B8E4
:100FE00012B81AB81BB89BB18A818095892B8BB92E
:100FF0008AB19A81892B8AB992B1898180958F7340
:10100000892B82B991B189818F73892B81B9F0B015
:10101000E9B063E080E074D68E2D53D687ED91E081
:10102000DBD58F2D4ED684E190E02BD782E49FD67E
:10103000882371F011B812B81AB81BB80F900F902E
:10104000DF91CF911F91FF90EF90DF90CF900895A7
:101050004DD76B017C010CD2880F991FA0E0B0E046
:10106000C816D906EA06FB0690F289819A811123F7
:1010700019F0880F991F02C0969587959A838983E6
:1010800089819A818130910511F411E0A7CF8115F2
:10109000904809F0A3CFA1CF8F929F92AF92BF92B9
:1010A000CF92DF92EF92FF92CF936C011FD74B014B
:1010B0005C01E12CF12C1AD7681979098A099B097E
:1010C0006C157D058E059F0568F580E550D6C82F07
:1010D000882339F060E070E080E090E030D68C2F1B
:1010E00022C060E08AE00CD685EB91E075D580E007
:1010F000E5D7682F70E080E090E0B1D585ED91E014
:101100006BD561E08AE0FCD585EB91E065D581E0A7
:10111000D5D7682F70E080E090E0A1D585ED91E013
:101120005BD5C9CF80E0CF91FF90EF90DF90CF905B
:10113000BF90AF909F908F90089581E0D8DC81E0C0
:10114000D9DC3DD58BEB91E047D561E080E0D8D587
:1011500082EC91E041D540E066E480E084D740E055
:1011600060E080E0A0D740E066E481E07CD740E02A
:1011700060E081E098D760E080E0C2D589EC91E042
:101180002BD54FEF50E061E080E04DD78CEB92E043
:1011900083DF811161C060E0B3D581ED91E01CD5A2
:1011A00040E050E060E080E03ED786E990E074DF08
:1011B000811152C060E0A4D589ED91E00DD541E0E8
:1011C0005FEF61E080E02FD78CEB92E065DF81116B
:1011D00043C060E095D581EE91E0FED461E080E00F
:1011E0008FD589EE91E0F8D440E050E060E080E0F7
:1011F0001AD74FEF50E061E081E015D78CEB92E019
:101200004BDF811129C061E07BD581EF91E0E4D40F
:1012100040E050E060E081E006D786E990E03CDF06
:1012200081111AC061E06CD589EF91E0D5D441E01D
:101230005FEF61E081E0F7D68CEB92E02DDF81116A
:101240000BC061E05DD581E092E0C6D440E050E0A3
:1012500060E081E0E8D68FCF0895B1D488EC90E0CB
:1012600010D689E092E0B8D480E991E00AD661E036
:1012700080E046D583E192E0AFD481E038DC84E6BB
:1012800090E0FFD581E036DC84E690E0FAD561E0BD
:1012900083E1DCDB84E690E0F4D561E082E1D6DB3B
:1012A00084E690E0EED561E080E1D0DB84E690E07A
:1012B000E8D580E01CDC84E690E0E3D580E01ADC31
:1012C00084E690E0DED560E083E1C0DB84E690E078
:1012D000D8D560E082E1BADB84E690E0D2D560E068
:1012E00080E1B4DB84E690E0CCD569D487E192E07C
:1012F00073D405D1EC0161E080E002D5BE018827FE
:1013000077FD8095982FC7D48EE192E065D482E373
:1013100090E0B7D582E52BD5C82F882351F381E023
:10132000E6DB81E0E7DB61E083E190DB61E082E125
:101330008DDB61E080E18ADBC6FF02C0A5DD07C06E
:10134000C4FF02C023DE03C0C1FFF6CFF6DEC82F04
:10135000F3CF80E0CCDB80E0CDDB60E083E176DBC7
:1013600060E082E173DB60E080E170DB28D48AE03A
:1013700090E087D582E5FBD4882339F083E292E0C0
:101380002BD482E5F4D433D568DFC2DCE9DCFECFB0
:10139000811104C080917C008F7D03C080917C000E
:1013A000806280937C00089580917C0085FF04C05A
:1013B0008091790090E00895809178009091790073
:1013C00008958032A0F497E890937A0090917C0081
:1013D000662311F0906C02C09F779064907E982BEA
:1013E00090937C0080917A00806480937A000895C5
:1013F000A0E0B0E0EDEFF9E091C7EB0160E0E1DFE4
:1014000080917A0086FDFCCF8E01C12CD12C760113
:1014100080917A00806480937A0080917A0086FDC2
:10142000FCCFC2DFC80ED91EE11CF11C015011090E
:101430000115110569F7CE0196958795C034D10540
:1014400030F48C0D9D1DBE01FAD6CB010DC0A70155
:101450009601280F391F411D511DCA01B9019E0176
:1014600040E050E013D7C901CDB7DEB7E8E072C75E
:1014700064E170E087E0BCCFA0910D01B0910E0156
:101480009C01CED620917C0025FF09C061587F4F7A
:101490008F4F9F4F2FEF30E040E050E008C0615089
:1014A0007E4F8F4F9F4F2FEF33E040E050E0EED65E
:1014B000C90108951F93CF93DF93ECE7F0E010810B
:1014C00090819F7D90836AE070E086E091DFD4DFB9
:1014D000EC0115FB882780F95BDF9E01A8E8BCE0E2
:1014E0009FD66C507E4F8F4F9F4F28EE33E040E0E9
:1014F00050E0CCD6C901DF91CF911F910895DACF8A
:10150000089590915102E0914C02F0914D0299237F
:1015100011F0849101C080812FEB280F2A3110F443
:10152000805E0895803249F49F012F5F3F4F3093D2
:101530004D0220934C02EF2B31F708951F93CF9368
:10154000DF93DFDFC0E0D0E01AE090ED980F9A3033
:10155000B0F49E01129FE001139FD00D1124C80F1B
:10156000D11D87FDDA95E09780914C0290914D0254
:10157000019690934D0280934C02C3DFE6CFCE01DB
:10158000DF91CF911F91089510926F0083E08093B7
:10159000800081E1809381001092820080E197E2D7
:1015A000909389008093880010928B0010928A009B
:1015B0007894089580914E02811104C081E0809357
:1015C0004E02E2CF0895A1E0B0E0E8EEFAE0A6C650
:1015D0007C016B014983EEDF109218010FE610E0E9
:1015E000F801108260E08981B8D5B601C7018AD5BB
:1015F000D0925402C092530286B38FEF86BB81E033
:10160000F80180832196E8E0A5C6DDCF0895CF924A
:10161000DF92FF920F931F93CF93DF931F92CDB76B
:10162000DEB7F82E6B014983C5DF109218010FE673
:1016300010E0F801108260E089818FD5B6018F2D0E
:1016400041D5D0925402C092530286B38FEF86BB2D
:1016500081E0F801808378940F90DF91CF911F9102
:101660000F91FF90DF90CF900895A2E0B0E0EAE301
:10167000FBE04CC69090170180915002882321F026
:1016800060914F02611117C07724739430ECA32E40
:101690003DE5B32E4AE0642E54E0852E60EDC62E63
:1016A00067E0D62E74E0E72EF12C04EF11E0EFE0B6
:1016B0004E2E512C13C070E040E08FEFA8DF109247
:1016C0004F0209C18636CCF5813609F4A1C074F504
:1016D0008C3309F45CC08E3379F4939412DF20913B
:1016E0004C0230914D022F5F3F4F30934D022093BB
:1016F0004C02853639F74FC0813209F084C08092A0
:101700001701D0921601C0921501F0921401E092D7
:101710001301109312010093110150921001409295
:101720000F011092500224E0922ED8CF833689F117
:101730000CF471C010E082E070C08D36A9F18CF419
:10174000873679F15CF18C3609F05DC0F7DEBC01BB
:1017500090931401809313018091150190911601CB
:101760004CC08237B1F144F48F3609F04CC0E6DE4C
:10177000982E80931701B2CF843771F1863709F024
:1017800042C0DCDE9093100180930F01A7CF9A94A2
:10179000A5CF10E01FC010E084E03FC010E085E05E
:1017A0003CC010E087E039C0ACDE8C3619F41092F2
:1017B000500204C07092500210924F0220914C02CD
:1017C00030914D022F5F3F4F30934D0220934C02DA
:1017D00085CF11E080E021C0B1DEBC01C5012FD56D
:1017E000669EC001679E900D112490931601809310
:1017F0001501609113017091140121D570931201AC
:10180000609311016BCF10924D0210924C0263C095
:1018100010E089E002C010E08BE0082F9CE0999E68
:10182000000D11246EDE982F977F933261F4209182
:101830004C0230914D022F5F3F4F30934D02209369
:101840004C020F5FEFCF8D3269F420914C02309142
:101850004D022F5F3F4F30934D0220934C020150B9
:1018600050DEF1CF609111017091120181538830E7
:1018700040F4E0901501F090160160DEBC01C70154
:10188000DED47B01F694E79469837A833ADE69813A
:101890007A818E3269F420914C0230914D022F5F93
:1018A0003F4F30934D0220934C026E0D7F1DEACFC7
:1018B00080915002882339F09B013695279520931B
:1018C0004F02621B710940910F01112311F08FEF3C
:1018D00001C0802F9CDE2296E0E134C51F920F925A
:1018E0000FB60F9211240BB60F922F933F934F9385
:1018F0005F936F937F938F939F93AF93BF93EF9378
:10190000FF9380915302909154029C012150310920
:101910003093540220935302892B09F510926F00E3
:10192000789480918100887F81608093810080E13C
:1019300097E2909389008093880010928B00109218
:101940008A0081E08093180180914C0290914D02B1
:10195000892B29F080915202811101C086DEFF910E
:10196000EF91BF91AF919F918F917F916F915F9117
:101970004F913F912F910F900BBE0F900FBE0F9084
:101980001F90189580911801882349F081E02091DB
:101990004C0230914D02232B19F480E0089581E030
:1019A0000895F0CF089510926F0090934D028093A8
:1019B0004C021092510210924F0257CEF4CF08956C
:1019C00010926F0090934D0280934C0281E08093BF
:1019D000510210924F0249CEF3CF089510926F003A
:1019E000E1E8F0E08081887F8160808380E197E298
:1019F000909389008093880010928B0010928A0047
:101A000081E08093180110924D0210924C0258C34D
:101A1000E5CF089581E090E06F9364E06A95F1F777
:101A20006F910197C9F708951F93CF93DF9317B173
:101A30003F982898299AC0E0D0E0ECDF2B9AEADFA3
:101A400086B12B98229687FF10C0AE0160E070E04F
:101A50008091550290915602A0915702B091580280
:101A6000481759076A077B0740F317B9DF91CF91F1
:101A70001F91089588B92B9ACDDF2B98CBCFA1E089
:101A8000B0E0E4E4FDE04DC4062F909168029111AE
:101A900006C091E090936802898317D08981898379
:101AA000C3DF17B1F8B029988981002311F0289A73
:101AB00001C028989FEF97B9DDDF17B9F8B82196D4
:101AC000E5E04BC442E060E0DACF80E197E2A0E0DD
:101AD000B0E08093550290935602A0935702B093C2
:101AE0005802209A219A239A8EE190E0CAD180E38D
:101AF000E9DF86E090E0C5D180E3E4DF82E090E0BA
:101B0000C0D180E3DFDF82E090E0BBD188E3DADFA1
:101B100088E0D8DF81E0D6DF86E0D4DF8CE0D2CF6A
:101B200042E061E0ACCFA1E0B0E0E8E9FDE0F8C35D
:101B30008C01660F660F660FE12CF12C8E2D860F3F
:101B400080646983BFDFF801EE0DFF1D8491E8DF3B
:101B50008FEFE81AF80A6981E8E0EE16F10471F7F0
:101B60002196E6E0F9C3DFCF0895DACF089581E04A
:101B7000A9DF80915B0290915C02892BF9F060E013
:101B8000A0E2262F30E07091190180911A0190E0B7
:101B90000197789FA001799F500D112424173507D4
:101BA0004CF4E0915B02F0915C02E20FF31FA08322
:101BB0006F5FE7CF1092590210925A020895D7CF63
:101BC0000895CF93DF93EC018991882311F0A8DF6A
:101BD000FBCFDF91CF910895F4CF0895CF93DF939A
:101BE000EC01FE018491882319F09ADF2196F9CF48
:101BF000DF91CF910895F2CF0895AAE0B0E0E2E03E
:101C0000FEE08CC31AE02AE0C22ED12CE12CF12C8C
:101C1000062FA70196013AD3CA01B9011150E1E09C
:101C2000F0E0EC0FFD1FE10FF11D005D2AE0629F67
:101C3000001911240083611571058105910541F793
:101C40001A3050F4E1E0F0E0EC0FFD1FE10FF11D60
:101C5000808166DF1F5FF4CF2A96E8E07BC3CDCF9B
:101C60000895CF92DF92EF92FF926B017C0197FF74
:101C70000AC0F094E094D094C094C11CD11CE11C23
:101C8000F11C8DE24DDFC701B601B7DFFF90EF9089
:101C9000DF90CF900895E5CF08951F93CF93DF9302
:101CA000182FC8E0D0E88D2F812311F081E301C007
:101CB00080E336DFD695C150B1F7DF91CF911F9108
:101CC0000895EBCF0895A5E0B0E0E8E6FEE02BC371
:101CD000182F80E8898380EC8A8384E98B8384EDE4
:101CE0008C83FE01E60FF11D8181810F6D83EADE99
:101CF000109359026D8160935A022596E3E02FC339
:101D0000E2CF0895813011F48FE001C08EE0DACE89
:101D1000F9CF08958CE0D6CEFDCF0895AC0160E0F8
:101D200080E035C1AC0160E081E031C1CF93DF9349
:101D3000EB01F4DFCE01F6DFDF91CF910895F6CF0E
:101D4000089587B18D7A87B985E090E06F9364E05C
:101D50006A95F1F76F910197C9F70895809169022B
:101D6000811104C081E080936902EBCF0895A1E066
:101D7000B0E0ECEBFEE0D8C28983F0DF96B1898158
:101D800089232196E2E0ECC2CF93C82FE7DF86B12A
:101D90008C23E9F38AE090E074D086B18C23B9F308
:101DA00086B18C23CF910895EFCF08951F93CF93E1
:101DB000DF93182FD3DFC12FD0E026B130E020957C
:101DC00030952C233D23232BC1F38AE090E059D09A
:101DD00026B130E0209530952C233D23232B69F349
:101DE00086B180958123DF91CF911F910895DECF39
:101DF00008952F928F939F932FB6809164029091B4
:101E000065020196809364029093650290E0809150
:101E10006602891F8093660290915E029C5F909398
:101E20005E0280915D0280519742C0F090935E0205
:101E300080935D0280915F02909160020196809391
:101E40005F029093600290E080916102891F80930D
:101E5000610280916202891F809362022FBE9F916E
:101E60008F912F90189528EE33E0019748F0F901F3
:101E70006F9364E06A95F1F76F913197C9F7F5CFE9
:101E80000895F1CF0895E0E7F0E080818E7F8083B0
:101E9000A0EBB0E08C9183608C93A1EBB0E08C91CF
:101EA000807F8C938C9182608C93B89A80818160C2
:101EB00080837894089580916A02811104C081E042
:101EC00080936A02E0CF0895F6DFE0E7F0E08081DA
:101ED0008E7F808360915F027091600280916102C9
:101EE000909162022081216020830895EDCF0895B2
:101EF000E2DFE0E7F0E080818E7F808310925F0276
:101F000010926002109261021092620210925E02C0
:101F100010925D028081816080830895E9CF0895E9
:101F200063E08EEF52D180E079C1FADF8111FDCFFD
:101F300008951F93CF93DF93EC01162FF6DF9E01D8
:101F40002078332786E0369527958A95E1F7AE010C
:101F500044275170822F852B806F212F207830E00D
:101F600095E0359527959A95E1F7822B57D18C2FDF
:101F70008F7754D1812F8F7751D1DF91CF911F91DE
:101F80000895811522E0920708F4D3CF08950F93A6
:101F90001F93CF93DF93082F162FEA0180916702DA
:101FA0000F3F51F5811105C087ED38D181E0809355
:101FB0006702113031F01F3F11F480E903C082E95C
:101FC00001C084EED7FF06C0D195C195D1091F3F4E
:101FD00009F08E5FCF3FD10521F01CF0CFEFD0E0AC
:101FE00001C0C7FD81601AD18C2F8F7717D1DF9187
:101FF000CF911F910F910895882321F086ED0ED186
:102000001092670281E0013009F080E090E0113029
:1020100011F4CA9605C01F3F11F4809601C0829644
:10202000880F880FCFCFB3CF0895A2E0B0E0EAE1E8
:10203000F0E179C167FD6FE7813019F019E080EDBB
:1020400002C01AE081ED4A836983E8D06981862F56
:10205000E5D04A816981442319F0812F90E091DF16
:102060002296E3E07CC1E1CF0895A2E0B0E0EAE38C
:10207000F0E159C167FD6FE7813019F01BE08CEB8F
:1020800002C01CE08EEB4A836983C8D06981862F29
:10209000C5D04A816981442319F0812F90E071DF16
:1020A0002296E3E05CC1E1CF0895813011F088ED24
:1020B00001C089ED63E089D080E0B0C0F6CF08951B
:1020C00081EEACC0A2E0B0E0E7E6F0E12AC1182F53
:1020D000062F7A836983FA8067FD02C088E901C010
:1020E0008CE9F7FC826017FD816098D0812F8F7793
:1020F00095D08F2D8F7792D0802F8F778FD022968B
:10210000E5E02BC1A4E0B0E0E7E8F0E109C19A8383
:1021100089837C836B8397FF04C08FEF9FE79A834B
:102120008983F980EA801B810C8117FD02C080EA57
:1021300001C084EA07FD8260F7FC81606FD08E2DBC
:102140006DD08F2D8F776AD0802F8F7767D0812FBA
:102150008F7764D02496E6E0FFC0A1E0B0E0E2EB28
:10216000F0E1E1C0182F803108F01FE082EE6983B2
:1021700055D0812F53D06981662321F0612F81E1F1
:1021800090E0D7DE2196E3E0EAC0249902C02C9BC0
:1021900011C094B1906A94B92698982F9370906565
:1021A0006C7A962B9CBD82FB882780F98DBD81E0DF
:1021B00090E059CE2C9AEEE1F0E06F9364E06A95DE
:1021C000F1F76F913197C9F7E4CFCF93DF93D82F11
:1021D000C62F0CB406FC03C060E085E0D6DF0CB46B
:1021E00004FC03C09CB590619CBDDEBD0DB407FC32
:1021F00006C09CB5892F807194FDF8CF0CC0CC230C
:1022000049F08C2F90E06F9364E06A95F1F76F913D
:102210000197C9F78EB5DF91CF91089560E0D5CFD2
:10222000A29FB001B39FC001A39F700D811D112417
:10223000911DB29F700D811D1124911D0895AA1B3F
:10224000BB1B51E107C0AA1FBB1FA617B70710F0A1
:10225000A61BB70B881F991F5A95A9F780959095D3
:10226000BC01CD01089597FB072E16F4009406D00B
:1022700077FD08D0E4DF07FC05D03EF4909581950A
:102280009F4F0895709561957F4F0895A1E21A2E92
:10229000AA1BBB1BFD010DC0AA1FBB1FEE1FFF1F0A
:1022A000A217B307E407F50720F0A21BB30BE40B5A
:1022B000F50B661F771F881F991F1A9469F76095A1
:1022C0007095809590959B01AC01BD01CF0108955B
:1022D000052E97FB16F400940FD057FD05D0D6DFDE
:1022E00007FC02D046F408C05095409530952195E2
:1022F0003F4F4F4F5F4F0895909580957095619532
:102300007F4F8F4F9F4F08952F923F924F925F9232
:102310006F927F928F929F92AF92BF92CF92DF92F5
:10232000EF92FF920F931F93CF93DF93CDB7DEB75A
:10233000CA1BDB0B0FB6F894DEBF0FBECDBF0994EE
:102340002A88398848885F846E847D848C849B8445
:10235000AA84B984C884DF80EE80FD800C811B8153
:10236000AA81B981CE0FD11D0FB6F894DEBF0FBE82
:0A237000CDBFED010895F894FFCFF2
:10237A000123041E04050413040D04FF0388130F2C
:10238A0000F4010400D0070401140400006B0220C9
:10239A0000200000010203030405FF066E02F20595
:1023AA007D057F027303C1036D56005265642031B7
:1023BA00202020003E63333200477265656E20316B
:1023CA0020005265642032202020003E643332000F
:1023DA00477265656E203220006533323E653332BE
:1023EA000059656C6C6F772020006D656C6F64799D
:1023FA003A006675677565005573657220492F4FF7
:10240A0000444444444444444420414141414141FC
:10241A00414100373635343332313020373635349E
:10242A0033323130006375723A20006D6F746F7207
:10243A0032006D6F746F7231004D313A2046574445
:10244A00004D313A20202020004D313A2052565377
:10245A00004D313A204F4646004D323A2046574405
:10246A00004D323A20202020004D323A2052565355
:10247A00004D323A204F4646004F72616E677574BE
:10248A00616E002058320020205642415400206DCF
:10249A0056200053696D706C652054657374000092
:00000001FF
