:1000000033C000004CC000004AC0000048C00000DF
:1000100046C0000044C0000042C0000040C00000D4
:100020003EC00000A0C200003AC0000038C000007E
:1000300036C0000034C0000032C0000030C00000F4
:100040002EC000002CC000002AC0000028C0000004
:1000500026C0000024C0000022C0000020C0000014
:100060001EC000001CC0000011241FBECFEFD8E04E
:10007000DEBFCDBF11E0A0E0B1E0E8EFFEE002C0DE
:1000800005900D92A231B107D9F711E0A2E1B1E0DC
:1000900001C01D92A033B107E1F702D02BC7B0CF4A
:1000A00060D213D1C1E4D0E0CE0195D482E390E0D8
:1000B000A2D22196CB37D105B9F780ED97E09BD23C
:1000C00004D189E091E09F938F9374D40F900F90A7
:1000D000CFE0D1E061E080E007D2C2D29F938F935E
:1000E0007F936F93DF93CF9365D488E893E183D2B6
:1000F0000F900F900F900F900F900F90EBCF80E02C
:1001000090E0089581E090E06F9364E06A95F1F7E4
:100110006F910197C9F708950F931F93CF93DF93C2
:100120001AB157985A98289AC0E0D0E0EBDF5C9A51
:10013000E9DF09B15C98E6DF5C9AE4DF5C9824961D
:1001400007FF10C0AE0160E070E080911201909155
:100150001301A0911401B0911501481759076A07BE
:100160007B0720F31AB9DF91CF911F910F9108956A
:1001700095B1282F217030E0220F331F482F467091
:1001800068E0469FA0011124242B9D7C292B25B9D2
:100190009BB188708295807F9F77892B8BB95C9A01
:1001A000B1DF5C98AFCFA0E0B0E0E8EDF0E065C271
:1001B000C82FD62EE42E80912401811104C081E045
:1001C000809324012AD0A8DF14B1D5B1FAB00BB1C5
:1001D0002898DD2011F05A9A01C05A9894B1926380
:1001E00094B9579A81E0E81621F08C2F82958F7090
:1001F000BFDF8C2F8F70BCDFFAB80BB914B9D5B93B
:10020000CDB7DEB7E7E055C242E060E0CCCF42E0D8
:1002100061E0C9CF41E060E0C6CF80E197E2A0E0B5
:10022000B0E08093120190931301A0931401B09356
:100230001501529A209A549A8EE190E0DCD183E025
:10024000E9DF86E090E0D7D183E0E4DF82E090E070
:10025000D2D183E0DFDF82E090E0CDD182E0DADF4F
:1002600082E090E0C8D188E2CFDF88E0CDDF81E096
:10027000CBDF86E0C9DF8CE0C7CF81E0C5DF8091AE
:10028000180190911901892BF9F060E0A0E2262F66
:1002900030E0709101018091020190E00197789F18
:1002A000A001799F500D1124241735074CF4E091DB
:1002B0001801F0911901E20FF31FA0836F5FE7CFE0
:1002C00010921601109217010895D7CF0895A5E056
:1002D000B0E0ECE6F1E0D5C1182F80E8898380EC2E
:1002E0008A8384E98B8384ED8C83FE01E60FF11D04
:1002F0008181810F6D8388DF109316016D8160937A
:1003000017012596E3E0D9C1FF920F931F93CF9376
:10031000DF93C82F8091180190911901892B41F426
:100320008C2F992787FD9095CDB7DEB7E5E0C3C147
:10033000CA3009F43DC0C830C1F480911601815023
:10034000809316018F3F51F4809117018150809363
:10035000170180910101815080931601809117014E
:100360008F3FB9F51092170132C08C2F50DF80916A
:1003700017018823A1F090E0019740910101489F67
:100380009001499F300D112480911601E0911801D0
:10039000F0911901E20FF31FE80FF11DC083809166
:1003A00016018F5F80931601909101018913B8CFD8
:1003B00040911701842F90E02091020130E02150FC
:1003C00031098217930759F04F5F4093170110923C
:1003D0001601609117018091160179DFA1CFD0E05D
:1003E00060910201862F90E002972D2F332727FD81
:1003F0003095281739077CF56D2F80E068DFF12CE8
:1004000020910101F21628F50F2D10E03D2F320347
:10041000C0011124E0911801F0911901E00FF11FC2
:10042000E80FF91F8081F3DEE0911801F0911901C6
:10043000209101013D2F3203C0011124E00FF11F73
:10044000E80FF91FDF01A20FB11D8C918083F39497
:10045000D7CFDF5FC5CF623038F4609102016150C1
:1004600080E035DFD0E037C0625080E030DFD0E0A0
:1004700060E2F62E40910101D41778F70D2F10E0BD
:100480002091020130E022503109429FC001439F78
:10049000900D1124E0911801F0911901E00FF11F66
:1004A000E80FF91F8081B3DE2091020130E0225075
:1004B000310940910101429FC001439F900D1124D9
:1004C000E0911801F0911901E00FF11FE80FF91FF9
:1004D000F082DF5FCFCF80910101D81708F077CF8E
:1004E00080E295DEDF5FF7CFF2CE089580911801AC
:1004F00090911901009709F084D120910101809118
:10050000020190E00197AC01249FC001259F900D4E
:100510001124DFD09093190180931801892B01F1E8
:1005200060E0A0E2262F30E070910101809102018D
:1005300090E00197789FA001799F500D1124241716
:1005400035074CF4E0911801F0911901E20FF31F07
:10055000A0836F5FE7CF6FE770E084E891E0E0C1D0
:100560000895C4CF08952F928F939F932FB68091B3
:100570002101909122010196809321019093220103
:1005800090E080912301891F8093230190911B01AA
:100590009C5F90931B0180911A0180519742C0F09B
:1005A00090931B0180931A0180911C0190911D0171
:1005B000019680931C0190931D0190E080911E0193
:1005C000891F80931E0180911F01891F80931F0145
:1005D0002FBE9F918F912F90189528EE33E00197B1
:1005E00048F0F9016F9364E06A95F1F76F913197E4
:1005F000C9F7F5CF0895F1CF0895E0E7F0E08081E5
:100600008E7F8083A0EBB0E08C9183608C93A1EB14
:10061000B0E08C91807F8C938C9182608C93B89A9F
:100620008081816080837894089580912501811173
:1006300004C081E080932501E0CF0895F6DFE0E774
:10064000F0E080818E7F808360911C0170911D019C
:1006500080911E0190911F012081216020830895C7
:10066000EDCF08952F923F924F925F926F927F92BB
:100670008F929F92AF92BF92CF92DF92EF92FF92B2
:100680000F931F93CF93DF93CDB7DEB7CA1BDB0B5E
:100690000FB6F894DEBF0FBECDBF09942A88398803
:1006A00048885F846E847D848C849B84AA84B9840A
:1006B000C884DF80EE80FD800C811B81AA81B98116
:1006C000CE0FD11D0FB6F894DEBF0FBECDBFED012A
:1006D0000895CF93DF938230910510F482E090E08B
:1006E000E0912801F091290120E030E0A0E0B0E0A5
:1006F000309739F14081518148175907B8F04817B0
:10070000590771F482819381109729F013969C9375
:100710008E9312972CC0909329018093280127C0B3
:100720002115310531F04217530718F0A901DB01FB
:1007300001C0EF019A01BD01DF010280F381E02DCC
:10074000D7CF21153105F9F0281B390B243031059D
:1007500080F48A819B816115710521F0FB019383EF
:10076000828304C09093290180932801FE01329670
:1007700044C0FE01E20FF31F81939193225031098F
:10078000398328833AC02091260130912701232BF9
:1007900041F4209105013091060130932701209307
:1007A000260120910301309104012115310541F406
:1007B0002DB73EB74091070150910801241B350B1E
:1007C000E0912601F0912701E217F307A0F42E1B18
:1007D0003F0B2817390778F0AC014E5F5F4F2417A5
:1007E000350748F04E0F5F1F5093270140932601B5
:1007F0008193919302C0E0E0F0E0CF01DF91CF91CF
:100800000895CF93DF93009709F487C0FC013297D6
:1008100013821282C0912801D0912901209781F47E
:1008200020813181280F391F809126019091270165
:100830008217930779F5F0932701E09326016DC0A5
:10084000DE0120E030E0AE17BF0750F412964D9164
:100850005C9113979D014115510509F1DA01F3CF20
:10086000B383A28340815181840F951F8A179B0710
:1008700071F48D919C911197840F951F029691832D
:10088000808312968D919C91139793838283211577
:10089000310529F4F0932901E09328013EC0D901E4
:1008A0001396FC93EE9312974D915D91A40FB51F93
:1008B000EA17FB0779F480819181840F951F0296D6
:1008C000D90111969C938E938281938113969C9368
:1008D0008E931297E0E0F0E08A819B81009719F0F7
:1008E000FE01EC01F9CFCE01029628813981820FF9
:1008F000931F20912601309127012817390769F4A9
:10090000309729F4109229011092280102C0138215
:100910001282D0932701C0932601DF91CF910895D1
:100920000F931F93CF93DF93EC018B01009731F46A
:100930006115710519F480E090E037C06EE070E059
:1009400081E090E010D2FC010097A9F380E8838356
:100950000115110571F01387028781E88383809167
:100960002A0190912B01892B21F4F0932B01E09324
:100970002A012097C9F0D187C08783818260838351
:1009800080912C0190912D01892B71F4F0932D0110
:10099000E0932C0180912E0190912F01892B21F45D
:1009A000F0932F01E0932E01CF01DF91CF911F91A2
:1009B0000F910895A0E0B0E0EFEDF4E063CEFE010A
:1009C000359661917191AF0180912C0190912D012B
:1009D00007D0E2E073CE60912C0170912D01FAC135
:1009E000ACE0B0E0E5EFF4E03DCE7C016B018A01C4
:1009F000FC0117821682838181FFB0C1CE0101966E
:100A00004C01F7019381F60193FD859193FF81914C
:100A10006F01882309F49EC1853239F493FD8591D5
:100A200093FF81916F01853221F4B70190E0D2D11B
:100A3000E8CF512C312C20E02032A0F48B3269F029
:100A400030F4803259F0833269F420612CC08D3249
:100A500039F0803339F4216026C02260246023C03D
:100A6000286021C027FD27C030ED380F3A3078F4D8
:100A700026FF06C0FAE05F9E300D1124532E13C0EE
:100A80008AE0389E300D1124332E20620CC08E3245
:100A900021F426FD5FC1206406C08C3611F4206865
:100AA00002C0883641F4F60193FD859193FF819150
:100AB0006F018111C1CF982F9F7D9554933028F4F9
:100AC0000C5F1F4FFFE3F9830DC0833631F083378E
:100AD00071F0833509F057C021C0F8018081898306
:100AE0000E5F1F4F44244394512C540114C038010D
:100AF000F2E06F0E711CF801A080B18026FF03C0E8
:100B0000652D70E002C06FEF7FEFC5012C8757D1D4
:100B10002C0183012C852F77222E16C03801F2E09C
:100B20006F0E711CF801A080B18026FF03C0652DF7
:100B300070E002C06FEF7FEFC5012C872ED12C0132
:100B40002C852068222E830123FC19C0832D90E080
:100B500048165906A0F4B70180E290E03BD13A94E0
:100B6000F5CFF50127FC859127FE81915F01B70143
:100B700090E030D131103A94F1E04F1A510841140D
:100B8000510479F7DEC0843611F0893631F5F80169
:100B900027FF07C060817181828193810C5F1F4FA5
:100BA00008C060817181882777FD8095982F0E5F3E
:100BB0001F4F2F76B22E97FF09C0909580957095A4
:100BC00061957F4F8F4F9F4F2068B22E2AE030E013
:100BD000A40132D1A82EA81843C0853729F42F7E4E
:100BE000B22E2AE030E025C0F22FF97FBF2E8F36DB
:100BF000C1F018F4883579F0ADC0803719F0883726
:100C000021F0A8C02F2F2061B22EB4FE0DC08B2D75
:100C10008460B82E09C024FF0AC09F2F9660B92EA9
:100C200006C028E030E005C020E130E002C020E14D
:100C300032E0F801B7FE07C0608171818281938143
:100C40000C5F1F4F06C06081718180E090E00E5FF5
:100C50001F4FA401F1D0A82EA818FB2DFF77BF2E9F
:100C6000B6FE0BC02B2D2E7FA51450F4B4FE0AC087
:100C7000B2FC08C02B2D2E7E05C07A2C2B2D03C074
:100C80007A2C01C0752C24FF0DC0FE01EA0DF11D68
:100C90008081803311F4297E09C022FF06C073943D
:100CA000739404C0822F867809F0739423FD12C0D8
:100CB00020FF06C05A2C731418F4530C5718732CC9
:100CC000731460F4B70180E290E02C8783D07394B2
:100CD0002C85F6CF731410F4371801C0312C24FF83
:100CE00011C0B70180E390E02C8774D02C8522FFDF
:100CF00016C021FF03C088E590E002C088E790E0BD
:100D0000B7010CC0822F867851F021FD02C080E22D
:100D100001C08BE227FD8DE2B70190E05BD0A51406
:100D200030F4B70180E390E055D05A94F8CFAA94FC
:100D3000F401EA0DF11D8081B70190E04BD0A110C4
:100D4000F6CF332009F45DCEB70180E290E042D0C7
:100D50003A94F7CFF7018681978102C08FEF9FEF1A
:100D60002C96E2E19BCC0F931F93CF93DF93869F4A
:100D70008001879F100D969F100D1124C801A9DCDA
:100D8000EC01009721F0A80160E070E011D0CE01E5
:100D9000DF91CF911F910F910895FC010590615053
:100DA00070400110D8F7809590958E0F9F1F089581
:100DB000DC0101C06D9341505040E0F70895FC0103
:100DC0006150704001900110D8F7809590958E0F7A
:100DD0009F1F08950F931F93CF93DF93182F092F11
:100DE000EB018B8181FD03C08FEF9FEF20C082FF5D
:100DF00010C04E815F812C813D81421753077CF4E6
:100E0000E881F9819F012F5F3F4F39832883108349
:100E100006C0E885F985812F0995892B29F72E8150
:100E20003F812F5F3F4F3F832E83812F902FDF9194
:100E3000CF911F910F910895FA01AA27283051F1FF
:100E4000203181F1E8946F936E7F6E5F7F4F8F4FFB
:100E50009F4FAF4FB1E03ED0B4E03CD0670F781F5A
:100E6000891F9A1FA11D680F791F8A1F911DA11D3F
:100E70006A0F711D811D911DA11D20D009F4689478
:100E80003F912AE0269F11243019305D3193DEF620
:100E9000CF010895462F4770405D4193B3E00FD0D6
:100EA000C9F7F6CF462F4F70405D4A3318F0495DC1
:100EB00031FD4052419302D0A9F7EACFB4E0A695A4
:100EC0009795879577956795BA95C9F700976105C6
:100ED000710508959B01AC010A2E0694579547951C
:100EE00037952795BA95C9F7620F731F841F951F11
:080EF000A01D0895F894FFCF46
:100EF800010802000030012000446973743A00259B
:020F0800750072
:00000001FF
